:100000000C9488000C94040F0C94A5000C94A5008B
:100010000C94A5000C94A5000C94A5000C94A500CC
:100020000C94A5000C94A5000C94A5000C94A500BC
:100030000C94A5000C94A5000C94A5000C94A500AC
:100040000C94A5000C94A5000C94A5000C94A5009C
:100050000C94A5000C94A5000C94A5000C94A5008C
:100060000C94A5000C94A500090220000101008059
:1000700032090400000258420000070582032000F4
:100080000407050203080004120110010000000823
:100090005E040202000100000001FF0004FF0607E9
:1000A00005FF020103FFFFFFFFFFFF00020104FF46
:1000B00003FF0607FFFF052A0355005300420020F7
:1000C0000052006500740072006F0050006100640F
:1000D000002000410064006100700074006500723F
:1000E000002A037700770077002E00620072007507
:1000F000006E006F006600720065006900740061A8
:100100000073002E0063006F006D000403090400FB
:1001100011241FBECFEFD4E0DEBFCDBF11E0A0E0C1
:10012000B1E0E4EBF1E202C005900D92A231B1071B
:10013000D9F721E0A2E1B1E001C01D92A73CB207CE
:10014000E1F70E944C050C94D8100C9400000F931A
:100150001F93FF93EF93BF93AF93F92FE82F09E01D
:1001600000934E0100E200934F0100E00093500124
:1001700001E00093510101E00093520100E000937F
:100180005301009354010093550109E20093560175
:1001900007D0BF91AF91EF91FF911F910F910895FB
:1001A000A1E0BEE409E02D980000000000002C98BA
:1001B0000000000000002C9A000000002C980000B5
:1001C000000000002C9A0000000000002C980000A5
:1001D000000000002C9A0000000000002C98000095
:1001E000000000002C9A00000000000000002D9A82
:1001F0001D9117FD2C9A17FF2C982D9800000000D8
:100200002C9A16FD2D9A16FF2D982C9A00000000AE
:100210002D9A15FD2C9A15FF2C982D9A00000000A0
:100220002C9A14FD2D9A14FF2D982C9A0000000092
:100230002D9A15FD2C9A15FF2C982D9A0000000080
:100240002C9A14FD2D9A14FF2D982C9A0000000072
:100250002D9A15FD2C9A15FF2C982D9A0000000060
:100260002C9A14FD2D9A14FF2D982C9A0000000052
:100270002D9A0A952D9A2C9A0895F92FE82FCF934D
:10028000DF93D72FC62F21E030E0E20FF31F2227A4
:10029000332744275527662777278827992790E013
:1002A00099D0B6D082D0292F80D0392F7ED0492F37
:1002B000253031F02930A1F180E0DF91CF91089510
:1002C000BFEFBA95F1F7B8ECBA95F1F791E082D0AB
:1002D0009FD06BD0292F69D0392F67D0492F65D097
:1002E000592F4083518340E050E027FD426026FDB6
:1002F000416025FD546024FD52602F7035FD40643F
:1003000034FD406833FD486032FD446031FD40619A
:1003100030FD406245835683822FDF91CF9108954F
:10032000B4E6BA95F1F790E455D093E053D092E05B
:1003300051D06ED03AD0292F38D0392F36D0492F0E
:1003400034D0592F32D0692F30D0792F2ED0892F29
:100350002CD0405850584083518360587058628365
:10036000738340E050E020FD426021FD416022FDAA
:10037000486023FD446024FD526034FD546035FD27
:10038000406836FD406436FF8C8335FF9D8345838E
:1003900056833F70232F3E7F31FD31603D7F20FD2E
:1003A0003260832FDF91CF91089590E0B4E1A8E00F
:1003B000BA9579F01899FCCFB9E0BA95F1F7990F91
:1003C00018999160B4E1BA9521F0189BFCCFAA95D9
:1003D00079F70895A8E097FD0DC0209ABDE0BA9581
:1003E000F1F700002098B3E0BA95F1F7990FAA95BC
:1003F00091F70895209AB3E0BA95F1F70000000054
:100400002098BDE0BA95F1F7990FAA9521F70895C4
:10041000209AB3E0BA95F1F7000000002098089503
:10042000E9E2F1E084E1DF01982F1D929A95E9F766
:10043000818390E1948B92E4958B168A91E0978B5F
:10044000908F92E0918F828F86E0838F8FEF848FE1
:10045000858F868F878F80A381A382A383A308952E
:10046000CF93DF93C82FD92F0E941002CD2B11F10B
:1004700088E19FE00FB6F894A895809360000FBEC6
:10048000909360000E94D80EF894519A8AB18660C9
:100490008AB927E48CEA9BE0215080409040E1F744
:1004A00000C0000051988AB1897F8AB97894DF91A1
:1004B000CF9108950FB6F894A89580916000886157
:1004C00080936000109260000FBEDCCFA895089565
:1004D000CF93DF938091A40186FD07C0C4EAD1E0E9
:1004E0000E94C90D888186FFFBCF64E189E291E01B
:1004F0000E94C40DDF91CF910895E82FF92F8081DC
:100500008076803221F0803479F080E00895818116
:10051000813011F080E0089589E291E090938901A3
:100520008093880184E108958181863011F080E014
:10053000089581E090E090931301809312018DE380
:1005400091E0909389018093880180E108958091E2
:1005500012019091130108954F925F926F927F92D2
:100560008F929F92AF92BF92CF92DF92EF92FF92C3
:100570000F931F93CF93DF93CDB7DEB728970FB6B6
:10058000F894DEBF0FBECDBF69837A838B839C83D3
:10059000422E532E642E752EED82FE820F83188715
:1005A0008A2C9B2CAC2CBD2C29813A814B815C81FF
:1005B00024193509460957098B8D9C8DAD8DBE8D4B
:1005C0007C018D01E818F9080A091B09C801B70167
:1005D0000E9465102D813E814F815885241935096F
:1005E000460957090E947510DA01C901880D991D45
:1005F000AA1DBB1DBC01CD0128960FB6F894DEBF25
:100600000FBECDBFDF91CF911F910F91FF90EF9063
:10061000DF90CF90BF90AF909F908F907F906F9022
:100620005F904F9008951AB889EF8BB914B88FE393
:1006300085B917B888B9089581E090E00E9430022A
:100640000E94A702892B59F40E9466028BE792E967
:100650000197F1F700C000000E946802F1CF0895F1
:10066000682FF89488E0EAE0F1E0ACE1B1E00190B5
:100670000D928A95E1F760931C0188E0E2E0F1E0D9
:10068000A4E1B1E001900D928A95E1F735994BC054
:10069000349942C086B18E71863011F180F4823077
:1006A000C1F0843029F48CE191E00E9438084CC0FC
:1006B00081114AC08CE191E00E94DD0B3AC0883084
:1006C000A1F08A3009F040C08CE191E00E947007EF
:1006D00030C064E171E08CE191E00E94860A29C09B
:1006E0008CE191E00E94CA0724C083B186708230F9
:1006F00071F0863039F081111CC08CE191E00E94CC
:10070000A70617C08CE191E00E94FC0612C08CE1A4
:1007100091E00E9452080DC0339916C08CE191E01F
:100720000E943F0D06C033990BC08CE191E00E94FE
:10073000A605E8E6F0E080818E7F808378940895B6
:100740008CE191E00E94FE0889B1897071F44C9BA4
:1007500007C064E171E08CE191E00E946D05E9CF92
:100760008CE191E00E946F09E4CF8CE191E00E945E
:100770008408DFCFAF92BF92CF92DF92EF92FF92C9
:100780000F931F93CF93DF9300D000D000D0CDB74D
:10079000DEB7A82EB92E262F372FD50115968C91AE
:1007A00080FF32C1A9E2B1E012969C91129791604C
:1007B00012969C9382FF31C1A9E2B1E012969C91FE
:1007C0001297926012969C9383FF30C1A9E2B1E028
:1007D00012969C911297946012969C9381FF2FC160
:1007E000A9E2B1E012968C911297886012968C93D0
:1007F000F501878181FF2CC1A9E2B1E012969C919D
:100800001297906112969C9380FF2BC1A9E2B1E0F0
:1008100012969C911297906212969C9382FF2AC125
:10082000A9E2B1E012969C911297906412969C9363
:1008300083FF29C1A9E2B1E012968C9112978068DA
:1008400012968C93D50116968C91A9E2B1E0982F5F
:100850009170919514969C93149781FB992790F928
:10086000919515969C93159782FB882780F9819521
:1008700016968C931697F501868183FB882780F95D
:10088000819517968C931797868186FB882780F928
:1008900081951A968C931A978681880F880B1B96E0
:1008A0008C931B97868185FB882780F98195189604
:1008B0008C931897868182958170819519968C9377
:1008C000D9018C91811180932D01F90182818111CF
:1008D00080932F01D90113968C918111809330015F
:1008E000F9018181811180932E01D90114968C9197
:1008F000811180933301F901858181118093340145
:10090000D90116968C91811180933101F90187816B
:1009100081118093320109E211E0D50111962C91E9
:1009200030E050E040E020583F4F4F4F5F4FAFEF77
:10093000BFEF0E949410C12CD12C7601CA94A7015C
:1009400096010E947510305841095109F801358708
:100950002487D50112962C9130E050E040E02058D9
:100960003F4F4F4F5F4FA1E0B0E00E94A210A701A0
:1009700096010E947510215030484F4F5F4FF8018B
:1009800037872687D50113962C9130E050E040E060
:1009900020583F4F4F4F5F4FAFEFBFEF0E94941073
:1009A000A70196010E947510305841095109F801BC
:1009B000318B208BD50114962C9130E050E040E033
:1009C00020583F4F4F4F5F4FA1E0B0E00E94A21070
:1009D000A70196010E947510215030484F4F5F4F7C
:1009E000F801338B228B26960FB6F894DEBF0FBE2C
:1009F000CDBFDF91CF911F910F91FF90EF90DF90CE
:100A0000CF90BF90AF900895A9E2B1E012969C916B
:100A100012979E7F12969C93CDCEA9E2B1E01296DA
:100A20009C9112979D7F12969C93CECEA9E2B1E045
:100A300012969C9112979B7F12969C93CFCEA9E21F
:100A4000B1E012968C911297877F12968C93D0CE3C
:100A5000A9E2B1E012969C9112979F7E12969C9308
:100A6000D3CEA9E2B1E012969C9112979F7D129687
:100A70009C93D4CEA9E2B1E012969C9112979F7BF1
:100A800012969C93D5CEA9E2B1E012968C91129762
:100A90008F7712968C93D6CE0E9413030E941C036C
:100AA00081E00E9430030E94660281E00E943003D0
:100AB00064E171E08CE191E00E94BA030E94680257
:100AC000F2CF9C01239894B1906394B995B1986347
:100AD00095B9C9010E94A70008950F931F93CF9362
:100AE000DF93C82FD92F062F172F289820985F98AB
:100AF000579AB801CE010E943D0183FF03C09D813A
:100B000091609D8382FF03C09D8194609D8381FFDE
:100B100003C09D8198609D8380FF03C08D818260AA
:100B20008D83F8018481833208F41482F801858171
:100B3000833208F415828A8181958A838C8181951C
:100B40008C83DF91CF911F910F910895A82FB92F1A
:100B50008AB18E7E8AB98BB181618BB984B1886389
:100B600084B92198299A87B1807E87B988B18F612D
:100B700088B9489B2DC0229A85B1837C85B987E1CD
:100B800080937E00EAE7F0E085E0808384E680934E
:100B90007C00808180688083808186FDFDCF61300C
:100BA000F1F089B110927A0010927E00489B41C00A
:100BB0004C9902C06130A9F11999B5C0623009F0B1
:100BC000B2C016968C911697816016968C930895F4
:100BD000229885B18C6385B93898409AD0CFEAE7DE
:100BE000F0E0808180648083808186FDFDCF9091DC
:100BF00079008FE7891B12968C93129782E6809377
:100C00007C00EAE7F0E0808180648083808186FD5B
:100C1000FDCF909179008FE7891B11968C931197E6
:100C2000C0CF16968C911697816016968C9383B1DF
:100C300008952B9885E08A95F1F7309907C01696AC
:100C40008C911697826016968C9316971A9907C006
:100C500016968C911697806116968C931697199913
:100C600007C016968C911697806816968C931697E7
:100C70004C9907C017968C911797846017968C93A0
:100C800017972B9A2C9885E08A95F1F7309907C031
:100C900016968C911697846016968C9316971A99CF
:100CA00007C016968C911697806216968C931697AD
:100CB000199907C017968C911797816017968C9396
:100CC00017974C9907C016968C91169781601696C7
:100CD0008C9316972C9A2D9885E08A95F1F7309988
:100CE00007C016968C911697886016968C93169767
:100CF0001A9907C016968C911697806416968C9355
:100D00001697199907C017968C91179782601796B6
:100D10008C9317974C9906C017968C9117978860FB
:100D200017968C932D9A089598E080E00AC05F98FA
:100D300024E12A95F1F75F9A24E12A95F1F7915081
:100D400029F0880F189BF3CF8160F1CF0895CF93DE
:100D5000DF93C82FD92F8BB1886F8BB958988AB180
:100D6000896C8AB98AB18F7C8AB92098289A5E9852
:100D70000E949406982F907F9034B9F580FF03C0AD
:100D80009D8198609D8381FF03C09D8192609D83BA
:100D900082FF03C09D8191609D8383FF03C08D818D
:100DA00084608D830E94940681FF03C09E819064BD
:100DB0009E8382FF03C09E8190689E8383FF03C051
:100DC0009F8191609F8384FF03C09F8192609F8376
:100DD00085FF03C09E8194609E8386FF03C09E8131
:100DE00092609E83882324F05E9ADF91CF910895CC
:100DF0008E8181608E83F8CFE82FF92F8AB18670BB
:100E00008AB98BB1896F8BB984B1807C84B985B183
:100E10008F6385B989B181704B9B3BC08260909193
:100E20002601981759F18230E9F0B8F19230B1F00B
:100E30009130F1F59581986095833AC0913031F009
:100E40009230B1F595819860958332C0958192601A
:100E500095832EC09581926095832AC0958192607A
:100E6000958326C0911104C095819260958320C01E
:100E70009330F1F49581986095831AC08091250193
:100E80008823F1F08150809325018091240185838E
:100E900017C090912601981789F3882379F2813041
:100EA00039F49330B9F2911103C09581986095831C
:100EB0008093260183E0809325018581809324011E
:100EC0004E9904C0868181608683089508955C9858
:100ED00089E191E00197F1F789B15C9A81700895F9
:100EE000CF93DF93C82FD92F84B1837C84B9219A03
:100EF00085B18E6385B95098549A8BB181618BB955
:100F000029981D9903C08D8181608D831C9903C030
:100F10008D8184608D831B9903C08D8188608D8352
:100F20001A9903C08D8182608D830E9467078111A9
:100F300003C08E8182608E830E946707811103C087
:100F40008E8181608E830E946707811103C08E812C
:100F500088608E830E946707811103C08E81846040
:100F60008E830E946707811103C08E8180688E8303
:100F70000E946707811103C08E8180648E830E9466
:100F80006707811103C08F8182608F83299ADF9167
:100F9000CF910895E82FF92F84B1837C84B9219AE9
:100FA00085B18E6385B9549A5C9892E01BC02998EC
:100FB000000000001D9903C08681846086831C990F
:100FC00003C08681886086831B9903C08681806404
:100FD00086831A9903C08681806886835C9A299AE1
:100FE000915091F15C980000000083B18C73F9F28C
:100FF0001D9903C08581816085831C9903C085810B
:10100000826085831B9903C08581846085831A99DA
:1010100003C08581886085832998000000001D99A0
:1010200003C08681826086831C9903C086818160AB
:1010300086831B9903C08781816087831A99CECFED
:10104000878182608783CACF089598E080E006C0D8
:101050002A9A24E62A95F1F7915049F02A9824E635
:101060002A95F1F786951D9BF3CF8068F1CF0895FF
:10107000CF93DF93C82FD92F85B18C7E85B985B1E9
:10108000846285B9259884B18C6184B92B9A8AEFE2
:101090008A95F1F70E9425082B988AEA8F83DF91C1
:1010A000CF910895E82FF92F8AB186708AB98BB154
:1010B000896F8BB92098289A4E9903C086818160E8
:1010C00086838BEF189B03C08150E1F71CC089B168
:1010D000982F9095917083FF926084FF946085FFB4
:1010E00098608BEF189903C08150E1F70CC089B16B
:1010F00080FF906183FF906284FF906485FF906819
:101100008FE7891B81830895E82FF92F8AB18678AC
:101110008AB9579A5F988BB189678BB92098289ABA
:1011200086E48A95F1F789B1807379F44E9903C00A
:1011300086818160868393B1892F817090FD06C07E
:1011400087818260878381E001C080E05F9A96E4B6
:101150009A95F1F7489903C09581916095834B99D1
:1011600003C09581946095834C9903C095819860E4
:1011700095834D9903C095819260958381110CC030
:101180004E9903C0868181608683189903C0868149
:10119000826086835F9A08954E9903C0868182603B
:1011A0008683189903C08681846086835F9886E46D
:1011B0008A95F1F75F9A96E49A95F1F75F9886E43D
:1011C0008A95F1F789B1897329F75F9A96E49A9520
:1011D000F1F7489903C08681806886834B9903C0E4
:1011E0008681806486834C9903C08681886086836B
:1011F0004D99D0CF878181608783CCCFE82FF92F9D
:1012000084B1817C84B985B18E6385B987B1807CD6
:1012100087B988B18F6388B98AB18E7E8AB98BB15C
:1012200081618BB91D9903C08781816087831C9977
:1012300003C08681886086831B9903C08681826093
:1012400086831A9903C0858182608583199903C0BA
:10125000858184608583329903C08781826087831A
:10126000319903C0868184608683309903C086816A
:10127000816086830895982F969569F027E0392F2D
:101280003170880F832B21509695C9F701C0880FC4
:101290002A95EAF7089527E0F9CF89B1289898E7C9
:1012A0009A95F1F7289A98E79A95F1F785FB8827A0
:1012B00080F991E08927089598E080E00AC0289895
:1012C00028E72A95F1F7289A28E72A95F1F791500F
:1012D00029F086954D99F3CF8068F1CF08950F934B
:1012E0001F93CF93DF93C82FD92F55985D9A579AA4
:1012F0005F9A209A289A80EF8A95F1F75F9888E79D
:101300008A95F1F70E945C09182F0E945C09082F4A
:101310000E945C09982F11230CF44AC016FF03C0E9
:101320008D8188608D8315FF03C08D8184608D83DE
:1013300014FF03C08D8181608D83512F587013FF7E
:1013400003C08F8182608F83412F447012FF03C0DE
:101350008F8181608F839F70983071F1802F807CA6
:10136000803C09F473C0802F807F09F0A8C01092E0
:10137000270111FF03C08E8184608E8310FF03C09C
:101380008E8181608E8300FF03C08E8182608E8398
:1013900001FF03C08E8188608E8302FF03C08E81AF
:1013A00080648E8303FF8DC08E8180688E8389C0A8
:1013B0008D8182608D83B2CF812F82958F7014FFD3
:1013C00003C09D8191609D8381FF03C09D819460D6
:1013D0009D8382FF03C09D8198609D83887019F072
:1013E0008D8182608D83902F9095892F8F7093FDD2
:1013F00080518195880F880F8A83202F30E02095B7
:1014000030953595279535952795359527953595BB
:101410002795822F8F7023FD80518195880F880F2B
:101420008983552319F08F8182608F83442319F0BB
:101430008F8181608F8311FF03C08E8181608E83D5
:1014400010FF3FC08E8182608E833BC00F3F41F111
:1014500081E08093270110FF02C08FE78C8311FF8A
:1014600002C080E88B8300FF02C08FE78B8301FFFF
:1014700002C080E88C8302FF03C08E8180648E836B
:1014800003FF03C08E8180688E8304FF03C08E81BA
:1014900081608E8305FF15C08E8182608E8311C0AE
:1014A000809127018111D7CF11FF03C08E81816008
:1014B0008E8310FF06C08E8182608E8302C01092E0
:1014C0002701DF91CF911F910F910895982F3FE051
:1014D0003A95F1F728E080E007C02C9808C03CE37B
:1014E0003A95F1F7215071F090FFF7CF2C9A96952D
:1014F0002A983CE33A95F1F786952A9A1D9BEFCFFF
:101500008068EDCF9FE09A95F1F70895DF92EF9212
:10151000FF920F931F93CF93DF93C82FD92FE62EFF
:10152000F72E84B18D7D84B984B18C6184B985B185
:101530008E6385B92B988FE08A95F1F781E00E9440
:10154000660A82E40E94660A182F8F7DDD24D394F8
:10155000833509F0D12C01E0193709F000E081E072
:10156000113409F080E0802B89F4D1100FC01332C0
:1015700009F4C3C02B9AFFE0FA95F1F7DF91CF9100
:101580001F910F91FF90EF90DF9008958FEF0E94D1
:10159000660A8FEF0E94660A80FD03C09F819160FA
:1015A0009F8383FD03C09F8192609F83113409F460
:1015B0007FC0133709F491C08FEF0E94660A80FD47
:1015C00003C09E8190619E8381FD03C09E819062D5
:1015D0009E8382FD03C09E8190649E8383FD03C031
:1015E0009E8190689E8384FD03C09E8198609E8347
:1015F00085FD03C09E8192609E8386FD03C09E810F
:1016000091609E8388231CF08E8184608E830111FB
:1016100003C0DD2009F4ABCF8FEF0E94660A80582B
:101620008B838FEF0E94660A80588C838FEF0E9415
:10163000660A805889838FEF0E94660A80588A83E1
:10164000193709F094CF8FEF0E94660A8FEF0E943E
:10165000660A8FEF0E94660A8FEF0E94660A8FEF7C
:101660000E94660AF70183838FEF0E94660AF701E2
:1016700081838FEF0E94660AF70180838FEF0E94BB
:10168000660AF70182838FEF0E94660AF70184835E
:101690008FEF0E94660AF70185838FEF0E94660A2A
:1016A000F70187838FEF0E94660AF701868362CF76
:1016B00084FD03C09D8191609D8386FD03C09D8153
:1016C00094609D8388231CF09D8198609D8385FD97
:1016D00073CF8D8182608D836FCF81FD03C09F8129
:1016E00094609F8382FD03C09F8198609F83829551
:1016F0008F709FE089278D835FCF8FEF0E94660AEE
:101700008FEF0E94660A83FD03C09F8192609F83D2
:1017100082958F709FE089278D838FEF0E94660AE4
:1017200083FD03C09E8190689E8384FD03C09E81DB
:1017300098609E8385FD03C08E8182608E838FEFCB
:101740000E94660A805889838FEF0E94660AF7011B
:1017500080838FEF0E94660AF70182838FEF0E94D9
:10176000660AF701848306CF0F931F93CF93DF930D
:10177000282F392F062F2B98662351F0E901020FED
:10178000132F111D89910E94660AC017D107D1F746
:101790002B9A8FE08A95F1F7DF91CF911F910F91EE
:1017A000089588EC199B02C08150E1F7089588ECF8
:1017B000199902C08150E1F70895FF920F931F938A
:1017C000CF93DF93C82FD92F84B18D7C84B984B196
:1017D0008C6084B985B18E6385B98AB18E7E8AB9F1
:1017E0008BB181618BB98AE08A95F1F789B1182FA5
:1017F000117080FF53C04C9903C08E8180618E832D
:101800002B988AE08A95F1F71C9903C08D8181603D
:101810008D831D9903C08D8184608D83489903C099
:101820008D8188608D834C9903C08D8182608D830A
:1018300085B1837F886085B98AE08A95F1F71C9924
:1018400003C08E8182608E831D9903C08E81846067
:101850008E83489903C08E8181608E834C9903C02A
:101860008F8182608F8385B1837F85B98AE08A9575
:10187000F1F71C9903C08E8180688E831D9903C087
:101880008E8180648E83489903C08E8188608E83A8
:101890004C9906C08E8180628E8302C01C9906C05E
:1018A000DF91CF911F910F91FF9008952B982A9867
:1018B0000E94D10B83B18071F82E2A9A0E94D70B17
:1018C0002A980E94D10BF110B1C01C9903C08D81E0
:1018D00081608D831D9903C08D8184608D834899BB
:1018E00003C08D8188608D834C9903C08D81826097
:1018F0008D832A9A0E94D70B1C9903C08E81826027
:101900008E831D9903C08E8184608E83489903C0A5
:101910008E8181608E834C9903C08F8182608F831A
:101920002A980E94D10B1C9903C08E8180688E83F7
:101930001D9903C08E8180648E83489903C08E8177
:1019400088608E834C9903C08E8180628E832A9A30
:101950000E94D70B4C9903C08E8180618E832A9898
:101960000E94D10B1C9977C000E11D9B0062489B2F
:1019700000644C9B00682A9A0E94D70B1C9B016054
:101980001D9B0260489B04604C9B0860F11065C081
:101990002A980E94D10B1C9964C000E11D9B006233
:1019A000489B00644C9B00682A9A0E94D70B1C9BA2
:1019B00001601D9B0260489B04604C9B0860F11015
:1019C00052C02A980E94D10B1C9951C000E11D9B66
:1019D0000062489B00644C9B00682A9A0E94D70BC7
:1019E0001C9B01601D9B0260489B04604C9B08602F
:1019F000F1103FC02A980E94D10B1C9B10E11D9B47
:101A00001062489B10644C9B10682A9A0E94D70B66
:101A10001C9B11601D9B1260489B14604C9B1860BE
:101A2000F1102AC085B18C6085B93ACF1C9903C0EA
:101A30008D8181608D831D9903C08D8184608D832C
:101A4000489903C08D8188608D834C9952CF8D81D8
:101A500082608D834ECF012F88CF8FE7801B8983D3
:101A600097CF012F9BCF8FE7801B8A83AACF012FAF
:101A7000AECF06950C83BECF16951B83D3CFE82F30
:101A8000F92F84B1817C84B985B18E6385B987B122
:101A9000827C87B9399A88B18F6388B94198419A15
:101AA00080E803C08F5F8F3769F09FE09A95F1F768
:101AB0001D9981831C9982831B9983831A9BF2CF82
:101AC0008483F0CF81818E37F1F082818E37E9F007
:101AD00083818E37E1F084818E37D9F0309903C04D
:101AE000868181608683199903C08681826086839E
:101AF0004C9903C0868184608683489903C086819F
:101B00008860868308951182E0CF1282E1CF13822C
:101B1000E2CF1482E3CFEF92FF921F93CF93DF9334
:101B2000282F392F162FC42FD52F888184FF24C04A
:101B3000898198E8892789837E0182E0E80EF11C7B
:101B4000F7014FEF410F50E04F5F5F4F420F531FC0
:101B5000D9012F5F3F4F9C91919324173507C1F70F
:101B6000612FC7010E94000F1C5F1883DF91CF9186
:101B70001F91FF90EF9008958AE58883DDCF42E6BC
:101B800051E00E948B0D089544EA51E00E948B0DB4
:101B900008951F93CF93DF9380918A018350BAF405
:101BA0008091010184FF05C0809100018F3F09F001
:101BB000ABC094E189B1867031F49150D9F710929D
:101BC0008B0110928501DF91CF911F910895909123
:101BD00086019D3219F010928A01E2CF8830D9F740
:101BE00080918701CCE0D0E0C81BD109C257DE4FFD
:101BF00083EC809357018AE58093010110922801BC
:101C00008881807669F0CE010E947D029F819111CA
:101C100004C09E81981708F4892F80930001DBCFC0
:101C20002A8110926001998191110AC0109261017C
:101C300020E631E082E03093890120938801E6CFED
:101C40009530B9F09630D1F0983009F455C09930FC
:101C500009F44DC09A3009F453C020E631E09B30BE
:101C600051F79BE4909363019093A50120E631E046
:101C7000E2CF20938B0120E631E0DDCF9B819130D4
:101C800041F0923071F09330A1F090E490932801EC
:101C9000BDCF88E890E0909389018093880182E12C
:101CA000F4CF88E690E0909389018093880180E2E8
:101CB000ECCF222361F0213091F0223031F787EB15
:101CC00090E090938901809388018AE2DECF8BE0D7
:101CD00091E0909389018093880184E0D6CF81EED2
:101CE00090E090938901809388018AE2CECF20937F
:101CF0008D0120E631E09FCF2DE831E081E09BCFE0
:101D000020E631E081E097CF182F893008F018E005
:101D1000982F911B90930001E7E5F1E0908128E86E
:101D2000922790838823D1F1E0918801F091890175
:101D30008091280186FF21C08FEF810F90E00196EE
:101D40008E0F9F1F28E531E04491D9014C932F5FFE
:101D50003F4F3196E817F907B9F7909389018093BF
:101D60008801612F88E591E00E94000FC4E0C10F57
:101D7000CC30D0F0C09301011CCFA8E5B1E08FEFCB
:101D8000810F90E001968E0F9F1F9F013196E90110
:101D900028812D93E817F907C1F7DFCF60E088E5C8
:101DA00091E00E94000FC4E08FEF80930001E2CF2A
:101DB000E9E6F0E0808182608083E89AA2E6B1E003
:101DC0008BE411968C931197E4EAF1E081838AE524
:101DD0008C9380830895A82FB92F80E090E041E094
:101DE00050EA609530E009C02D918227979587953C
:101DF00010F084279527305EC8F36F5FA8F308952D
:101E0000EADF8D939D930895CF93CFB7CF93C3957A
:101E1000499BE9F7499B0BC0499B09C0499B07C0F7
:101E2000499B05C0499B03C0499B01C0C2C0C091EA
:101E30008701DF93DD27C257DE4F2F932FEF499B9A
:101E400003C02F91DF91E6CF0F931F934F936F93B2
:101E500009B101FB20F93F933BE05F931EC04E7F29
:101E6000012F19B11670E1F0216000001DC0102F84
:101E70004D7F2260000009B1067091F01DC04B7FBC
:101E80002460012F000019B1167051F01EC019B165
:101E9000167031F0477F28601BC019B1167009F425
:101EA00062C04FEF297FD9F2012701FB21F909B167
:101EB0000670B1F3237FD9F2102711FB22F900C07D
:101EC00019B1167069F3277ED1F2012701FB23F9BE
:101ED0002F7CE9F209B1067019F3102711FB24F9E0
:101EE0002F7929F100C019B11670E9F1012701FB22
:101EF00025F92F7311F100C009B10670A1F1102767
:101F000011FB26F92230F8F000C019B1167059F112
:101F1000012701FB27F92430E0F04227000009B136
:101F20004993102711FB20F93150C8F0B6CF4F7EEE
:101F300009B10670C1F02061D3CF206219B11670CB
:101F400091F04F7DD6CF4F7B09B1067061F02064D0
:101F5000D9CF4F7719B1167031F02068DCCF11E07E
:101F60001CBB002719C03B503195C31BD04011E06A
:101F70001CBB0881033C09F10B34F9F02091850169
:101F80001981110F1213EDCF4A81441F093651F107
:101F90000D3211F0013E29F700938C015F913F91C2
:101FA0006F914F911F910F912F91DF91CCB3C0FD95
:101FB0002ECFCF91CFBFCF91189520918C012223A6
:101FC00069F310918A011123E1F53430E2F1309385
:101FD0008A0120938601109187013BE0311B3093E9
:101FE000870131C000918A0101305CF50AE54F702C
:101FF00049F43091010134FD27C000930101C7E588
:10200000D1E026C0423049F03091620134FD1CC05D
:1020100000936201C3E6D1E01BC03091A40136FDFC
:1020200013C00093A401C5EAD1E012C0052711270F
:10203000000019C0052711271FC005271127000020
:1020400024C04AE502C032ED432FC4E1D0E032E0C3
:102050001AB11660599A0BB11AB956E020E866E039
:1020600020FF052727950BB917951C3FF8F66A95B1
:10207000B9F720FF0527279500000BB917951C3FDE
:10208000C8F620FF05272795179566E01C3F0BB97A
:10209000A0F629913A9521F7097F10918B01110F34
:1020A0000BB9C651D04011F01093850111E01CBB53
:1020B00002601AB1197F402F497F53E05A95F1F71A
:1020C00000C00BB91AB94BB969CFDB018F939F934D
:1020D0000E949410BF91AF91A29F800D911DA39F6C
:1020E000900DB29F900D11240895052E97FB1EF4BC
:1020F00000940E948C1057FD07D00E94A71007FC87
:1021000003D04EF40C948C10509540953095219549
:102110003F4F4F4F5F4F0895909580957095619513
:102120007F4F8F4F9F4F08950E94C910A59F900D1C
:10213000B49F900DA49F800D911D11240895B7FFA9
:102140000C9494100E949410821B930B0895A1E2AA
:102150001A2EAA1BBB1BFD010DC0AA1FBB1FEE1F21
:10216000FF1FA217B307E407F50720F0A21BB30B6C
:10217000E40BF50B661F771F881F991F1A9469F7E8
:1021800060957095809590959B01AC01BD01CF0144
:102190000895A29FB001B39FC001A39F700D811D40
:1021A0001124911DB29F700D811D1124911D089560
:0421B000F894FFCFD1
:1021B400FF5A0000000000000000000000000000C2
:0221C400000019
:00000001FF
