:100000000C94AF010C9415150C94CC010C94CE01FA
:100010000C94CC010C94CC010C94CC010C94CC012C
:100020000C94CC010C94CC010C94CC010C94CC011C
:100030000C94CC010C94CC010C94CC010C94CC010C
:100040000C94CC010C94CC010C94CC010C94CC01FC
:100050000C94CC010C94CC010C94CC010C94CC01EC
:100060000C94CC010C94CC01240352006500740064
:1000700072006F0020004100640061007000740095
:100080006500720020004D006F00640032035200D2
:100090006500740072006F00200041006400610080
:1000A000700074006500720020004D006F00640055
:1000B00020004E006500670043006F006E001201D3
:1000C00010010000000882820132010401020001D7
:1000D00012011001000000088282013301040102B4
:1000E000000105010905A1018501A10009300931BF
:1000F0001580257F75089502810209320935158022
:10010000257F7508950281020939150025073500FC
:10011000463B0165147504950181027504950181C2
:1001200003050919012910150025017501951055C0
:100130000065008102C0C005010905A1018501A17A
:1001400000093009311580257F7508950281020963
:10015000320935150026FF0075089502810209391C
:10016000150025073500463B01651475049501818E
:10017000027504950181030509190129101500254F
:100180000175019510550065008102050209C50938
:10019000C4150026FF00750895028102C0C0050144
:1001A0000905A1018501A100093009311580257FCC
:1001B000750895028102093209351580257F750879
:1001C000950281020939150025073500463B016576
:1001D00014750495018102750495018103050919BF
:1001E0000129101500250175019510550065008144
:1001F00002C0C005010905A1018502A1000930095D
:10020000311580257F75089502810209320935155F
:1002100080257F750895028102093915002507356B
:1002200000463B0165147504950181027504950132
:100230008103050919012910150025017501951083
:10024000550065008102C0C005010902A1018501B8
:100250000901A100050919012903150025019504CB
:100260007501810295017504810305010930093189
:1002700009381580257F750895038106C0C00904DB
:10028000A10185020901A100093009311580257FEE
:10029000750895028102C00509190129101500256C
:1002A0000175019510550065008102C00501090521
:1002B000A1018501A100093009311580257F75084C
:1002C00095028102093209351580257F750895024E
:1002D00081020939150025073500463B0165147573
:1002E000049501810275049501810305091901290D
:1002F0001015002501750195105500650081020556
:10030000010936093609360936093609360936092A
:10031000360936093609360936150026FF007508F4
:1003200095018102C0C0FF0004FF060705FF02011E
:1003300003FFFFFFFFFFFF0206FF040305FF0001AD
:1003400007FFFFFF00020104FF03FF0607FFFF0591
:10035000040309040A034D006F004A006F001124D2
:100360001FBECFEFD4E0DEBFCDBF11E0A0E0B1E013
:10037000EAEDFCE202C005900D92A432B107D9F774
:1003800011E0A4E2B1E001C01D92A43DB107E1F784
:100390000E948D060C946B160C94000078946F9359
:1003A0006FB72F933F934F935F9353B15C73452F78
:1003B000447130919301347120919201403049F0A1
:1003C000403161F0443179F03030A1F0343181F0C6
:1003D00012C0303179F0343059F00DC0343151F061
:1003E000303031F008C0343029F0303109F003C02A
:1003F000239501C02A9520939201452F4872309190
:100400009301387220919101403049F0403261F0FF
:10041000483279F03030A1F0383281F012C03032F9
:1004200079F0383059F00DC0383251F0303031F0B9
:1004300008C0383029F0303209F003C0239501C0DC
:100440002A9520939101509393015F914F913F9191
:100450002F916FBF6F9118950F931F93FF93EF9399
:10046000BF93AF93F92FE82F09E00093950100E2C5
:100470000093960100E00093970101E0009398013A
:1004800001E00093990100E000939A0100939B0121
:1004900000939C0109E200939D0107D0BF91AF91A9
:1004A000EF91FF911F910F910895A1E0B5E909E047
:1004B0002D980000000000002C98000000000000B3
:1004C0002C9A000000002C980000000000002C9ADC
:1004D0000000000000002C980000000000002C9A92
:1004E0000000000000002C980000000000002C9A82
:1004F00000000000000000002D9A1D9117FD2C9AAD
:1005000017FF2C982D98000000002C9A16FD2D9AAC
:1005100016FF2D982C9A000000002D9A15FD2C9A9C
:1005200015FF2C982D9A000000002C9A14FD2D9A8E
:1005300014FF2D982C9A000000002D9A15FD2C9A7E
:1005400015FF2C982D9A000000002C9A14FD2D9A6E
:1005500014FF2D982C9A000000002D9A15FD2C9A5E
:1005600015FF2C982D9A000000002C9A14FD2D9A4E
:1005700014FF2D982C9A000000002D9A0A952D9AB0
:100580002C9A0895F92FE82F21E030E0E20FF31FB5
:100590002227332744275527662777278827992737
:1005A00090E095D0B2D07ED0292F7CD0392F7AD050
:1005B000492F253021F0293081F180E00895BFEFE7
:1005C000BA95F1F7B8ECBA95F1F791E080D09DD0EB
:1005D00069D0292F67D0392F65D0492F63D0592F83
:1005E0004083518340E050E027FD426026FD41609A
:1005F00025FD546024FD52602F7035FD406434FDAC
:10060000406833FD486032FD446031FD406130FD9B
:10061000406245835683822F0895B4E6BA95F1F778
:1006200090E455D093E053D092E051D06ED03AD0C0
:10063000292F38D0392F36D0492F34D0592F32D0E6
:10064000692F30D0792F2ED0892F2CD04058505878
:1006500040835183605870586283738340E050E058
:1006600020FD426021FD416022FD486023FD446081
:1006700024FD526034FD546035FD406836FD406411
:10068000803408F04064903408F040684583568315
:100690003F70232F3E7F31FD31603D7F20FD326072
:1006A000832F089590E0B4E1A8E0BA9579F0189905
:1006B000FCCFB9E0BA95F1F7990F18999160B4E1C0
:1006C000BA9521F0189BFCCFAA9579F70895A8E078
:1006D00097FD0DC0209ABDE0BA95F1F70000209873
:1006E000B3E0BA95F1F7990FAA9591F70895209A7A
:1006F000B3E0BA95F1F7000000002098BDE0BA958C
:10070000F1F7990FAA9521F70895209AB3E0BA95C9
:10071000F1F700000000209808951AB889EF8BB90E
:1007200014B88FE385B917B888B9089580918A0104
:10073000823009F471C0833030F4882359F081305D
:1007400009F0FCC038C0833009F497C0843009F048
:10075000F5C0C4C08EEB90E09093250180932401F6
:1007600082E190E0909327018093260182EE90E051
:1007700090938C0180938B0185E590E090938E019E
:1007800080938D0181E08093830188E291E09093D2
:1007900086018093850188E08093870188E690E058
:1007A000909389018093880184E290E09093900176
:1007B00080938F01C3C08EEB90E0909325018093CE
:1007C000240182E190E090932701809326018EE935
:1007D00091E090938C0180938B018AEA90E0909352
:1007E0008E0180938D0182E08093830188E291E005
:1007F000909386018093850188E08093870188E645
:1008000090E0909389018093880184E290E0909336
:10081000900180938F0192C080ED90E0909325012C
:100820008093240182E190E0909327018093260138
:1008300088E492E090938C0180938B0184E690E0B1
:1008400090938E0180938D0182E08093830180E3F9
:1008500091E0909386018093850185E080938701E4
:1008600088E690E0909389018093880184E290E08B
:100870009093900180938F0161C08EEB90E09093F4
:1008800025018093240182E190E0909327018093D9
:10089000260187E391E090938C0180938B0187E69A
:1008A00090E090938E0180938D0181E0809383018D
:1008B00085E391E090938601809385018AE080939F
:1008C00087018CE890E0909389018093880182E30E
:1008D00090E09093900180938F0130C08EEB90E078
:1008E000909325018093240182E190E09093270169
:1008F000809326018CEA92E090938C0180938B0187
:100900008AE790E090938E0180938D0181E080933F
:1009100083018FE391E0909386018093850184E1C8
:100920008093870188E690E0909389018093880105
:1009300084E290E09093900180938F0180918D01EB
:1009400080931901F894EAE2F0E08081826080836C
:1009500080818660808326EF39E047E751E0CA0155
:100960000197F1F721503040D1F7EAE2F0E08081C1
:100970008D7F80838081897F808378940895FC01B6
:10098000808180768032F9F48181813059F48091C0
:100990008501909186019093B9018093B80180916F
:1009A00087010895823041F484E891E09093B90181
:1009B0008093B80181E008958A3029F4838180937F
:1009C000840180E0089580E00895FC0181818630F3
:1009D000C1F583818230A1F0833018F4813089F52C
:1009E00017C0833001F1823261F580918B019091C3
:1009F0008C019093B9018093B80180918D01089585
:100A000080E091E09093B9018093B80182E208956B
:100A100080912401909125019093B9018093B801B0
:100A20008091260108958281823059F48091880155
:100A3000909189019093B9018093B80180918F01C1
:100A4000089580E00895DC01FB012C913081832F13
:100A5000822B09F454C01C921082922F20FF03C0F5
:100A60008C9181608C9391FF03C08C9182608C93F8
:100A700092FF03C08C9188608C9393FF03C08C918C
:100A800080618C9394FF03C080818160808395FF97
:100A900003C080818260808396FF03C08C91806454
:100AA0008C9322231CF48C9180688C93932F30FFBD
:100AB00003C080818460808391FF03C0808188604F
:100AC000808392FF03C080818062808393FF03C094
:100AD00080818064808394FF03C0808180618083F3
:100AE00095FF03C080818068808396FF03C08C914E
:100AF00084608C9333231CF48C9180628C930895D2
:100B00000F931F93082FF894A8E2B1E0E3E5F1E01A
:100B100088E001900D928150E1F78FEF80932D01D5
:100B200000932801A0E3B1E0EBE5F1E085E001905E
:100B30000D928150E1F700933001A5E3B1E0E0E6CA
:100B4000F1E08AE001900D928150E1F78FEF809300
:100B50003A0100933501AFE3B1E0EAE6F1E084E168
:100B600001900D928150E1F78FEF80934401009343
:100B70003F0110928A01359981C034996AC086B1CB
:100B800090E08E7190708630910531F1873091053B
:100B90004CF482309105B1F08430910519F1892B24
:100BA00059F008C08A30910579F18C30910501F136
:100BB000089781F190E072C088E291E00E945011A4
:100BC00010E086C088E291E065E371E04FE351E018
:100BD0000E94F00F10E07CC088E291E00E94550A6C
:100BE00010E076C088E291E00E94210B10E05BC02B
:100BF00082E080938A01013009F08DC080E391E0AA
:100C00000E94090711E064C088E291E00E94EC09AB
:100C100010E05EC083B190E08670907082309105E4
:100C200091F08630910519F0892B39F036C088E2B1
:100C300091E00E945B0910E04BC088E291E00E94C5
:100C4000F20810E045C088E291E00E944C0B10E0F1
:100C50003FC0339906C088E291E00E94031310E080
:100C600037C0023011F090E005C088E291E00E94A8
:100C7000110E91E081E080938A0110C0339907C082
:100C800088E291E0602F0E94870710E021C088E28F
:100C900091E00E945D0C10E006C091E0992311F0F4
:100CA00010E016C010E089B1897071F44C9B05C04A
:100CB00088E291E00E9444070BC088E291E060E383
:100CC00071E00E947D0E04C088E291E00E94990BC1
:100CD0000230B1F480918A01823091F441E351E015
:100CE00029E231E0D9018D91FA0181938C918083C1
:100CF000F9018581FA018283F9018681FA018383F2
:100D0000112329F4E8E6F0E080818E7F80837894D7
:100D10001F910F91089511E0C6CF4F925F926F928D
:100D20007F928F929F92AF92BF92CF92DF92EF927B
:100D3000FF920F931F93CF93DF930E948D030E9426
:100D4000871310928A0181E00E9480050E94960319
:100D5000FF24F394EE24EA94C9EAD1E00F2EFEE2D8
:100D60006F2EF1E07F2EF02D53010894A11CB11CD1
:100D70000F2EFBE38F2EF1E09F2EF02D64010894DF
:100D8000C11CD11C4424439455240E94991388818A
:100D900084FFFBCF8F2D0E948005C301B5010E9407
:100DA0002305C401B6010E94230500918701093083
:100DB00078F4152D03C0185F093058F4809185012F
:100DC00090918601810F911D602F0E94D21412C054
:100DD000152D8091850190918601810F911D68E00C
:100DE0000E94D21408500E949913888184FFFBCF7F
:100DF000002309F7F394809183018F1508F4F42CF4
:100E000080918A01E81609F20E949603E0908A0117
:100E1000BCCFDC01E4E2F0E08081817C8083E5E20C
:100E2000F0E080818E638083E7E2F0E080818E7F56
:100E30008083E8E2F0E08081816080838CE38093AE
:100E40006B0081E0809368008091920112968C93F0
:100E500012978091910113968C931397109292019F
:100E600010929101199907C011968C911197816088
:100E700011968C931197309906C011968C91119709
:100E8000826011968C9308950F931F938C01E5E275
:100E9000F0E080818E7F8083E4E2F0E080818E7FCD
:100EA0008083EBE2F0E080818F778083EAE2F0E0FC
:100EB000808180688083C8010E94C202E6E3F3E07B
:100EC000E80FF11DE491D8011596EC931597129651
:100ED0008C911297819512968C93129714968C91FF
:100EE0001497819514968C931F910F910895E4E2C5
:100EF000F0E02081277F2083208120632083E5E2AA
:100F0000F0E02081286320830E942C020895DC01F8
:100F1000EAE2F0E080818E7E8083EBE2F0E0808187
:100F200081618083E4E2F0E0808188638083808156
:100F30008D7F8083E5E2F0E0808182608083E7E25C
:100F4000F0E08081807E8083E8E2F0E080818F6144
:100F50008083489B0BC0E4E2F0E080818460808362
:100F6000E5E2F0E08081837C808314C0E4E2F0E07D
:100F700080818B7F8083E5E2F0E080818C638083D9
:100F8000E7E2F0E080818E7F8083E8E2F0E080811C
:100F90008160808387E180937E00EAE7F0E085E06E
:100FA000808384E680937C00808180688083808158
:100FB00086FDFDCF613009F5EAE7F0E080818064CD
:100FC0008083808186FDFDCF909179008FE7891B1A
:100FD00012968C93129782E680937C00EAE7F0E009
:100FE000808180648083808186FDFDCF909179002F
:100FF0008FE7891B11968C931197489B29C081E03C
:1010000080938A01623021F581E680937C00EAE7D3
:10101000F0E0808180648083808186FDFDCF9091A7
:1010200079008FE7891B11968C93119780E6809346
:101030007C00EAE7F0E0808180648083808186FD27
:10104000FDCF909179008FE7891B12968C931297B0
:1010500010927A0010927E00489B17C04C9909C0EC
:10106000613039F416968C911697816016968C93A0
:10107000169719999AC0623009F097C016968C910C
:101080001697816016968C93089510928A01E5E276
:10109000F0E08081877F808385E08A95F1F7309941
:1010A00007C016968C911697826016968C931697A9
:1010B0001A9907C016968C911697806116968C9394
:1010C0001697199907C016968C91169780681696F0
:1010D0008C9316974C9907C017968C91179784603C
:1010E00017968C931797E5E2F0E080818860808303
:1010F00080818F7E808385E08A95F1F7309907C0E3
:1011000016968C911697846016968C9316971A995A
:1011100007C016968C911697806216968C93169738
:10112000199907C017968C911797816017968C9321
:1011300017974C9907C016968C9116978160169652
:101140008C931697E5E2F0E0808180618083808156
:101150008F7D808385E08A95F1F7309907C01696D8
:101160008C911697886016968C9316971A9907C0DB
:1011700016968C911697806416968C9316971999EB
:1011800007C017968C911797826017968C931797C4
:101190004C9906C017968C911797886017968C9378
:1011A000E5E2F0E0808180628083089590E020E0B5
:1011B000A3E2B0E0EBE2F0E034E1220F8C9180FD9D
:1011C000216080818F778083832F8A95F1F78081DA
:1011D00080688083832F8A95F1F79F5F983069F745
:1011E000822F0895CF93DF93EC01ABE2B0E08C91B6
:1011F000886F8C938C918E7F8C93EAE2F0E08081F3
:10120000896C808380818F7C8083E4E2F0E0808140
:101210008E7F8083E5E2F0E08081816080838C9125
:101220008F7B8C930E94D608282F30E0C901807FE5
:10123000907080349105E1F520FF02C080E8898339
:1012400021FF02C08FE7898322FF02C080E88A83E2
:1012500023FF02C08FE78A830E94D608282F982F89
:1012600081FF03C08E8180648E8392FF03C08E81D4
:1012700080688E8393FF03C08F8181608F8394FF8A
:1012800003C08F8182608F8395FF03C08E8184604D
:101290008E8396FF03C08E8182608E8322231CF48E
:1012A0008E8181608E83EBE2F0E0808180648083B8
:1012B000DF91CF910895DC01EAE2F0E08081867051
:1012C0008083EBE2F0E08081896F8083E4E2F0E0EC
:1012D0008081807C8083E5E2F0E080818F63808381
:1012E000E9E2F0E08081982F9170808183FD926027
:1012F00080917F01981709F44BC09130A9F091308B
:1013000028F0923069F19330C1F51CC0813029F486
:101310008FE711968C93119730C0823071F580E879
:1013200011968C93119729C0833029F48FE7119679
:101330008C93119722C0882301F580E811968C9335
:1013400011971BC0823029F48FE711968C93119767
:1013500014C0813091F480E811968C9311970DC0E0
:10136000882329F48FE711968C93119706C0833058
:1013700021F480E811968C93119790937F0183E07C
:1013800080937E0111968C911197809380010CC0FF
:1013900080917E01882341F0815080937E0180916D
:1013A000800111968C9311974E9906C016968C91D8
:1013B0001697816016968C930895EBE2F0E0808199
:1013C0008F7E808389E191E00197F1F789B1908167
:1013D0009061908381700895CF93DF93EC01E4E2F4
:1013E000F0E08081837C8083808182608083A5E2BD
:1013F000B0E08C918E638C93EAE2F0E080818E7F86
:101400008083808180618083EBE2F0E08081816174
:1014100080838C918D7F8C931D9902C080E88A8394
:101420001C9902C08FE78A831B9902C080E88983D8
:101430001A9902C08FE789830E94DD09882319F475
:101440008E8182608E830E94DD09882319F48E814B
:1014500081608E830E94DD09882319F48E81886063
:101460008E830E94DD09882319F48E8184608E8327
:101470000E94DD09882319F48E8180688E830E9482
:10148000DD09882319F48E8180648E830E94DD0932
:10149000882319F48F8181608F83E5E2F0E08081F9
:1014A00082608083DF91CF910895CF93DF93DC0139
:1014B000E4E2F0E08081837C8083808182608083AD
:1014C000E5E2F0E080818E638083EAE2F0E08081F3
:1014D00080618083EBE2F0E080818F7E808392E008
:1014E0002BE230E0E3E2F0E065E270E040E85FE745
:1014F000E90188818F7E88830000000080818C73E1
:1015000009F447C0808185FD03C012964C93129761
:10151000808184FD03C011965C931197808183FDC7
:1015200003C012965C931297808182FD03C01196CE
:101530004C931197EB0188818D7F88830000000018
:10154000808185FD07C016968C911697826016964D
:101550008C931697808184FD07C016968C91169700
:10156000816016968C931697808183FD07C017962D
:101570008C911797816017968C931797808182FDC5
:1015800036C017968C911797826017968C93179791
:101590002EC0EB0188818D7F888300000000808150
:1015A00085FD07C016968C911697846016968C93CD
:1015B0001697808184FD07C016968C9116978860D7
:1015C00016968C931697808183FD07C016968C9192
:1015D0001697806116968C931697808182FD07C0BE
:1015E00016968C911697806216968C931697E90141
:1015F000888180618883EB01888182608883915033
:1016000009F076CFDF91CF91089590E020E0E5E2F8
:10161000F0E034E6A3E2B0E080818B7F8083832F0B
:101620008A95F1F726958C9185FD206880818460EC
:101630008083832F8A95F1F79F5F983069F7822F17
:101640000895EF92FF920F931F937C0105E210E043
:10165000F80180818C7E8083808184628083E4E2D3
:10166000F0E080818F7D808380818C618083F801B0
:101670008081886080838AEF8A95F1F70E94050B4C
:10168000F8018081877F80838AEAF70187831F9131
:101690000F91FF90EF900895DC01EAE2F0E0808185
:1016A00086708083EBE2F0E08081896F8083E4E2E2
:1016B000F0E080818E7F8083E5E2F0E080818160D0
:1016C00080834E990CC016968C9116978160169661
:1016D0008C93169704C09F5F9B3F21F4089590E080
:1016E000E3E2F0E0808180FDF6CF89B1982F892F69
:1016F0008095282F217093FF226094FF246095FF2E
:10170000286090E0E3E2F0E003C09F5F9B3F81F040
:10171000808180FFFACF89B180FF206183FF206242
:1017200084FF206485FF20688FE7821B11968C93CD
:101730000895DC01EAE2F0E0808186788083808190
:1017400080688083EBE2F0E080818F778083808106
:1017500089678083E4E2F0E080818E7F8083E5E228
:10176000F0E080818160808386E48A95F1F789B119
:10177000807311F090E015C04E9907C016968C91B9
:101780001697816016968C931697189B02C091E06D
:1017900008C017968C911797826017968C931797AD
:1017A00091E0EBE2F0E080818068808386E48A95B6
:1017B000F1F7489904C080E812968C9312974B99E0
:1017C00004C08FE712968C9312974C9904C080E85E
:1017D00011968C9311974D9904C08FE711968C93B5
:1017E0001197992391F44E9907C016968C911697EC
:1017F000816016968C931697189959C016968C91FD
:101800001697826016968C9352C04E9907C0169612
:101810008C911697826016968C931697189907C02C
:1018200016968C911697846016968C931697EBE219
:10183000F0E080818F77808396E4892F8A95F1F795
:10184000808180688083892F8A95F1F780818F77E6
:1018500080839A95F1F789B1897349F58081806811
:10186000808386E48A95F1F7489907C016968C9193
:101870001697806816968C9316974B9907C0169604
:101880008C911697806416968C9316974C9907C086
:1018900016968C911697886016968C9316974D998C
:1018A00006C017968C911797816017968C93EBE280
:1018B000F0E08081806880830895DC01E4E2F0E05C
:1018C0008081817C8083E5E2F0E080818E6380838B
:1018D000E7E2F0E08081807C8083E8E2F0E08081D4
:1018E0008F638083EAE2F0E080818E7E8083EBE28A
:1018F000F0E08081816180831D9907C017968C91EB
:101900001797816017968C9317971C9907C01696A6
:101910008C911697886016968C9316971B9907C022
:1019200016968C911697826016968C9316971A9934
:1019300004C08FE711968C931197199904C08FE713
:1019400012968C931297329907C017968C9117971D
:10195000826017968C931797319907C016968C91D1
:101960001697846016968C931697309906C0169633
:101970008C911697816016968C930895DC0186E40D
:101980008A95F1F783B18C7011F090E015C0199928
:1019900007C016968C911697816016968C931697B1
:1019A000319B02C091E008C017968C911797826016
:1019B00017968C93179791E0E8E2F0E080818460BD
:1019C000808386E48A95F1F71D9904C080E8129619
:1019D0008C9312971C9904C08FE712968C931297E0
:1019E0001B9904C080E811968C9311971A9904C032
:1019F0008FE711968C931197992391F4199907C049
:101A000016968C911697816016968C93169731993D
:101A100059C016968C911697826016968C930895ED
:101A2000199907C016968C911697826016968C931A
:101A30001697319907C016968C9116978460169662
:101A40008C931697E8E2F0E080818B7F808396E4A8
:101A5000892F8A95F1F7808184608083892F8A9508
:101A6000F1F780818B7F80839A95F1F783B18C7336
:101A700049F580818460808386E48A95F1F71D9919
:101A800007C016968C911697806816968C931697B9
:101A90001C9907C016968C911697806416968C93A5
:101AA00016971B9907C016968C9116978860169604
:101AB0008C9316971A9906C017968C911797816088
:101AC00017968C93089583B1E8E2F0E090819D7FB2
:101AD000908328E7922F9A95F1F7908192609083F6
:101AE0002A95F1F786958695809581700895CF9314
:101AF000DF93EC01E4E2F0E080818B7F8083E5E21C
:101B0000F0E0808184608083E7E2F0E0808184609F
:101B10008083A8E2B0E08C9184608C9380818260A5
:101B200080838C9182608C9380EF8A95F1F78C9101
:101B30008B7F8C9388E78A95F1F70E94630D882349
:101B400019F08E8182608E830E94630D882319F0C4
:101B50008E8181608E830E94630D882319F08F81AE
:101B600081608F830E94630D882319F08F818260CA
:101B70008F830E94630D882311F080E88A830E947E
:101B8000630D882311F08FE78A830E94630D8823F9
:101B900011F080E889830E94630D882311F08FE79C
:101BA00089830E94630D882319F08E8184608E835F
:101BB0000E94630D882319F08E8188608E830E94B5
:101BC000630D882319F08E8180648E830E94630DDB
:101BD000882319F08E8180688E830E94630D88238C
:101BE00021F08E8183708E8319C08E81282F207FF3
:101BF0002E83982F80FF03C0822F84608E8391FFF5
:101C000003C08E8181608E8392FF03C08E818260CB
:101C10008E8393FF03C08E8188608E83DF91CF9186
:101C200008959C01E4E2F0E08081817C8083E5E21C
:101C3000F0E080818E638083E7E2F0E08081846061
:101C4000808380818D7F8083E8E2F0E08081826004
:101C5000808380818B7F808383B1887321F4C90165
:101C60000E94770D0895C9010E94BE0C0895282F87
:101C7000269511F437E009C037E0982F990F822F8D
:101C80008170892B31502695C1F790E002C0880FF2
:101C9000991F3A95E2F7089589B1E5E2F0E0908165
:101CA0009E7F908328E7922F9A95F1F7908191601B
:101CB00090832A95F1F7829586958770809581703B
:101CC000089520E090E0A9E2B0E0E5E2F0E038E736
:101CD00026958C9185FF206880818E7F8083832F5D
:101CE0008A95F1F7808181608083832F8A95F1F74F
:101CF0009F5F983069F7822F0895AF92BF92DF926D
:101D0000EF92FF920F931F93CF93DF93EC015B0150
:101D1000EAE2F0E080818F7D8083ABE2B0E08C91DD
:101D200080628C938081806880838C9180688C93A2
:101D3000E4E2F0E0808181608083E5E2F0E0808190
:101D40008160808380EF8A95F1F78C918F778C93F7
:101D500088E78A95F1F70E94610EF82E0E94610EC5
:101D6000D82E0E94610E482FFF2014F48FE789833C
:101D70002F2D30E0F6FE02C080E8898325FF02C0E7
:101D80008FE78A8324FF02C080E88A83D901A87084
:101D9000B07023FF03C08F8182608F83B9016470AC
:101DA000707022FF03C08F8181608F83042F10E049
:101DB000C8018F709070089709F04BC08F2D8295E5
:101DC0008F70E6E2F3E0E80FF11DE491ED838D2DD5
:101DD0008095482F4F70483008F04051842F90E094
:101DE000880F991F880F991F909581959F4F8A831F
:101DF0008D2D90E080959095807F9070959587953A
:101E0000959587959595879595958795482F8830D1
:101E100008F04051842F90E0880F991F880F991F78
:101E2000909581959F4F8983AB2B19F08F818260AC
:101E30008F83672B19F08F8181608F8321FF03C00F
:101E40008E8181608E8320FF93C08E8182608E831D
:101E50008FC0ED2CFF24C701807C9070803C9105E1
:101E6000D9F58FEFD81621F081E0809381010FC062
:101E700080918101882359F421FF03C08E81816004
:101E80008E8320FF75C08E8182608E8371C020FF9B
:101E900002C08FE78C8321FF02C080E88B83E0FEC5
:101EA00002C08FE78B83E1FE02C080E88C83E2FEF4
:101EB00003C08E8180648E83E3FE03C08E818068C0
:101EC0008E83E4FE03C08E8181608E83E5FE50C068
:101ED0008E8182608E834CC0C701807F9070009796
:101EE00009F51092810121FF03C08E8184608E83E9
:101EF00020FF03C08E8181608E83E0FE03C08E814F
:101F000082608E83E1FE03C08E8188608E83E2FE54
:101F100003C08E8180648E83E3FE2AC08E81806838
:101F20008E8326C08038910509F582E080938A016E
:101F3000842F0E94370E8F7700FD8195F5018383F2
:101F40000E94610E182F0E94370E8F7710FD819529
:101F5000F5018283E1FE03C0818181608183E0FE1F
:101F600007C0F50181818260818302C010928101E6
:101F7000DF91CF911F910F91FF90EF90DF90BF9075
:101F8000AF900895382F8FE08A95F1F790E020E028
:101F9000E5E2F0E04CE3A3E2B0E080818B7F808358
:101FA00030FF04C080818061808303C080818F7E88
:101FB0008083842F8A95F1F72695808184608083C1
:101FC0008C9185FD2068842F8A95F1F79F5F98306A
:101FD00011F03695E2CF8FE08A95F1F7822F0895C0
:101FE000DF92EF92FF920F931F93CF93DF93EC0159
:101FF0007B01E4E2F0E080818D7D808380818C61D3
:102000008083E5E2F0E080818E6380838081877F3A
:1020100080838FE08A95F1F781E00E94C20F82E40D
:102020000E94C20F082F10E0813409F411E0DD2472
:10203000033711F4DD24D394812F8D2990E020E023
:1020400030E0033511F421E030E0822B932B892B13
:1020500009F481C08FEF0E94C20F8FEF0E94C20F60
:10206000E82F982F80FD03C08F8181608F8393FDBF
:1020700003C08F8182608F83112389F094FD02C099
:1020800080E88A8396FD02C08FE78A83EE2314F0EE
:1020900080E8898395FD1AC08FE7898317C0DD200A
:1020A000A9F091FD03C08F8184608F8392FD03C0EE
:1020B0008F8188608F83E295EF70F0E0E095F09576
:1020C000EF70F070ED5BFC4FE491ED838FEF0E94B9
:1020D000C20F282F982F80FD03C08E8180618E83D0
:1020E00091FD03C08E8180628E8392FD03C08E813C
:1020F00080648E8393FD03C08E8180688E8394FDFF
:1021000003C08E8188608E8395FD03C08E818260BE
:102110008E8396FD03C08E8181608E8322231CF006
:102120008E8184608E83DD2011F40335A1F48FEF5E
:102130000E94C20F80588B838FEF0E94C20F80587D
:102140008C838FEF0E94C20F805889838FEF0E948B
:10215000C20F80588A83033209F050C083E0809315
:102160008A018FEF0E94C20F8FEF0E94C20FE82FEB
:1021700083FD07C0D70117968C9117978260179639
:102180008C93E295EF70F0E0E095F095EF70F070D1
:10219000ED5BFC4FE491D7011596EC938FEF0E9415
:1021A000C20F282F83FD04C0F701868180688683D3
:1021B00024FD07C0D70116968C911697826016965B
:1021C0008C9325FD04C0F7018681816086838FEFA3
:1021D0000E94C20F8058D70111968C938FEF0E94F6
:1021E000C20FF70183838FEF0E94C20FD7011996A8
:1021F0008C938FEF0E94C20FF7018087E5E2F0E039
:102200008081886080838FE08A95F1F7DF91CF919C
:102210001F910F91FF90EF90DF900895EF92FF9242
:102220000F931F93CF93DF937C01E5E2F0E0808171
:10223000877F8083062F10E01016110664F4C0E03B
:10224000D0E0F701EC0FFD1F80810E94C20F2196A4
:10225000C017D107B4F3E5E2F0E0808188608083A5
:102260008FE08A95F1F7DF91CF911F910F91FF9049
:10227000EF90089590E0E3E2F0E003C09F5F983CA8
:1022800019F0808181FDFACF089590E0E3E2F0E05B
:1022900003C09F5F983C19F0808181FFFACF0895B9
:1022A0000F931F93CF93DF93EC01E4E2F0E0808182
:1022B0008D7C808380818C608083E5E2F0E080818A
:1022C0008E638083EAE2F0E080818E7E8083EBE2A1
:1022D000F0E08081816180838AE08A95F1F7489BF4
:1022E00057C04C9903C08E8180618E83E5E2F0E097
:1022F0008081877F80838AE08A95F1F71C9902C0EC
:1023000080E88A831D9902C08FE78A83489902C0BA
:1023100080E889834C9902C08FE78983E5E2F0E089
:102320008081837F886080838AE08A95F1F71C9999
:1023300003C08E8182608E831D9903C08E8184606C
:102340008E83489903C08E8181608E834C9903C02F
:102350008F8182608F83E5E2F0E08081837F8083DC
:102360008AE08A95F1F71C9903C08E8180628E8382
:102370001D9903C08E8180618E83489903C08E8130
:1023800088608E834C993AC18E8180688E8336C175
:102390001C9B34C1E5E2F0E08081877F80838081EF
:1023A0008B7F80830E943A111C990EC105E210E0D8
:1023B000F8018081846080830E944511F80180814A
:1023C0008B7F80830E943A111C9902C080E88A8327
:1023D0001D9902C08FE78A83489902C080E88983EB
:1023E0004C9B02C010E010C08FE7898310E00CC046
:1023F0009260489B94604C9B9860E6E2F3E0E90FA2
:10240000F11DE491ED8311E0E5E2F0E0808184606C
:1024100080830E9445111C9903C08E8182608E8347
:102420001D9903C08E8184608E83489903C08E817C
:1024300081608E834C9903C08F8188608F83E5E231
:10244000F0E080818B7F80830E943A111C9903C049
:102450008E8180688E831D9903C08E8180648E83F7
:10246000489903C08E8188608E834C9903C08E8109
:1024700080628E83E5E2F0E08081846080830E9448
:1024800045114C9903C08E8180618E83E5E2F0E0B6
:1024900080818B7F80830E943A111C9902C000E1E9
:1024A00001C000E01D9B0062489B00644C9B0068DB
:1024B000E5E2F0E08081846080830E9445111C9BEE
:1024C00001601D9B0260489B04604C9B08601130BA
:1024D00019F48FE7801B8983E5E2F0E080818B7F30
:1024E00080830E943A111C9902C000E101C000E003
:1024F0001D9B0062489B00644C9B0068E5E2F0E095
:102500008081846080830E9445111C9B01601D9B1B
:102510000260489B04604C9B0860113019F48FE7FF
:10252000801B8A83E5E2F0E080818B7F80830E94BC
:102530003A111C9902C000E101C000E01D9B00623D
:10254000489B00644C9B0068E5E2F0E08081846079
:1025500080830E9445111C9B01601D9B0260489B6B
:1025600004604C9B0860113019F4802F80588C83D4
:10257000E5E2F0E080818B7F80830E943A111C9914
:1025800002C000E101C000E01D9B0062489B0064A6
:102590004C9B0068E5E2F0E08081846080830E94CB
:1025A00045111C9B01601D9B0260489B04604C9B75
:1025B0000860113019F4802F80588B83E5E2F0E039
:1025C00080818C6080831AC005E210E0F801808170
:1025D000846080830E944511F80180818B7F808315
:1025E0000E943A11E3E2F0E0808182958F7080953D
:1025F000982F9170808185FFFBCEFBCEDF91CF912C
:102600001F910F910895DC01E4E2F0E08081817C6C
:102610008083E5E2F0E080818E638083E7E2F0E092
:102620008081827C8083808182608083E8E2F0E028
:1026300080818F63808380818D7F808380818260B1
:10264000808390E82FE0E3E2F0E0822F8A95F1F7B3
:10265000808185FF03C011969C931197808184FF30
:1026600003C012969C931297808183FF03C0139638
:102670009C931397808182FF03C014969C931497B8
:102680009F5F9F3711F711968C9111978E3719F430
:1026900011961C92119712968C9112978E3719F4FD
:1026A00012961C92129713968C9113978E3719F4E9
:1026B00013961C92139714968C9114978E3719F4D5
:1026C00014961C921497309907C016968C91169701
:1026D000816016968C931697199907C016968C915F
:1026E0001697826016968C9316974C9907C016968B
:1026F0008C911697846016968C931697489906C00D
:1027000016968C911697886016968C930895E9E634
:10271000F0E0808182608083EDE3F0E08081816081
:102720008083EAEAF1E08BE4808331978AE5808355
:1027300008951F93CF93DF938091BA01982F935000
:102740000AF4B1C02091B7018091B6018D3209F031
:10275000A8C0983009F0A5C08CE090E0821B9109D8
:10276000FC01E254FE4FEF0183EC80939E018AE569
:1027700080932201109282018081807629F0CF011E
:102780000E94BF04282F84C092811092A7018181EA
:10279000882331F4E8EAF1E0108222E0319774C036
:1027A000853031F49093BB0120E0E7EAF1E06CC0A2
:1027B000863009F049C08381813031F4CF010E9415
:1027C000E504282F80E43DC0823031F4CF010E941F
:1027D000E504282F80E035C08330F1F4992349F4D3
:1027E00080E593E09093B9018093B80180E424E000
:1027F00028C0913049F484E593E09093B901809327
:10280000B80180E42AE01DC09230C9F4CF010E94D3
:10281000E504282F80E415C0813249F482E191E07B
:102820009093B9018093B80180E429E00AC0823214
:1028300031F4CF010E94E504282F80E402C080E437
:1028400020E08093820124C0883021F421E0EDEB68
:10285000F1E01AC0893031F49093BD0120E0E7EA3D
:10286000F1E012C08A3021F421E0E7EAF1E00CC087
:102870008B3021F020E0E7EAF1E006C08BE48093A2
:10288000AA0120E0E7EAF1E0F093B901E093B80192
:102890008F81882321F48E81821708F4282F2093BA
:1028A00023011092BA018091220184FF57C0109138
:1028B00023011F3F09F452C0193008F05CC0109288
:1028C0002301EEE9F1E0808198E8892780831123D4
:1028D00009F45DC02091B8013091B9018091820165
:1028E00086FF14C0AFE9B1E080E090E0F901E80FA5
:1028F000F91FE491ED9301961817C1F7812F8150CC
:1029000090E00196F901E80FF91F0FC0D901912F4E
:10291000EFE9F1E08D9181939150E1F7812F8150A2
:1029200090E00196F901E80FF91FF093B901E093E7
:10293000B801193068F48FE991E0612F0E941115F8
:10294000612F6C5F6C3040F48FEF8093230104C0E3
:102950008FEF809323016EE16093220194E1E9E21D
:10296000F0E080818670D1F49150D9F71092BB01CC
:102970001092B50113C0812F885080932301EEE996
:10298000F1E0808198E88927808318E0A3CF8FE960
:1029900091E060E00E94111564E0D6CFDF91CF9105
:1029A0001F910895FF920F931F93DC01F62E8091E3
:1029B000A90184FF07C0EAEAF1E0808198E889274D
:1029C000808303C08AE58093A9019F2DEBEAF1E0A3
:1029D0008D9181939150E1F70BEA11E0C8016F2DC1
:1029E0000E9411158F2D8C5F02501040F8018083DA
:1029F0001F910F91FF900895A82FB92F80E090E0CC
:102A000041E050EA609530E009C02D91822797950A
:102A1000879510F084279527305EC8F36F5FA8F381
:102A20000895EADF8D939D930895CF93CFB7CF9309
:102A3000C395499BE9F7499B0BC0499B09C0499B3A
:102A400007C0499B05C0499B03C0499B01C0C2C048
:102A5000C091B701DF93DD27C254DE4F2F932FEFD4
:102A6000499B03C02F91DF91E6CF0F931F934F93A4
:102A70006F9309B101FB20F93F933BE05F931EC0C8
:102A80004E7F012F19B11670E1F0216000001DC0CA
:102A9000102F4D7F2260000009B1067091F01DC01B
:102AA0004B7F2460012F000019B1167051F01EC039
:102AB00019B1167031F0477F28601BC019B116702C
:102AC00009F462C04FEF297FD9F2012701FB21F9F8
:102AD00009B10670B1F3237FD9F2102711FB22F957
:102AE00000C019B1167069F3277ED1F2012701FBEE
:102AF00023F92F7CE9F209B1067019F3102711FBB5
:102B000024F92F7929F100C019B11670E9F10127D4
:102B100001FB25F92F7311F100C009B10670A1F175
:102B2000102711FB26F92230F8F000C019B11670F9
:102B300059F1012701FB27F92430E0F0422700007A
:102B400009B14993102711FB20F93150C8F0B6CFD5
:102B50004F7E09B10670C1F02061D3CF206219B158
:102B6000167091F04F7DD6CF4F7B09B1067061F0A2
:102B70002064D9CF4F7719B1167031F02068DCCFBF
:102B800011E01CBB002719C03B503195C31BD0403E
:102B900011E01CBB0881033C09F10B34F9F02091D2
:102BA000B5011981110F1213EDCF4A81441F093667
:102BB00051F10D3211F0013E29F70093BC015F91F4
:102BC0003F916F914F911F910F912F91DF91CCB356
:102BD000C0FD2ECFCF91CFBFCF9118952091BC01D2
:102BE000222369F31091BA01112389F534308AF157
:102BF0003093BA012093B6011091B7013BE0311B2D
:102C00003093B70126C00091BA01013004F50AE5FE
:102C10004F7049F43091220134FD1CC00093220111
:102C2000CEE9D1E01BC03091A90134FD13C000935F
:102C3000A901CAEAD1E012C005271127000019C076
:102C4000052711271FC005271127000024C04AE5CA
:102C500002C032ED432FC4E1D0E032E01AB1166079
:102C6000599A0BB11AB956E020E866E020FF052713
:102C700027950BB917951C3FF8F66A95B9F720FF11
:102C80000527279500000BB917951C3FC8F620FFB4
:102C900005272795179566E01C3F0BB9A0F62991EB
:102CA0003A9521F7097F1091BB01110F0BB9C6515D
:102CB000D04011F01093B50111E01CBB02601AB1B5
:102CC000197F402F497F53E05A95F1F700C00BB9A7
:0A2CD0001AB94BB974CFF894FFCF86
:102CDA000902220001010080FA0904000001030030
:102CEA0000000921010100012250000705810308A3
:042CFA0000085AFF75
:00000001FF
