:100000000C947F010C94FF130C949C010C949E01A2
:100010000C949C010C949C010C949C010C949C01EC
:100020000C949C010C949C010C949C010C949C01DC
:100030000C949C010C949C010C949C010C949C01CC
:100040000C949C010C949C010C949C010C949C01BC
:100050000C949C010C949C010C949C010C949C01AC
:100060000C949C010C949C011201100100000008EA
:10007000828201320104010200011201100100001C
:100080000008828201330104010200010501090414
:10009000A10185010901A100093009311580257FE1
:1000A000750895028102093309341580257F75088A
:1000B000950281020939150025077505950181030F
:1000C0007503950181030509190129101500250102
:1000D00075019510550065008102C0C00501090435
:1000E000A10185010901A100093009311580257F91
:1000F000750895028102093309341580257F75083A
:1001000095028102093915002507750595018103BE
:1001100075039501810305091901291015002501B1
:1001200075019510550065008102C0C005010904E4
:10013000A10185020901A100093009311580257F3F
:10014000750895028102093309341580257F7508E9
:10015000950281020939150025077505950181036E
:100160007503950181030509190129101500250161
:1001700075019510550065008102C0C00501090296
:10018000A10185010901A100050919012903150033
:10019000250195047501810295017504810305010E
:1001A0000930093109381580257F750895038106C6
:1001B000C0C00904A10185020901A100093009316B
:1001C0001580257F750895028102C005091901294E
:1001D000101500250175019510550065008102C0BC
:1001E00005010904A10185010901A10009300931B6
:1001F0001580257F750895028102093915002507AC
:1002000075059501810375039501810305091901A0
:100210002910150025017501951055006500810212
:100220000501093609360936150026FF00750895BF
:10023000038102C0C005010904A10185010901A1D2
:1002400000093009311580257F7508950281020962
:100250003309341580257F75089502810209391507
:100260000025077505950181037503950181030537
:100270000919012910150025017501951055006512
:1002800000810205010936093609360936093609A1
:100290003609360936093609360936093615002673
:1002A000FF00750895018102C0C0FF0004FF06072A
:1002B00005FF020103FFFFFFFFFFFF0206FF04032C
:1002C00005FF000107FFFFFF00020104FF03FF0617
:1002D00007FFFF05040309040A034D006F004A00ED
:1002E0006F001C0352006500740072006F00200054
:1002F0004100640061007000740065007200112408
:100300001FBECFEFD4E0DEBFCDBF11E0A0E0B1E073
:10031000EEEAFAE202C005900D92A432B107D9F7D5
:1003200011E0A4E2B1E001C01D92AE3CB107E1F7DB
:100330000E94B2050C9455150C94000078946F93AC
:100340006FB72F933F934F935F9353B15C73452FD8
:10035000447130918D01347120918C01403049F00D
:10036000403161F0443179F03030A1F0343181F026
:1003700012C0303179F0343059F00DC0343151F0C1
:10038000303031F008C0343029F0303109F003C08A
:10039000239501C02A9520938C01452F48723091F6
:1003A0008D01387220918B01403049F0403261F06C
:1003B000483279F03030A1F0383281F012C030325A
:1003C00079F0383059F00DC0383251F0303031F01A
:1003D00008C0383029F0303209F003C0239501C03D
:1003E0002A9520938B0150938D015F914F913F91FE
:1003F0002F916FBF6F9118950F931F93FF93EF93FA
:10040000BF93AF93F92FE82F09E000938F0100E22B
:100410000093900100E00093910101E000939201AC
:1004200001E00093930100E0009394010093950193
:100430000093960109E20093970107D0BF91AF9115
:10044000EF91FF911F910F910895A1E0BFE809E09E
:100450002D980000000000002C9800000000000013
:100460002C9A000000002C980000000000002C9A3C
:100470000000000000002C980000000000002C9AF2
:100480000000000000002C980000000000002C9AE2
:1004900000000000000000002D9A1D9117FD2C9A0D
:1004A00017FF2C982D98000000002C9A16FD2D9A0D
:1004B00016FF2D982C9A000000002D9A15FD2C9AFD
:1004C00015FF2C982D9A000000002C9A14FD2D9AEF
:1004D00014FF2D982C9A000000002D9A15FD2C9ADF
:1004E00015FF2C982D9A000000002C9A14FD2D9ACF
:1004F00014FF2D982C9A000000002D9A15FD2C9ABF
:1005000015FF2C982D9A000000002C9A14FD2D9AAE
:1005100014FF2D982C9A000000002D9A0A952D9A10
:100520002C9A0895F92FE82F21E030E0E20FF31F15
:100530002227332744275527662777278827992797
:1005400090E095D0B2D07ED0292F7CD0392F7AD0B0
:10055000492F253021F0293081F180E00895BFEF47
:10056000BA95F1F7B8ECBA95F1F791E080D09DD04B
:1005700069D0292F67D0392F65D0492F63D0592FE3
:100580004083518340E050E027FD416026FD4260FA
:1005900025FD516024FD52602F7035FD406434FD0F
:1005A000406833FD446032FD486031FD406130FDFC
:1005B000406245835683822F0895B4E6BA95F1F7D9
:1005C00090E455D093E053D092E051D06ED03AD021
:1005D000292F38D0392F36D0492F34D0592F32D047
:1005E000692F30D0792F2ED0892F2CD040585058D9
:1005F00040835183605870586283738340E050E0B9
:1006000020FD416021FD426022FD486023FD4460E1
:1006100024FD526034FD516035FD406836FD406474
:10062000803408F04064903408F040684583568375
:100630003F70232F3E7F31FD31603D7F20FD3260D2
:10064000832F089590E0BFEFA8E0BA9579F018994C
:10065000FCCFB9E0BA95F1F7990F18999160BFEF07
:10066000BA9521F0189BFCCFAA9579F70895A8E0D8
:1006700097FD0DC0209ABDE0BA95F1F700002098D3
:10068000B3E0BA95F1F7990FAA9591F70895209ADA
:10069000B3E0BA95F1F7000000002098BDE0BA95EC
:1006A000F1F7990FAA9521F70895209AB3E0BA952A
:1006B000F1F700000000209808951AB889EF8BB96F
:1006C00014B88FE385B917B888B908958091860169
:1006D000823009F459C0833030F4882359F08130D6
:1006E00009F0C0C02CC0833009F473C0843009F015
:1006F000B9C094C088E690E09093250180932401CE
:1007000082E190E090932701809326018CE890E0AD
:10071000909388018093870180E590E090938A010F
:100720008093890181E08093810188E291E0909338
:1007300084018093830188E08093850193C088E6DB
:1007400090E0909325018093240182E190E09093C2
:100750002701809326018CED90E09093880180938F
:10076000870180EA90E090938A018093890182E07A
:100770008093810188E291E09093840180938301CA
:1007800088E0809385016EC08AE790E09093250110
:100790008093240182E190E09093270180932601C9
:1007A0008CE791E0909388018093870184E690E044
:1007B00090938A018093890182E08093810180E394
:1007C00091E0909384018093830185E0809385017B
:1007D00049C088E690E0909325018093240182E14E
:1007E00090E0909327018093260180EE91E0909312
:1007F00088018093870185E590E090938A0180933A
:10080000890181E08093810185E391E090938401E7
:100810008093830189E08093850124C088E690E07D
:10082000909325018093240182E190E09093270129
:100830008093260185E392E090938801809387015D
:1008400085E790E090938A018093890181E080930D
:1008500081018EE391E0909384018093830184E190
:10086000809385018091890180931901F894EAE2CF
:10087000F0E080818260808380818660808326EFC3
:1008800039E047E751E0CA010197F1F721503040C4
:10089000D1F7EAE2F0E080818D7F80838081897FDB
:1008A000808378940895FC01808180768032F9F409
:1008B0008181813059F480918301909184019093DA
:1008C000B3018093B201809185010895823041F493
:1008D00082E891E09093B3018093B20181E00895A2
:1008E0008A3029F483818093820180E0089580E03A
:1008F0000895FC018181863031F58381823081F059
:10090000823219F08130F9F413C0809187019091FF
:1009100088019093B3018093B20180918901089579
:1009200080E091E09093B3018093B20182E2089558
:1009300080912401909125019093B3018093B2019D
:1009400080912601089580E008950F931F93082F4A
:10095000F894A8E2B1E0E2E5F1E088E001900D92C0
:100960008150E1F78FEF80932D0100932801A0E3E0
:10097000B1E0EAE5F1E085E001900D928150E1F708
:1009800000933001A5E3B1E0EFE5F1E089E00190EB
:100990000D928150E1F78FEF80933801009335017C
:1009A000AEE3B1E0E8E6F1E084E101900D92815020
:1009B000E1F78FEF8093430100933E01109286018F
:1009C000359981C034996AC086B190E08E7190707B
:1009D0008630910531F1873091054CF482309105D4
:1009E000B1F08430910519F1892B59F008C08A3093
:1009F000910579F18C30910501F1089781F190E032
:100A000072C088E291E00E94371010E086C088E250
:100A100091E065E371E04EE351E00E94D70E10E0F3
:100A20007CC088E291E00E94560910E076C088E21E
:100A300091E00E94220A10E05BC082E08093860170
:100A4000013009F08DC080E391E00E940A0611E0B8
:100A500064C088E291E00E94ED0810E05EC083B1BE
:100A600090E0867090708230910591F0863091050B
:100A700019F0892B39F036C088E291E00E945C08B9
:100A800010E04BC088E291E00E94F30710E045C0FF
:100A900088E291E00E944D0A10E03FC0339906C001
:100AA00088E291E00E94EA1110E037C0023011F0B4
:100AB00090E005C088E291E00E94F80C91E081E0AE
:100AC0008093860110C0339907C088E291E0602FBF
:100AD0000E94880610E021C088E291E00E945E0B2F
:100AE00010E006C091E0992311F010E016C010E06C
:100AF00089B1897071F44C9B05C088E291E00E9435
:100B000045060BC088E291E060E371E00E94640D4D
:100B100004C088E291E00E949A0A0230B1F4809108
:100B20008601823091F441E351E029E231E0D901BC
:100B30008D91FA0181938C918083F9018581FA016D
:100B40008283F9018681FA018383112329F4E8E67F
:100B5000F0E080818E7F808378941F910F910895BB
:100B600011E0C6CFCF92DF92EF92FF920F931F93C7
:100B7000CF93DF930E945D030E946E121092860154
:100B800081E00E94A5040E946603FF24F394EE24F2
:100B9000EA94C3EAD1E0CC24C394DD240E948012FD
:100BA000888184FFFBCF8F2D0E94A50400918501D1
:100BB000093078F41D2D03C0185F093058F4809176
:100BC000830190918401810F911D602F0E94BC13BD
:100BD00012C01D2D8091830190918401810F911D80
:100BE00068E00E94BC1308500E948012888184FF34
:100BF000FBCF002309F7F394809181018F1508F44E
:100C0000FC2C80918601E81649F20E946603E09070
:100C10008601C4CFDC01E4E2F0E08081817C808346
:100C2000E5E2F0E080818E638083E7E2F0E080819E
:100C30008E7F8083E8E2F0E08081816080838CE3B6
:100C400080936B0081E08093680080918C01129604
:100C50008C93129780918B0113968C93139710921B
:100C60008C0110928B01199907C011968C911197E4
:100C7000816011968C931197309906C011968C91D2
:100C80001197826011968C9308950F931F938C0196
:100C9000E5E2F0E080818E7F8083E4E2F0E0808115
:100CA0008E7F8083EBE2F0E080818F778083EAE2C1
:100CB000F0E0808180688083C8010E949202EAEBA4
:100CC000F2E0E80FF11DE491D8011596EC93159729
:100CD00012968C911297819512968C931297149676
:100CE0008C911497819514968C931F910F91089570
:100CF000E4E2F0E02081277F2083208120632083AD
:100D0000E5E2F0E02081286320830E94FC01089541
:100D1000DC01EAE2F0E080818E7E8083EBE2F0E0AD
:100D2000808181618083E4E2F0E080818863808358
:100D300080818D7F8083E5E2F0E080818260808326
:100D4000E7E2F0E08081807E8083E8E2F0E080816D
:100D50008F618083489B0BC0E4E2F0E08081846077
:100D60008083E5E2F0E08081837C808314C0E4E24C
:100D7000F0E080818B7F8083E5E2F0E080818C630E
:100D80008083E7E2F0E080818E7F8083E8E2F0E01C
:100D900080818160808387E180937E00EAE7F0E0D4
:100DA00085E0808384E680937C00808180688083F6
:100DB000808186FDFDCF613009F5EAE7F0E08081B2
:100DC00080648083808186FDFDCF909179008FE7DC
:100DD000891B12968C93129782E680937C00EAE737
:100DE000F0E0808180648083808186FDFDCF9091DA
:100DF00079008FE7891B11968C931197489B29C026
:100E000081E080938601623021F581E680937C0049
:100E1000EAE7F0E0808180648083808186FDFDCFF9
:100E2000909179008FE7891B11968C93119780E63A
:100E300080937C00EAE7F0E0808180648083808199
:100E400086FDFDCF909179008FE7891B12968C93D8
:100E5000129710927A0010927E00489B17C04C990E
:100E600009C0613039F416968C91169781601696F8
:100E70008C93169719999AC0623009F097C016960C
:100E80008C911697816016968C9308951092860126
:100E9000E5E2F0E08081877F808385E08A95F1F745
:100EA000309907C016968C911697826016968C938F
:100EB00016971A9907C016968C9116978061169608
:100EC0008C931697199907C016968C91169780687F
:100ED00016968C9316974C9907C017968C91179776
:100EE000846017968C931797E5E2F0E08081886024
:100EF000808380818F7E808385E08A95F1F73099A9
:100F000007C016968C911697846016968C93169748
:100F10001A9907C016968C911697806216968C9334
:100F20001697199907C017968C9117978160179695
:100F30008C9317974C9907C016968C9116978160E1
:100F400016968C931697E5E2F0E0808180618083AD
:100F500080818F7D808385E08A95F1F7309907C085
:100F600016968C911697886016968C9316971A99F8
:100F700007C016968C911697806416968C931697D8
:100F8000199907C017968C911797826017968C93C2
:100F900017974C9906C017968C91179788601796EB
:100FA0008C93E5E2F0E0808180628083089590E098
:100FB00020E0A3E2B0E0EBE2F0E034E1220F8C911C
:100FC00080FD216080818F778083832F8A95F1F760
:100FD000808180688083832F8A95F1F79F5F9830A6
:100FE00069F7822F0895CF93DF93EC01ABE2B0E075
:100FF0008C91886F8C938C918E7F8C93EAE2F0E0D9
:101000008081896C808380818F7C8083E4E2F0E042
:1010100080818E7F8083E5E2F0E080818160808343
:101020008C918F7B8C930E94D707282F30E0C901C9
:10103000807F907080349105E1F520FF02C080E848
:10104000898321FF02C08FE7898322FF02C080E8E5
:101050008A8323FF02C08FE78A830E94D707282F45
:10106000982F81FF03C08E8180648E8392FF03C01E
:101070008E8180688E8393FF03C08F8182608F830F
:1010800094FF03C08F8181608F8395FF03C08E81A1
:1010900084608E8396FF03C08E8182608E832223BC
:1010A0001CF48E8181608E83EBE2F0E080818064AD
:1010B0008083DF91CF910895DC01EAE2F0E0808146
:1010C00086708083EBE2F0E08081896F8083E4E2C8
:1010D000F0E08081807C8083E5E2F0E080818F63B6
:1010E0008083E9E2F0E08081982F9170808183FD18
:1010F000926080917D01981709F44BC09130A9F05E
:10110000913028F0923069F19330C1F51CC08130E4
:1011100029F48FE711968C93119730C0823071F5C6
:1011200080E811968C93119729C0833029F48FE7BA
:1011300011968C93119722C0882301F580E81196AF
:101140008C9311971BC0823029F48FE711968C93F2
:10115000119714C0813091F480E811968C93119707
:101160000DC0882329F48FE711968C93119706C040
:10117000833021F480E811968C93119790937D0130
:1011800083E080937C0111968C91119780937E016E
:101190000CC080917C01882341F0815080937C01B8
:1011A00080917E0111968C9311974E9906C01696E8
:1011B0008C911697816016968C930895EBE2F0E07F
:1011C00080818F7E808389E191E00197F1F789B179
:1011D00090819061908381700895CF93DF93EC01AB
:1011E000E4E2F0E08081837C808380818260808380
:1011F000A5E2B0E08C918E638C93EAE2F0E080810E
:101200008E7F8083808180618083EBE2F0E080814B
:10121000816180838C918D7F8C931D9902C080E8C1
:101220008A831C9902C08FE78A831B9902C080E8D9
:1012300089831A9902C08FE789830E94DE08882378
:1012400019F48E8188608E830E94DE08882319F449
:101250008E8181608E830E94DE08882319F48E813E
:1012600084608E830E94DE08882319F48E81826058
:101270008E830E94DE08882319F48E8180688E8315
:101280000E94DE08882319F48E8180648E830E9478
:10129000DE08882319F48F8181608F83E5E2F0E016
:1012A000808182608083DF91CF910895CF93DF9317
:1012B000DC01E4E2F0E08081837C808380818260D5
:1012C0008083E5E2F0E080818E638083EAE2F0E0F3
:1012D000808180618083EBE2F0E080818F7E80837B
:1012E00092E02BE230E0E3E2F0E065E270E040E81B
:1012F0005FE7E90188818F7E88830000000080819C
:101300008C7309F447C0808185FD03C012964C930D
:101310001297808184FD03C011965C9311978081A0
:1013200083FD03C012965C931297808182FD03C0F7
:1013300011964C931197EB0188818D7F8883000073
:101340000000808185FD07C016968C9116978160FC
:1013500016968C931697808184FD07C016968C9103
:101360001697826016968C931697808183FD07C02E
:1013700017968C911797816017968C931797808199
:1013800082FD36C017968C911797826017968C93C2
:1013900017972EC0EB0188818D7F888300000000A5
:1013A000808185FD07C016968C91169784601696ED
:1013B0008C931697808184FD07C016968C911697A2
:1013C000886016968C931697808183FD07C01696C9
:1013D0008C911697806116968C931697808182FD6A
:1013E00007C016968C911697806216968C93169766
:1013F000E901888180618883EB018881826088832C
:10140000915009F076CFDF91CF91089590E020E0E0
:10141000E5E2F0E034E6A3E2B0E080818B7F8083F8
:10142000832F8A95F1F726958C9185FD2068808120
:1014300084608083832F8A95F1F79F5F983069F7E6
:10144000822F0895EF92FF920F931F937C0105E284
:1014500010E0F80180818C7E8083808184628083AB
:10146000E4E2F0E080818F7D808380818C618083E5
:10147000F8018081886080838AEF8A95F1F70E9465
:10148000060AF8018081877F80838AEAF7018783D3
:101490001F910F91FF90EF900895DC01EAE2F0E0D8
:1014A000808186708083EBE2F0E08081896F8083A9
:1014B000E4E2F0E080818E7F8083E5E2F0E08081ED
:1014C000816080834E990CC016968C91169781602E
:1014D00016968C93169704C09F5F9B3F21F4089546
:1014E00090E0E3E2F0E0808180FDF6CF89B1982FB3
:1014F000892F8095282F217093FF226094FF24600C
:1015000095FF286090E0E3E2F0E003C09F5F9B3F1F
:1015100081F0808180FFFACF89B180FF206183FF55
:10152000206284FF206485FF20688FE7821B11966C
:101530008C930895DC01EAE2F0E080818678808374
:10154000808180688083EBE2F0E080818F77808308
:10155000808189678083E4E2F0E080818E7F8083F0
:10156000E5E2F0E080818160808386E48A95F1F78E
:1015700089B1807311F090E015C04E9907C016969E
:101580008C911697816016968C931697189B02C0C3
:1015900091E008C017968C911797826017968C93EC
:1015A000179791E0EBE2F0E080818068808386E429
:1015B0008A95F1F7489904C080E812968C931297A7
:1015C0004B9904C08FE712968C9312974C9904C0E4
:1015D00080E811968C9311974D9904C08FE711966E
:1015E0008C931197992391F44E9907C016968C917C
:1015F0001697816016968C931697189959C016966F
:101600008C911697826016968C9352C04E9907C0A3
:1016100016968C911697826016968C931697189949
:1016200007C016968C911697846016968C93169721
:10163000EBE2F0E080818F77808396E4892F8A95B2
:10164000F1F7808180688083892F8A95F1F7808106
:101650008F7780839A95F1F789B1897349F58081F5
:101660008068808386E48A95F1F7489907C01696CA
:101670008C911697806216968C9316974B9907C09B
:1016800016968C911697806116968C9316974C99A6
:1016900007C016968C911697886016968C931697AD
:1016A0004D9906C017968C911797816017968C9369
:1016B000EBE2F0E08081806880830895DC01E4E261
:1016C000F0E08081817C8083E5E2F0E080818E63C0
:1016D0008083E7E2F0E08081807C8083E8E2F0E0D4
:1016E00080818F638083EAE2F0E080818E7E808358
:1016F000EBE2F0E08081816180831D9907C017963D
:101700008C911797816017968C9317971C9907C037
:1017100016968C911697886016968C9316971B993F
:1017200007C016968C911697826016968C93169722
:101730001A9904C08FE711968C931197199904C0D8
:101740008FE712968C931297329907C017968C9157
:101750001797826017968C931797319907C0169642
:101760008C911697846016968C931697309906C0C4
:1017700016968C911697816016968C930895DC01CD
:1017800086E48A95F1F783B18C7011F090E015C072
:10179000199907C016968C911697816016968C93AE
:1017A0001697319B02C091E008C017968C9117974D
:1017B000826017968C93179791E0E8E2F0E08081C1
:1017C0008460808386E48A95F1F71D9904C080E8DF
:1017D00012968C9312971C9904C08FE712968C93E3
:1017E00012971B9904C080E811968C9311971A994F
:1017F00004C08FE711968C931197992391F419994E
:1018000007C016968C911697816016968C93169742
:10181000319959C016968C911697826016968C93C2
:101820000895199907C016968C911697826016969E
:101830008C931697319907C016968C9116978460F1
:1018400016968C931697E8E2F0E080818B7F808378
:1018500096E4892F8A95F1F7808184608083892FAF
:101860008A95F1F780818B7F80839A95F1F783B118
:101870008C7349F580818460808386E48A95F1F7D2
:101880001D9907C016968C911697806216968C93B8
:1018900016971C9907C016968C911697806116961C
:1018A0008C9316971B9907C016968C911697886093
:1018B00016968C9316971A9906C017968C911797BF
:1018C000816017968C93089583B1E8E2F0E09081EF
:1018D0009D7F908328E7922F9A95F1F790819260EF
:1018E00090832A95F1F78695869580958170089565
:1018F000CF93DF93EC01E4E2F0E080818B7F808383
:10190000E5E2F0E0808184608083E7E2F0E08081BE
:1019100084608083A8E2B0E08C9184608C938081A5
:10192000826080838C9182608C9380EF8A95F1F73E
:101930008C918B7F8C9388E78A95F1F70E94640CD9
:10194000882319F08E8181608E830E94640C882325
:1019500019F08E8182608E830E94640C882319F0B6
:101960008F8181608F830E94640C882319F08F819E
:1019700082608F830E94640C882311F080E88A8340
:101980000E94640C882311F08FE78A830E94640C04
:10199000882311F080E889830E94640C882311F069
:1019A0008FE789830E94640C882319F08E818860F8
:1019B0008E830E94640C882319F08E8184608E834C
:1019C0000E94640C882319F08E8180648E830E94AB
:1019D000640C882319F08E8180688E830E94640CC9
:1019E000882319F08E8183708E83DF91CF910895C3
:1019F0009C01E4E2F0E08081817C8083E5E2F0E01C
:101A000080818E638083E7E2F0E080818460808360
:101A100080818D7F8083E8E2F0E080818260808336
:101A200080818B7F808383B1887321F4C9010E94F8
:101A3000780C0895C9010E94BF0B0895282F2695A0
:101A400011F437E009C037E0982F990F822F817089
:101A5000892B31502695C1F790E002C0880F991F5D
:101A60003A95E2F7089589B1E5E2F0E090819E7F32
:101A7000908328E7922F9A95F1F790819160908357
:101A80002A95F1F7829586958770809581700895E3
:101A900020E090E0A9E2B0E0E5E2F0E038E726954A
:101AA0008C9185FF206880818E7F8083832F8A952B
:101AB000F1F7808181608083832F8A95F1F79F5FA2
:101AC000983069F7822F0895AF92BF92DF92EF921C
:101AD000FF920F931F93CF93DF93EC015B01EAE238
:101AE000F0E080818F7D8083ABE2B0E08C918062FA
:101AF0008C938081806880838C9180688C93E4E2F1
:101B0000F0E0808181608083E5E2F0E080818160A7
:101B1000808380EF8A95F1F78C918F778C9388E79B
:101B20008A95F1F70E94480DF82E0E94480DD82E94
:101B30000E94480D482FFF2014F48FE789832F2D32
:101B400030E0F6FE02C080E8898325FF02C08FE7FF
:101B50008A8324FF02C080E88A83D901A870B0700C
:101B600023FF03C08F8182608F83B901647070701E
:101B700022FF03C08F8181608F83042F10E0C80192
:101B80008F709070089709F04BC08F2D82958F70E1
:101B9000EAEAF2E0E80FF11DE491ED838D2D8095E6
:101BA000482F4F70483008F04051842F90E0880F44
:101BB000991F880F991F909581959F4F8A838D2D2E
:101BC00090E080959095807F9070959587959595FC
:101BD00087959595879595958795482F883008F036
:101BE0004051842F90E0880F991F880F991F90957E
:101BF00081959F4F8983AB2B19F08F8182608F83F2
:101C0000672B19F08F8181608F8321FF03C08E8144
:101C100082608E8320FF93C08E8181608E838FC00F
:101C2000ED2CFF24C701807C9070803C9105D9F594
:101C30008FEFD81621F081E080937F010FC0809153
:101C40007F01882359F421FF03C08E8182608E8337
:101C500020FF75C08E8181608E8371C020FF02C01D
:101C60008FE78C8321FF02C080E88B83E0FE02C0F7
:101C70008FE78B83E1FE02C080E88C83E2FE03C025
:101C80008E8180648E83E3FE03C08E8180688E83A4
:101C9000E4FE03C08E8182608E83E5FE50C08E819B
:101CA00081608E834CC0C701807F9070009709F5DA
:101CB00010927F0121FF03C08E8182608E8320FFFE
:101CC00003C08E8181608E83E0FE03C08E818860B8
:101CD0008E83E1FE03C08E8184608E83E2FE03C0AA
:101CE0008E8180648E83E3FE2AC08E8180688E831D
:101CF00026C08038910509F582E080938601842F03
:101D00000E941E0D8F7700FD8195F50183830E944F
:101D1000480D182F0E941E0D8F7710FD8195F5013B
:101D20008283E1FE03C0818181608183E0FE07C080
:101D3000F50181818260818302C010927F01DF9171
:101D4000CF911F910F91FF90EF90DF90BF90AF90D8
:101D50000895382F8FE08A95F1F790E020E0E5E2D2
:101D6000F0E04CE3A3E2B0E080818B7F808330FF22
:101D700004C080818061808303C080818F7E8083E6
:101D8000842F8A95F1F726958081846080838C91D9
:101D900085FD2068842F8A95F1F79F5F983011F0B8
:101DA0003695E2CF8FE08A95F1F7822F0895DF9282
:101DB000EF92FF920F931F93CF93DF93EC017B0180
:101DC000E4E2F0E080818D7D808380818C6180837E
:101DD000E5E2F0E080818E6380838081877F80836D
:101DE0008FE08A95F1F781E00E94A90E82E40E94BB
:101DF000A90E082F10E0813409F411E0DD24033727
:101E000011F4DD24D394812F8D2990E020E030E07F
:101E1000033511F421E030E0822B932B892B09F458
:101E200081C08FEF0E94A90E8FEF0E94A90EE82FAC
:101E3000982F80FD03C08F8181608F8393FD03C045
:101E40008F8182608F83112389F094FD02C080E826
:101E50008A8396FD02C08FE78A83EE2314F080E820
:101E6000898395FD1AC08FE7898317C0DD20A9F00B
:101E700091FD03C08F8184608F8392FD03C08F81A9
:101E800088608F83E295EF70F0E0E095F095EF7059
:101E9000F070E953FD4FE491ED838FEF0E94A90E9E
:101EA000282F982F80FD03C08E8180648E8391FD42
:101EB00003C08E8180688E8392FD03C08E81806115
:101EC0008E8393FD03C08E8180628E8394FD03C058
:101ED0008E8184608E8395FD03C08E8188608E83A1
:101EE00096FD03C08E8181608E8322231CF08E813B
:101EF00082608E83DD2011F40335A1F48FEF0E9400
:101F0000A90E80588B838FEF0E94A90E80588C8376
:101F10008FEF0E94A90E805889838FEF0E94A90E2F
:101F200080588A83033209F050C083E08093860191
:101F30008FEF0E94A90E8FEF0E94A90EE82F83FD5C
:101F400007C0D70115968C911597826015968C93D2
:101F5000E295EF70F0E0E095F095EF70F070E953E6
:101F6000FD4FE491D7011396EC938FEF0E94A90ED9
:101F7000282F83FD04C0F70184818068848324FDB9
:101F800007C0D70114968C911497846014968C9393
:101F900025FD04C0F7018481886084838FEF0E944F
:101FA000A90E8058D70111968C938FEF0E94A90E2D
:101FB000F70186838FEF0E94A90ED70117968C93A5
:101FC0008FEF0E94A90EF7018087E5E2F0E08081A3
:101FD000886080838FE08A95F1F7DF91CF911F9120
:101FE0000F91FF90EF90DF900895EF92FF920F9383
:101FF0001F93CF93DF937C01E5E2F0E08081877F40
:102000008083062F10E01016110664F4C0E0D0E0C3
:10201000F701EC0FFD1F80810E94A90E2196C017C9
:10202000D107B4F3E5E2F0E08081886080838FE03F
:102030008A95F1F7DF91CF911F910F91FF90EF906B
:10204000089590E0E3E2F0E003C09F5F983C19F050
:10205000808181FDFACF089590E0E3E2F0E003C0D3
:102060009F5F983C19F0808181FFFACF08950F930C
:102070001F93CF93DF93EC01E4E2F0E080818D7C4D
:10208000808380818C608083E5E2F0E080818E63D4
:102090008083EAE2F0E080818E7E8083EBE2F0E0F4
:1020A0008081816180838AE08A95F1F7489B57C0DF
:1020B0004C9903C08E8180618E83E5E2F0E08081DF
:1020C000877F80838AE08A95F1F71C9902C080E8B7
:1020D0008A831D9902C08FE78A83489902C080E8ED
:1020E00089834C9902C08FE78983E5E2F0E0808123
:1020F000837F886080838AE08A95F1F71C9903C00A
:102100008E8182608E831D9903C08E8184608E8350
:10211000489903C08E8181608E834C9903C08F8162
:1021200082608F83E5E2F0E08081837F80838AE0B4
:102130008A95F1F71C9903C08E8180628E831D9968
:1021400003C08E8180618E83489903C08E81886030
:102150008E834C993AC18E8180688E8336C11C9BD8
:1021600034C1E5E2F0E08081877F808380818B7FCE
:1021700080830E9421101C990EC105E210E0F80135
:102180008081846080830E942C10F80180818B7F85
:1021900080830E9421101C9902C080E88A831D99C7
:1021A00002C08FE78A83489902C080E889834C9BEC
:1021B00002C010E010C08FE7898310E00CC092606D
:1021C000489B94604C9B9860EAEAF2E0E90FF11DAD
:1021D000E491ED8311E0E5E2F0E0808184608083AA
:1021E0000E942C101C9903C08E8182608E831D99E1
:1021F00003C08E8184608E83489903C08E81816084
:102200008E834C9903C08F8188608F83E5E2F0E074
:1022100080818B7F80830E9421101C9903C08E8156
:1022200080628E831D9903C08E8180618E83489960
:1022300003C08E8188608E834C9903C08E81806834
:102240008E83E5E2F0E08081846080830E942C1020
:102250004C9903C08E8180648E83E5E2F0E080813A
:102260008B7F80830E9421101C9902C000E101C075
:1022700000E01D9B0062489B00644C9B0068E5E207
:10228000F0E08081846080830E942C101C9B0160A0
:102290001D9B0260489B04604C9B0860113019F440
:1022A0008FE7801B8983E5E2F0E080818B7F80836C
:1022B0000E9421101C9902C000E101C000E01D9B9A
:1022C0000062489B00644C9B0068E5E2F0E080817E
:1022D000846080830E942C101C9B01601D9B026007
:1022E000489B04604C9B0860113019F48FE7801BF9
:1022F0008A83E5E2F0E080818B7F80830E94211059
:102300001C9902C000E101C000E01D9B0062489BD7
:1023100000644C9B0068E5E2F0E08081846080838B
:102320000E942C101C9B01601D9B0260489B046056
:102330004C9B0860113019F4802F80588C83E5E2A3
:10234000F0E080818B7F80830E9421101C9902C065
:1023500000E101C000E01D9B0062489B00644C9BB3
:102360000068E5E2F0E08081846080830E942C10A8
:102370001C9B01601D9B0260489B04604C9B086095
:10238000113019F4802F80588B83E5E2F0E08081D2
:102390008C6080831AC005E210E0F80180818460BF
:1023A00080830E942C10F80180818B7F80830E94A3
:1023B0002110E3E2F0E0808182958F708095982F64
:1023C0009170808185FFFBCEFBCEDF91CF911F9175
:1023D0000F910895DC01E4E2F0E08081817C80834C
:1023E000E5E2F0E080818E638083E7E2F0E08081C7
:1023F000827C8083808182608083E8E2F0E080815B
:102400008F63808380818D7F8083808182608083E1
:1024100090E82FE0E3E2F0E0822F8A95F1F78081E7
:1024200085FF03C011969C931197808184FF03C0A0
:1024300012969C931297808183FF03C013969C93FE
:102440001397808182FF03C014969C9314979F5F1B
:102450009F3711F711968C9111978E3719F41196B9
:102460001C92119712968C9112978E3719F412962E
:102470001C92129713968C9113978E3719F413961A
:102480001C92139714968C9114978E3719F4149606
:102490001C921497309907C016968C9116978160FC
:1024A00016968C931697199907C016968C911697C5
:1024B000826016968C9316974C9907C016968C914D
:1024C0001697846016968C931697489906C01696B0
:1024D0008C911697886016968C930895E9E6F0E043
:1024E000808182608083EDE3F0E080818160808381
:1024F000E4EAF1E08BE4808331978AE580830895F4
:102500001F93CF93DF938091B401982F93500AF4D7
:10251000B4C02091B1018091B0018D3209F0ABC0FF
:10252000983009F0A8C08CE090E0821B9109FC0172
:10253000E854FE4FEF0183EC809398018AE5809385
:102540002201109280018081807629F0CF010E94C3
:102550005304282F87C092811092A1018181882382
:1025600031F4E2EAF1E0108222E0319777C0853061
:1025700031F49093B50120E0E1EAF1E06FC08630DC
:1025800009F04CC08381813031F4CF010E9479047D
:10259000282F80E440C0823031F4CF010E947904BA
:1025A000282F80E038C0833009F5992349F484ED61
:1025B00092E09093B3018093B20180E424E02BC0B9
:1025C000913049F488ED92E09093B3018093B20189
:1025D00080E42AE020C09230E1F482EE92E0909311
:1025E000B3018093B20180E42CE115C0813249F43B
:1025F00082E191E09093B3018093B20180E429E0FD
:102600000AC0823231F4CF010E947904282F80E47D
:1026100002C080E420E08093800124C0883021F44F
:1026200021E0E7EBF1E01AC0893031F49093B70173
:1026300020E0E1EAF1E012C08A3021F421E0E1EA91
:10264000F1E00CC08B3021F020E0E1EAF1E006C0BF
:102650008BE48093A40120E0E1EAF1E0F093B30180
:10266000E093B2018F81882321F48E81821708F4D0
:10267000282F209323011092B4018091220184FF1E
:1026800057C0109123011F3F09F452C0193008F0C0
:102690005CC010922301E8E9F1E0808198E8892785
:1026A0008083112309F45DC02091B2013091B30100
:1026B0008091800186FF14C0A9E9B1E080E090E03C
:1026C000F901E80FF91FE491ED9301961817C1F78E
:1026D000812F815090E00196F901E80FF91F0FC09A
:1026E000D901912FE9E9F1E08D9181939150E1F7C2
:1026F000812F815090E00196F901E80FF91FF093C6
:10270000B301E093B201193068F489E991E0612FD7
:102710000E94FB13612F6C5F6C3040F48FEF80934D
:10272000230104C08FEF809323016EE160932201A7
:1027300094E1E9E2F0E080818670D1F49150D9F71C
:102740001092B5011092AF0113C0812F8850809371
:102750002301E8E9F1E0808198E88927808318E087
:10276000A3CF89E991E060E00E94FB1364E0D6CF3B
:10277000DF91CF911F910895FF920F931F93DC017A
:10278000F62E8091A30184FF07C0E4EAF1E0808186
:1027900098E88927808303C08AE58093A3019F2D51
:1027A000E5EAF1E08D9181939150E1F705EA11E0BE
:1027B000C8016F2D0E94FB138F2D8C5F02501040BB
:1027C000F80180831F910F91FF900895A82FB92FD2
:1027D00080E090E041E050EA609530E009C02D9142
:1027E00082279795879510F084279527305EC8F348
:1027F0006F5FA8F30895EADF8D939D930895CF93BB
:10280000CFB7CF93C395499BE9F7499B0BC0499B31
:1028100009C0499B07C0499B05C0499B03C0499B10
:1028200001C0C2C0C091B101DF93DD27C854DE4FA3
:102830002F932FEF499B03C02F91DF91E6CF0F938A
:102840001F934F936F9309B101FB20F93F933BE036
:102850005F931EC04E7F012F19B11670E1F0216009
:1028600000001DC0102F4D7F2260000009B10670CE
:1028700091F01DC04B7F2460012F000019B116702C
:1028800051F01EC019B1167031F0477F28601BC08F
:1028900019B1167009F462C04FEF297FD9F20127F0
:1028A00001FB21F909B10670B1F3237FD9F210279A
:1028B00011FB22F900C019B1167069F3277ED1F21D
:1028C000012701FB23F92F7CE9F209B1067019F306
:1028D000102711FB24F92F7929F100C019B11670C6
:1028E000E9F1012701FB25F92F7311F100C009B1AE
:1028F0000670A1F1102711FB26F92230F8F000C074
:1029000019B1167059F1012701FB27F92430E0F0C5
:102910004227000009B14993102711FB20F93150DB
:10292000C8F0B6CF4F7E09B10670C1F02061D3CF99
:10293000206219B1167091F04F7DD6CF4F7B09B14F
:10294000067061F02064D9CF4F7719B1167031F05D
:102950002068DCCF11E01CBB002719C03B5031952B
:10296000C31BD04011E01CBB0881033C09F10B34B0
:10297000F9F02091AF011981110F1213EDCF4A81A7
:10298000441F093651F10D3211F0013E29F7009331
:10299000B6015F913F916F914F911F910F912F91D0
:1029A000DF91CCB3C0FD2ECFCF91CFBFCF91189583
:1029B0002091B601222369F31091B401112389F506
:1029C00034308AF13093B4012093B0011091B101F9
:1029D0003BE0311B3093B10126C00091B4010130BE
:1029E00004F50AE54F7049F43091220134FD1CC012
:1029F00000932201C8E9D1E01BC03091A30134FD4E
:102A000013C00093A301C4EAD1E012C00527112727
:102A1000000019C0052711271FC005271127000036
:102A200024C04AE502C032ED432FC4E1D0E032E0D9
:102A30001AB11660599A0BB11AB956E020E866E04F
:102A400020FF052727950BB917951C3FF8F66A95C7
:102A5000B9F720FF0527279500000BB917951C3FF4
:102A6000C8F620FF05272795179566E01C3F0BB990
:102A7000A0F629913A9521F7097F1091B501110F20
:102A80000BB9C651D04011F01093AF0111E01CBB3F
:102A900002601AB1197F402F497F53E05A95F1F730
:0E2AA00000C00BB91AB94BB974CFF894FFCF30
:102AAE000902220001010080FA090400000103005E
:102ABE0000000921010100012250000705810308D1
:042ACE0000085AFFA3
:00000001FF
