:100000000C949C010C9406150C94B9010C94BB0142
:100010000C94B9010C94B9010C94B9010C94B90178
:100020000C94B9010C94B9010C94B9010C94B90168
:100030000C94B9010C94B9010C94B9010C94B90158
:100040000C94B9010C94B9010C94B9010C94B90148
:100050000C94B9010C94B9010C94B9010C94B90138
:100060000C94B9010C94B90124035200650074008A
:1000700072006F0020004100640061007000740095
:100080006500720020004D006F0064001201100135
:100090000000000882820132010401020001120105
:1000A00010010000000882820133010401020001F6
:1000B00005010905A1018501A100093009311500DB
:1000C00026FF0075089502810209320935150026C0
:1000D000FF007508950281020939150025073500D2
:1000E000463B0165147504950181027504950181F3
:1000F00003050919012910150025017501951055F1
:100100000065008102C0C005010905A1018501A1AA
:100110000009300931150026FF007508950281029B
:1001200009320935150026FF00750895028102097C
:1001300039150025073500463B0165147504950106
:100140008102750495018103050919012910150023
:10015000250175019510550065008102C0C005019B
:100160000905A1018502A10009300931150026FF0A
:100170000075089502810209320935150026FF0035
:100180007508950281020939150025073500463B9F
:1001900001651475049501810275049501810305BB
:1001A00009190129101500250175019510550065E3
:1001B000008102C0C005010905A1018501A1000956
:1001C000300931150026FF007508950281020932B9
:1001D0000935150026FF00750895028102093915B9
:1001E0000025073500463B01651475049501810221
:1001F00075049501810305091901291015002501D0
:1002000075019510550065008102050209C509C4F4
:1002100009BB150026FF00750895038102C0C005C3
:10022000010902A10185010901A10005091901299E
:10023000031500250195047501810295017504815E
:100240000305010930093109381580257F750895A6
:10025000038106C0C00904A10185020901A10009AA
:100260003009311580257F750895028102C0050986
:10027000190129101500250175019510550065001B
:100280008102C005010905A1018501A1000930090C
:1002900031150026FF0075089502810209320935E3
:1002A000150026FF00750895028102093915002501
:1002B000073500463B0165147504950181027504FC
:1002C0009501810305091901291015002501750102
:1002D0009510550065008102050109360936093679
:1002E0000936093609360936093609360936093616
:1002F0000936150026FF00750895018102C0C0FF70
:100300000004FF060705FF020103FFFFFFFFFFFFD9
:100310000206FF040305FF000107FFFFFF000201C3
:1003200004FF03FF0607FFFF05040309040A034D4A
:10033000006F004A006F000011241FBECFEFD4E011
:10034000DEBFCDBF11E0A0E0B1E0E2E5FCE202C01B
:1003500005900D92A432B107D9F711E0A4E2B1E003
:1003600001C01D92A43AB107E1F70E944F060C9418
:1003700027160C94000078946F936FB72F933F93D8
:100380004F935F9353B15C73452F44713091630178
:10039000347120916201403049F0403161F04431C4
:1003A00079F03030A1F0343181F012C0303179F081
:1003B000343059F00DC0343151F0303031F008C0D4
:1003C000343029F0303109F003C0239501C02A955B
:1003D00020936201452F4872309163013872209159
:1003E0006101403049F0403261F0483279F03030FC
:1003F000A1F0383281F012C0303279F0383059F043
:100400000DC0383251F0303031F008C0383029F0AA
:10041000303209F003C0239501C02A952093610171
:10042000509363015F914F913F912F916FBF6F91F7
:1004300018950F931F93FF93EF93BF93AF93F92FEB
:10044000E82F09E00093650100E20093660100E0F7
:100450000093670101E00093680101E000936901E6
:1004600000E000936A0100936B0100936C0109E2C4
:1004700000936D0107D0BF91AF91EF91FF911F9154
:100480000F910895A1E0B5E609E02D980000000065
:1004900000002C980000000000002C9A00000000D2
:1004A0002C980000000000002C9A000000000000C2
:1004B0002C980000000000002C9A000000000000B2
:1004C0002C980000000000002C9A000000000000A2
:1004D00000002D9A1D9117FD2C9A17FF2C982D982E
:1004E000000000002C9A16FD2D9A16FF2D982C9ACC
:1004F000000000002D9A15FD2C9A15FF2C982D9ABE
:10050000000000002C9A14FD2D9A14FF2D982C9AAF
:10051000000000002D9A15FD2C9A15FF2C982D9A9D
:10052000000000002C9A14FD2D9A14FF2D982C9A8F
:10053000000000002D9A15FD2C9A15FF2C982D9A7D
:10054000000000002C9A14FD2D9A14FF2D982C9A6F
:10055000000000002D9A0A952D9A2C9A0895F92FE3
:10056000E82F21E030E0E20FF31F22273327442752
:100570005527662777278827992790E095D0B2D00E
:100580007ED0292F7CD0392F7AD0492F253021F0E9
:10059000293081F180E00895BFEFBA95F1F7B8EC0A
:1005A000BA95F1F791E080D09DD069D0292F67D01E
:1005B000392F65D0492F63D0592F4083518340E0B4
:1005C00050E027FD426026FD416025FD546024FD7A
:1005D00052602F7035FD406434FD406833FD486043
:1005E00032FD446031FD406130FD406245835683F9
:1005F000822F0895B4E6BA95F1F790E455D093E0D0
:1006000053D092E051D06ED03AD0292F38D0392F24
:1006100036D0492F34D0592F32D0692F30D0792F8E
:100620002ED0892F2CD04058505840835183605889
:1006300070586283738340E050E020FD426021FDEA
:10064000416022FD486023FD446024FD526034FD7A
:10065000546035FD406836FD4064803408F04064E5
:10066000903408F04068458356833F70232F3E7FC7
:1006700031FD31603D7F20FD3260832F089590E091
:10068000B4E1A8E0BA9579F01899FCCFB9E0BA9531
:10069000F1F7990F18999160B4E1BA9521F0189B80
:1006A000FCCFAA9579F70895A8E097FD0DC0209A90
:1006B000BDE0BA95F1F700002098B3E0BA95F1F7E4
:1006C000990FAA9591F70895209AB3E0BA95F1F79A
:1006D000000000002098BDE0BA95F1F7990FAA95A7
:1006E00021F70895209AB3E0BA95F1F700000000D1
:1006F000209808951AB889EF8BB914B88FE385B99B
:1007000017B888B9089580915A018130D1F18130AC
:1007100038F0823009F466C0843009F0C4C093C058
:100720008CE890E0909325018093240182E190E091
:10073000909327018093260180EB90E090935C01D9
:1007400080935B0187E590E090935E0180935D016B
:1007500081E08093530188E291E090935601809369
:10076000550188E08093570188E690E09093590105
:100770008093580184E290E09093600180935F0140
:1007800092C08CE890E0909325018093240182E14F
:1007900090E0909327018093260187E091E0909369
:1007A0005C0180935B018EEA90E090935E01809300
:1007B0005D0182E08093530188E291E090935601BD
:1007C0008093550188E08093570188E690E09093EC
:1007D00059018093580184E290E0909360018093E6
:1007E0005F0161C08EE990E0909325018093240120
:1007F00082E190E090932701809326018FE192E0BF
:1008000090935C0180935B0184E690E090935E019D
:1008100080935D0182E08093530180E391E09093A7
:1008200056018093550185E08093570188E690E05A
:10083000909359018093580184E290E09093600175
:1008400080935F0130C08CE890E090932501809305
:10085000240182E190E0909327018093260183E8B0
:1008600092E090935C0180935B018CE790E0909321
:100870005E0180935D0181E08093530185E391E007
:10088000909356018093550184E18093570188E647
:1008900090E0909359018093580184E290E0909306
:1008A000600180935F0180915D0180931901F8944C
:1008B000EAE2F0E0808182608083808186608083CC
:1008C00026EF39E040E951E0CA010197F1F72150E4
:1008D0003040D1F7EAE2F0E080818D7F8083808133
:1008E000897F808378940895FC01808180768032AE
:1008F000F9F48181813059F480915501909156012C
:1009000090938901809388018091570108958230E6
:1009100041F484E591E0909389018093880181E01E
:1009200008958A3029F483818093540180E00895EA
:1009300080E00895FC0181818630C1F58381823099
:10094000A1F0833018F4813089F517C0833001F1AC
:10095000823261F580915B0190915C0190938901F5
:100960008093880180915D01089580E091E09093EB
:1009700089018093880182E20895809124019091F9
:100980002501909389018093880180912601089523
:100990008281823059F4809158019091590190934D
:1009A00089018093880180915F01089580E0089516
:1009B000EF92FF920F931F93CF93DF93FC01DB0124
:1009C000B801E7018081805880838C9180588C9396
:1009D000FA01808180588083F9018081805880836A
:1009E000F80120813881832F822B09F45BC01082AB
:1009F0001882922F20FF03C080818160808391FF45
:100A000004C0FB0180818260808392FF04C0FB01EF
:100A100080818860808393FF04C0FB0180818061B6
:100A2000808394FF03C088818160888395FF03C021
:100A300088818260888396FF04C0FB018081806486
:100A40008083222324F4FB01808180688083932F9C
:100A500030FF03C088818460888391FF03C0888150
:100A60008860888392FF03C088818062888393FFB7
:100A700003C088818064888394FF03C0888180617B
:100A8000888395FF03C088818068888396FF04C0AF
:100A9000FB01808184608083332324F4FB01808107
:100AA00080628083DF91CF911F910F91FF90EF9033
:100AB00008950F931F93082FF894E8E2F1E088E07F
:100AC000DF011D928A95E9F78FEF85830083A0E30C
:100AD000B1E0E9E4F1E085E001900D928150E1F7A9
:100AE00000933001E5E3F1E084E1DF011D928A9596
:100AF000E9F78FEF8583008310925A0135997FC003
:100B0000349968C086B190E08E71907086309105FE
:100B100021F1873091054CF482309105B1F0843099
:100B2000910509F1892B59F008C08A30910569F1C6
:100B30008C309105F1F0089771F190E070C088E277
:100B400091E00E94411110E084C088E291E065E3E9
:100B500071E00E94DA0F10E07CC088E291E00E9410
:100B60003C0A10E076C088E291E00E94080B10E099
:100B70005BC082E080935A01013009F08EC080E3AF
:100B800091E00E94F00611E064C088E291E00E94CA
:100B9000D30910E05EC083B190E08670907082301F
:100BA000910591F08630910519F0892B39F036C006
:100BB00088E291E00E94420910E04BC088E291E097
:100BC0000E94D90810E045C088E291E00E94340BF1
:100BD00010E03FC0339906C088E291E00E94F41211
:100BE00010E037C0023011F090E005C088E291E0DB
:100BF0000E94FA0D91E081E080935A0110C0339970
:100C000007C088E291E0602F0E946E0710E021C0CB
:100C100088E291E00E94450C10E006C091E0992323
:100C200011F010E016C010E089B1897071F44C9B8E
:100C300005C088E291E00E942B070BC088E291E09A
:100C400060E371E00E94660E04C088E291E00E94B9
:100C5000810B0230B9F480915A01823099F441E35A
:100C600051E029E231E0D9018D91FA0181938C9113
:100C70008083F9018581DA0112968C93129786811F
:100C800013968C93112329F4E8E6F0E080818E7F9F
:100C9000808378941F910F91089511E0C5CF2F9212
:100CA0003F924F925F926F927F928F929F92AF92FC
:100CB000BF92CF92DF92EF92FF920F931F93DF9339
:100CC000CF9300D0CDB7DEB70E947A030E9478138D
:100CD00010925A0181E00E9459050E948303DD248D
:100CE000D394CC24CA940F2EF9E2AF2EF1E0BF2E9C
:100CF000F02D45010894811C911C6624772468948A
:100D000061F86A0C7B1C0F2EF3E04F2E5524F02D5A
:100D10004A0C5B1C0F2EF5E02F2E3324F02D2A0CED
:100D20003B1CC50106969A8389830E948A13E9E7D2
:100D3000F1E0808184FFF9CF8D2D0E945905CC20F0
:100D400021F0F1E0CF16A1F40AC0C501B401A3015E
:100D500092018101E980FA800E94D80409C0C5018E
:100D6000B401A30192018101E980FA800E94D804B4
:100D700000915701093078F410E003C0185F093082
:100D800058F48091550190915601810F911D602F6B
:100D90000E94C31414C010E0809155019091560137
:100DA000810F911D68E00E94C31408500E948A13AD
:100DB000E9E7F1E0808184FFF9CF0023F9F6D394CD
:100DC000809153018D1510F4DD24D39480915A0144
:100DD000C81609F4AACF0E948303C0905A01A5CF78
:100DE000DC01E4E2F0E08081817C8083E5E2F0E0F8
:100DF00080818E638083E7E2F0E080818E7F808354
:100E0000E8E2F0E08081816080838CE380936B0076
:100E100081E0809368008091620112968C93129712
:100E20008091610113968C93139710926201109236
:100E30006101199907C011968C91119781601196E3
:100E40008C931197309906C011968C9111978260FE
:100E500011968C9308950F931F938C01E5E2F0E0B7
:100E600080818E7F8083E4E2F0E080818E7F8083CA
:100E7000EBE2F0E080818F778083EAE2F0E080812E
:100E800080688083C8010E94AF02EFE0F3E0E80FC2
:100E9000F11DE491D8011596EC93159712968C915B
:100EA0001297819512968C93129714968C911497A1
:100EB000819514968C931F910F910895E4E2F0E0D0
:100EC0002081277F2083208120632083E5E2F0E0DA
:100ED0002081286320830E9419020895DC01EAE240
:100EE000F0E080818E7E8083EBE2F0E080818161A2
:100EF0008083E4E2F0E080818863808380818D7F5D
:100F00008083E5E2F0E0808182608083E7E2F0E0C8
:100F10008081807E8083E8E2F0E080818F61808341
:100F2000489B0BC0E4E2F0E0808184608083E5E2CE
:100F3000F0E08081837C808314C0E4E2F0E0808173
:100F40008B7F8083E5E2F0E080818C638083E7E241
:100F5000F0E080818E7F8083E8E2F0E08081816034
:100F6000808387E180937E00EAE7F0E085E080837C
:100F700084E680937C00808180688083808186FD08
:100F8000FDCF613009F5EAE7F0E08081806480837D
:100F9000808186FDFDCF909179008FE7891B1296A5
:100FA0008C93129782E680937C00EAE7F0E08081E0
:100FB00080648083808186FDFDCF909179008FE7EA
:100FC000891B11968C931197489B29C081E08093CF
:100FD0005A01623021F581E680937C00EAE7F0E077
:100FE000808180648083808186FDFDCF909179002F
:100FF0008FE7891B11968C93119780E680937C0074
:10100000EAE7F0E0808180648083808186FDFDCF07
:10101000909179008FE7891B12968C93129710920A
:101020007A0010927E00489B17C04C9909C061302D
:1010300039F416968C911697816016968C931697B4
:1010400019999AC0623009F097C016968C9116973C
:10105000816016968C93089510925A01E5E2F0E0B3
:101060008081877F808385E08A95F1F7309907C07A
:1010700016968C911697826016968C9316971A99ED
:1010800007C016968C911697806116968C931697CA
:10109000199907C016968C911697806816968C93AE
:1010A00016974C9907C017968C91179784601796DE
:1010B0008C931797E5E2F0E08081886080838081DF
:1010C0008F7E808385E08A95F1F7309907C0169668
:1010D0008C911697846016968C9316971A9907C070
:1010E00016968C911697806216968C93169719997E
:1010F00007C017968C911797816017968C93179756
:101100004C9907C016968C911697816016968C9311
:101110001697E5E2F0E080818061808380818F7D99
:10112000808385E08A95F1F7309907C016968C91F7
:101130001697886016968C9316971A9907C016967C
:101140008C911697806416968C931697199907C000
:1011500017968C911797826017968C9317974C99D6
:1011600006C017968C911797886017968C93E5E2C6
:10117000F0E0808180628083089520E090E0A3E227
:10118000B0E0EBE2F0E035E1220F8C9180FD2160D0
:1011900080818F778083832F8A95F1F780818068A3
:1011A0008083832F8A95F1F79F5F983069F7822FAC
:1011B0000895CF93DF93EC01ABE2B0E08C91886FA0
:1011C0008C938C918E7F8C93EAE2F0E08081896C25
:1011D000808380818F7C8083E4E2F0E080818E7F59
:1011E0008083E5E2F0E08081816080838C918F7B59
:1011F0008C930E94BD08282F30E0C901807F907039
:1012000080349105E1F520FF02C080E8898321FF49
:1012100002C08FE7898322FF02C080E88A8323FF10
:1012200002C08FE78A830E94BD08282F982F81FF74
:1012300003C08E8180648E8392FF03C08E8180689C
:101240008E8393FF03C08F8181608F8394FF03C0DF
:101250008F8182608F8395FF03C08E8184608E832F
:1012600096FF03C08E8182608E8322231CF48E81C0
:1012700081608E83EBE2F0E0808180648083DF9187
:10128000CF910895DC01EAE2F0E0808186708083EE
:10129000EBE2F0E08081896F8083E4E2F0E080811E
:1012A000807C8083E5E2F0E080818F638083E9E2E7
:1012B000F0E08081982F9170808183FD9260809111
:1012C0004F01981709F44BC09130A9F0913028F0E4
:1012D000923069F19330C1F51CC0813029F48FE759
:1012E00011968C93119730C0823071F580E8119679
:1012F0008C93119729C0833029F48FE711968C9332
:10130000119722C0882301F580E811968C931197DC
:101310001BC0823029F48FE711968C93119714C06B
:10132000813091F480E811968C9311970DC0882339
:1013300029F48FE711968C93119706C0833021F41E
:1013400080E811968C93119790934F0183E08093DE
:101350004E0111968C911197809350010CC0809191
:101360004E01882341F0815080934E0180915001BD
:1013700011968C9311974E9906C016968C911697DC
:10138000816016968C930895EBE2F0E080818F7E69
:1013900080838CE291E00197F1F789B190819061AF
:1013A000908381700895CF93DF93EC01E4E2F0E045
:1013B0008081837C8083808182608083A5E2B0E02D
:1013C0008C918E638C93EAE2F0E080818E7F808343
:1013D000808180618083EBE2F0E0808181618083A5
:1013E0008C918D7F8C931D9902C080E88A831C9913
:1013F00002C08FE78A831B9902C080E889831A990B
:1014000002C08FE789830E94C409882319F48E8162
:1014100082608E830E94C409882319F48E818160C2
:101420008E830E94C409882319F48E8188608E837C
:101430000E94C409882319F48E8184608E830E94DF
:10144000C409882319F48E8180688E830E94C409A0
:10145000882319F48E8180648E830E94C4098823B6
:1014600019F48F8181608F83E5E2F0E080818260F2
:101470008083DF91CF910895CF93DF93DC01E4E285
:10148000F0E08081837C8083808182608083E5E2DC
:10149000F0E080818E638083EAE2F0E08081806109
:1014A0008083EBE2F0E080818F7E808392E02BE20C
:1014B00030E0E3E2F0E065E270E040E85FE7E90198
:1014C00088818F7E88830000000080818C7309F4FE
:1014D00047C0808185FD03C012964C93129780818E
:1014E00084FD03C011965C931197808183FD03C036
:1014F00012965C931297808182FD03C011964C93E3
:101500001197EB0188818D7F888300000000808126
:1015100085FD07C016968C911697826016968C935F
:101520001697808184FD07C016968C91169781606E
:1015300016968C931697808183FD07C017968C9121
:101540001797816017968C931797808182FD36C01C
:1015500017968C911797826017968C9317972EC0C9
:10156000EB0188818D7F888300000000808185FDEC
:1015700007C016968C911697846016968C931697D2
:10158000808184FD07C016968C9116978860169608
:101590008C931697808183FD07C016968C911697C1
:1015A000806416968C931697808182FD07C01696EC
:1015B0008C911697806816968C931697E90188810E
:1015C00080618883EB01888182608883915009F073
:1015D00076CFDF91CF91089590E020E0E5E2F0E052
:1015E0003AE6A3E2B0E080818B7F8083832F8A95E7
:1015F000F1F726958C9185FD206880818460808339
:10160000832F8A95F1F79F5F983069F7822F0895AD
:10161000EF92FF920F931F937C0105E210E0F80117
:1016200080818C7E8083808184628083E4E2F0E02C
:1016300080818F7D808380818C618083F8018081AF
:101640008860808388EC90E00197F1F70E94EC0AB3
:10165000F8018081877F80838AEAF70187831F9161
:101660000F91FF90EF900895DC01EAE2F0E08081B5
:1016700086708083EBE2F0E08081896F8083E4E212
:10168000F0E080818E7F8083E5E2F0E08081816000
:1016900080834E990CC016968C9116978160169691
:1016A0008C93169704C09F5F9B3F21F4089590E0B0
:1016B000E3E2F0E0808180FDF6CF89B1982F892F99
:1016C0008095282F217093FF226094FF246095FF5E
:1016D000286090E0E3E2F0E003C09F5F9B3F81F071
:1016E000808180FFFACF89B180FF206183FF206273
:1016F00084FF206485FF20688FE7821B11968C93FE
:101700000895DC01EAE2F0E08081867880838081C0
:1017100080688083EBE2F0E080818F778083808136
:1017200089678083E4E2F0E080818E7F8083E5E258
:10173000F0E08081816080838AE48A95F1F789B145
:10174000807311F090E015C04E9907C016968C91E9
:101750001697816016968C931697189B02C091E09D
:1017600008C017968C911797826017968C931797DD
:1017700091E0EBE2F0E08081806880838AE48A95E2
:10178000F1F7489904C080E812968C9312974B9910
:1017900004C08FE712968C9312974C9904C080E88E
:1017A00011968C9311974D9904C08FE711968C93E5
:1017B0001197992391F44E9907C016968C9116971C
:1017C000816016968C931697189959C016968C912D
:1017D0001697826016968C9352C04E9907C0169643
:1017E0008C911697826016968C931697189907C05D
:1017F00016968C911697846016968C931697EBE24A
:10180000F0E080818F7780839AE4892F8A95F1F7C1
:10181000808180688083892F8A95F1F780818F7716
:1018200080839A95F1F789B1897349F58081806841
:1018300080838AE48A95F1F7489907C016968C91BF
:101840001697806816968C9316974B9907C0169634
:101850008C911697806416968C9316974C9907C0B6
:1018600016968C911697886016968C9316974D99BC
:1018700006C017968C911797816017968C93EBE2B0
:10188000F0E08081806880830895DC01E4E2F0E08C
:101890008081817C8083E5E2F0E080818E638083BB
:1018A000E7E2F0E08081807C8083E8E2F0E0808104
:1018B0008F638083EAE2F0E080818E7E8083EBE2BA
:1018C000F0E08081816180831D9907C017968C911B
:1018D0001797816017968C9317971C9907C01696D7
:1018E0008C911697886016968C9316971B9907C053
:1018F00016968C911697826016968C9316971A9965
:1019000004C08FE711968C931197199904C08FE743
:1019100012968C931297329907C017968C9117974D
:10192000826017968C931797319907C016968C9101
:101930001697846016968C931697309906C0169663
:101940008C911697816016968C930895DC018AE439
:101950008A95F1F783B18C7011F090E015C0199958
:1019600007C016968C911697816016968C931697E1
:10197000319B02C091E008C017968C911797826046
:1019800017968C93179791E0E8E2F0E080818460ED
:1019900080838AE48A95F1F71D9904C080E8129645
:1019A0008C9312971C9904C08FE712968C93129710
:1019B0001B9904C080E811968C9311971A9904C062
:1019C0008FE711968C931197992391F4199907C079
:1019D00016968C911697816016968C93169731996E
:1019E00059C016968C911697826016968C9308951E
:1019F000199907C016968C911697826016968C934B
:101A00001697319907C016968C9116978460169692
:101A10008C931697E8E2F0E080818B7F80839AE4D4
:101A2000892F8A95F1F7808184608083892F8A9538
:101A3000F1F780818B7F80839A95F1F783B18C7366
:101A400049F58081846080838AE48A95F1F71D9945
:101A500007C016968C911697806816968C931697E9
:101A60001C9907C016968C911697806416968C93D5
:101A700016971B9907C016968C9116978860169634
:101A80008C9316971A9906C017968C9117978160B8
:101A900017968C93089583B1E8E2F0E090819D7FE2
:101AA000908320E8922F9A95F1F79081926090832D
:101AB0002A95F1F786958695809581700895CF9344
:101AC000DF93EC01E4E2F0E080818B7F8083E5E24C
:101AD000F0E0808184608083E7E2F0E080818460D0
:101AE0008083A8E2B0E08C9184608C9380818260D6
:101AF00080838C9182608C9380EC90E00197F1F769
:101B00008C918B7F8C9380E88A95F1F70E944B0D26
:101B1000882319F08E8182608E830E944B0D88236A
:101B200019F08E8181608E830E944B0D882319F0FD
:101B30008F8181608F830E944B0D882319F08F81E4
:101B400082608F830E944B0D882311F080E88A8386
:101B50000E944B0D882311F08FE78A830E944B0D62
:101B6000882311F080E889830E944B0D882311F0AF
:101B70008FE789830E944B0D882319F08E81846042
:101B80008E830E944B0D882319F08E8188608E838E
:101B90000E944B0D882319F08E8180648E830E94F1
:101BA0004B0D882319F08E8180688E830E944B0D27
:101BB000882321F08E8183708E8319C08E81282F17
:101BC000207F2E83982F80FF03C0822F84608E8316
:101BD00091FF03C08E8181608E8392FF03C08E814E
:101BE00082608E8393FF03C08E8188608E83DF9135
:101BF000CF9108959C01E4E2F0E08081817C8083B4
:101C0000E5E2F0E080818E638083E7E2F0E08081AE
:101C10008460808380818D7F8083E8E2F0E0808132
:101C20008260808380818B7F808383B1887321F47D
:101C3000C9010E945F0D0895C9010E94A60C089574
:101C4000282F269511F437E009C037E0982F990F17
:101C5000822F8170892B31502695C1F790E002C008
:101C6000880F991F3A95E2F7089589B1E5E2F0E00F
:101C700090819E7F908320E8922F9A95F1F7908132
:101C8000916090832A95F1F782958695877080956B
:101C90008170089520E090E0A9E2B0E0E5E2F0E094
:101CA00030E826958C9185FF206880818E7F808327
:101CB000832F8A95F1F7808181608083832F8A95B5
:101CC000F1F79F5F983069F7822F0895AF92BF9226
:101CD000DF92EF92FF920F931F93CF93DF93EC016C
:101CE0005B01EAE2F0E080818F7D8083ABE2B0E0CF
:101CF0008C9180628C938081806880838C918068D5
:101D00008C93E4E2F0E0808181608083E5E2F0E0A2
:101D100080818160808380EC90E00197F1F78C9165
:101D20008F778C9380E88A95F1F70E944A0EF82EFF
:101D30000E944A0ED82E0E944A0E482FFF2014F40B
:101D40008FE789832F2D30E0F6FE02C080E889837B
:101D500025FF02C08FE78A8324FF02C080E88A83C0
:101D6000D901A870B07023FF03C08F8182608F8378
:101D7000B9016470707022FF03C08F8181608F830E
:101D8000042F10E0C8018F709070089709F04BC0C5
:101D90008F2D82958F70EFEFF2E0E80FF11DE49147
:101DA000ED838D2D8095482F4F70483008F04051BD
:101DB000842F90E0880F991F880F991F9095819527
:101DC0009F4F8A838D2D90E080959095807F9070B5
:101DD00095958795959587959595879595958795EB
:101DE000482F883008F04051842F90E0880F991FC9
:101DF000880F991F909581959F4F8983AB2B19F080
:101E00008F8182608F83672B19F08F8181608F8330
:101E100021FF03C08E8181608E8320FF93C08E815D
:101E200082608E838FC0ED2CFF24C701807C907070
:101E3000803C9105D9F58FEFD81621F081E0809391
:101E400051010FC080915101882359F421FF03C033
:101E50008E8181608E8320FF75C08E8182608E832B
:101E600071C020FF02C08FE78C8321FF02C080E891
:101E70008B83E0FE02C08FE78B83E1FE02C080E827
:101E80008C83E2FE03C08E8180648E83E3FE03C0F8
:101E90008E8180688E83E4FE03C08E8181608E8394
:101EA000E5FE50C08E8182608E834CC0C701807F6A
:101EB0009070009709F51092510121FF03C08E81A7
:101EC00084608E8320FF03C08E8181608E83E0FE5C
:101ED00003C08E8182608E83E1FE03C08E818860A4
:101EE0008E83E2FE03C08E8180648E83E3FE2AC06F
:101EF0008E8180688E8326C08038910509F582E046
:101F000080935A01842F0E94200E8F7700FD8195C7
:101F1000F50183830E944A0E182F0E94200E8F77AE
:101F200010FD8195F5018283E1FE03C0818181600E
:101F30008183E0FE07C0F50181818260818302C058
:101F400010925101DF91CF911F910F91FF90EF906F
:101F5000DF90BF90AF900895382F80E18A95F1F718
:101F600090E020E0E5E2F0E040E4A3E2B0E0808130
:101F70008B7F808330FF04C080818061808303C0B9
:101F800080818F7E8083842F8A95F1F726958081CA
:101F9000846080838C9185FD2068842F8A95F1F779
:101FA0009F5F983011F03695E2CF80E18A95F1F786
:101FB000822F0895FF920F931F93CF93DF93EC012D
:101FC000E4E2F0E080818D7D808380818C6180837C
:101FD000E5E2F0E080818E6380838081877F80836B
:101FE00080E18A95F1F781E00E94AC0F82E40E94C3
:101FF000AC0F082F10E0813409F411E0FF240337FF
:1020000011F4FF24F394812F8F2990E020E030E039
:10201000033511F421E030E0822B932B892B09F456
:1020200081C08FEF0E94AC0F8FEF0E94AC0FE82FA2
:10203000982F80FD03C08F8181608F8393FD03C043
:102040008F8182608F83112389F094FD02C080E824
:102050008A8396FD02C08FE78A83EE2314F080E81E
:10206000898395FD1AC08FE7898317C0FF20A9F0E7
:1020700091FD03C08F8184608F8392FD03C08F81A7
:1020800088608F83E295EF70F0E0E095F095EF7057
:10209000F070E45EFC4FE491ED838FEF0E94AC0F93
:1020A000282F982F80FD03C08E8180618E8391FD43
:1020B00003C08E8180628E8392FD03C08E81806416
:1020C0008E8393FD03C08E8180688E8394FD03C050
:1020D0008E8188608E8395FD03C08E8182608E83A1
:1020E00096FD03C08E8181608E8322231CF08E8139
:1020F00084608E83FF2011F40335A1F48FEF0E94DA
:10210000AC0F80588B838FEF0E94AC0F80588C836C
:102110008FEF0E94AC0F805889838FEF0E94AC0F25
:1021200080588A83033209F05CC08FEF0E94AC0FA5
:102130008FEF0E94AC0FE82F83FD03C08F81826078
:102140008F83E295EF70F0E0E095F095EF70F0701E
:10215000E45EFC4FE491ED838FEF0E94AC0F282FDB
:1021600083FD03C08E8180688E8324FD03C08E8131
:1021700088608E8325FD03C08E8182608E838FEF01
:102180000E94AC0F805889838FEF0E94AC0F90E0C3
:1021900022273327281B390B12F42F5F3F4FC90129
:1021A000959587958A838FEF0E94AC0F90E0222748
:1021B0003327281B390B12F42F5F3F4FC901959528
:1021C00087958C838FEF0E94AC0F90E022273327F6
:1021D000281B390B12F42F5F3F4FC9019595879546
:1021E0008B83E5E2F0E080818860808380E18A95DE
:1021F000F1F7DF91CF911F910F91FF900895EF922A
:10220000FF920F931F93CF93DF937C01E5E2F0E001
:102210008081877F8083062F10E01016110664F4FA
:10222000C0E0D0E0F701EC0FFD1F80810E94AC0FF1
:102230002196C017D107B4F3E5E2F0E08081886011
:10224000808380E18A95F1F7DF91CF911F910F9103
:10225000FF90EF90089590E0E3E2F0E003C09F5F0D
:10226000983C19F0808181FDFACF089590E0E3E277
:10227000F0E003C09F5F983C19F0808181FFFACFA6
:1022800008950F931F93CF93DF93EC01E4E2F0E006
:1022900080818D7C808380818C608083E5E2F0E0AA
:1022A00080818E638083EAE2F0E080818E7E80838D
:1022B000EBE2F0E08081816180838AE08A95F1F72A
:1022C000489B57C04C9903C08E8180618E83E5E2A4
:1022D000F0E08081877F80838AE08A95F1F71C99FE
:1022E00002C080E88A831D9902C08FE78A834899DB
:1022F00002C080E889834C9902C08FE78983E5E2B8
:10230000F0E08081837F886080838AE08A95F1F79E
:102310001C9903C08E8182608E831D9903C08E81BB
:1023200084608E83489903C08E8181608E834C992E
:1023300003C08F8182608F83E5E2F0E08081837F3C
:1023400080838AE08A95F1F71C9903C08E818062B0
:102350008E831D9903C08E8180618E83489903C04E
:102360008E8188608E834C993AC18E8180688E837D
:1023700036C11C9B34C1E5E2F0E08081877F808319
:1023800080818B7F80830E942B111C990EC105E2F6
:1023900010E0F8018081846080830E943611F8018A
:1023A00080818B7F80830E942B111C9902C080E862
:1023B0008A831D9902C08FE78A83489902C080E80A
:1023C00089834C9B02C010E010C08FE7898310E026
:1023D0000CC09260489B94604C9B9860EFEFF2E0D9
:1023E000E90FF11DE491ED8311E0E5E2F0E0808179
:1023F000846080830E9436111C9903C08E818260A4
:102400008E831D9903C08E8184608E83489903C09A
:102410008E8181608E834C9903C08F8182608F830F
:10242000E5E2F0E080818B7F80830E942B111C9974
:1024300003C08E8180688E831D9903C08E81806465
:102440008E83489903C08E8188608E834C9903C027
:102450008E8180628E83E5E2F0E0808184608083FB
:102460000E9436114C9903C08E8180618E83E5E213
:10247000F0E080818B7F80830E942B111C9902C029
:1024800000E101C000E01D9B0062489B00644C9B82
:102490000068E5E2F0E08081846080830E9436116C
:1024A0001C9B01601D9B0260489B04604C9B086064
:1024B000113019F48FE7801B8983E5E2F0E0808119
:1024C0008B7F80830E942B111C9902C000E101C008
:1024D00000E01D9B0062489B00644C9B0068E5E2A5
:1024E000F0E08081846080830E9436111C9B016033
:1024F0001D9B0260489B04604C9B0860113019F4DE
:102500008FE7801B8A83E5E2F0E080818B7F808308
:102510000E942B111C9902C000E101C000E01D9B2C
:102520000062489B00644C9B0068E5E2F0E080811B
:10253000846080830E9436111C9B01601D9B026099
:10254000489B04604C9B0860113019F4802F805820
:102550008C83E5E2F0E080818B7F80830E942B11E9
:102560001C9902C000E101C000E01D9B0062489B75
:1025700000644C9B0068E5E2F0E080818460808329
:102580000E9436111C9B01601D9B0260489B0460E9
:102590004C9B0860113019F4802F80588B83E5E242
:1025A000F0E080818C6080831AC005E210E0F801C1
:1025B0008081846080830E943611F80180818B7F46
:1025C00080830E942B11E3E2F0E0808182958F707E
:1025D0008095982F9170808185FFFBCEFBCEDF9197
:1025E000CF911F910F910895DC01E4E2F0E080812A
:1025F000817C8083E5E2F0E080818E638083E7E286
:10260000F0E08081827C8083808182608083E8E248
:10261000F0E080818F63808380818D7F80838081E3
:102620008260808390E820E1E3E2F0E0822F8A95E7
:10263000F1F7808185FF03C011969C9311978081EB
:1026400084FF03C012969C931297808183FF03C07E
:1026500013969C931397808182FF03C014969C93DA
:1026600014979F5F9F3711F711968C9111978E37B2
:1026700019F411961C92119712968C9112978E371D
:1026800019F412961C92129713968C9113978E3709
:1026900019F413961C92139714968C9114978E37F5
:1026A00019F414961C921497309907C016968C91C1
:1026B0001697816016968C931697199907C01696EF
:1026C0008C911697826016968C9316974C9907C03A
:1026D00016968C911697846016968C931697489947
:1026E00006C016968C911697886016968C9308955E
:1026F000E9E6F0E0808182608083EDE3F0E08081B4
:1027000081608083EAE7F1E08BE4808331978AE59A
:10271000808308951F93CF93DF9380918A01982F30
:1027200093500AF4B1C020918701809186018D32C7
:1027300009F0A8C0983009F0A5C08CE090E0821B99
:102740009109FC01E257FE4FEF0183EC80936E018B
:102750008AE580932201109252018081807629F0CF
:10276000CF010E947404282F84C0928110927701B7
:102770008181882331F4E8E7F1E0108222E031978B
:1027800074C0853031F490938B0120E0E7E7F1E0ED
:102790006CC0863009F049C08381813031F4CF01AB
:1027A0000E949A04282F80E43DC0823031F4CF018A
:1027B0000E949A04282F80E035C08330F1F49923D9
:1027C00049F489E293E0909389018093880180E441
:1027D00024E028C0913049F48DE293E09093890180
:1027E0008093880180E42AE01DC09230C9F4CF01B3
:1027F0000E949A04282F80E415C0813249F482E1B6
:1028000091E0909389018093880180E429E00AC0D7
:10281000823231F4CF010E949A04282F80E402C052
:1028200080E420E08093520124C0883021F421E02C
:10283000EDE8F1E01AC0893031F490938D0120E089
:10284000E7E7F1E012C08A3021F421E0E7E7F1E0A8
:102850000CC08B3021F020E0E7E7F1E006C08BE40C
:1028600080937A0120E0E7E7F1E0F0938901E093BB
:1028700088018F81882321F48E81821708F4282F04
:102880002093230110928A018091220184FF57C076
:10289000109123011F3F09F452C0193008F05CC0A9
:1028A00010922301EEE6F1E0808198E88927808389
:1028B000112309F45DC02091880130918901809134
:1028C000520186FF14C0AFE6B1E080E090E0F9016C
:1028D000E80FF91FE491ED9301961817C1F7812FC6
:1028E000815090E00196F901E80FF91F0FC0D9015E
:1028F000912FEFE6F1E08D9181939150E1F7812FD7
:10290000815090E00196F901E80FF91FF0938901D9
:10291000E0938801193068F48FE691E0612F0E94FE
:102920000215612F6C5F6C3040F48FEF80932301B0
:1029300004C08FEF809323016EE16093220194E144
:10294000E9E2F0E080818670D1F49150D9F71092DD
:102950008B011092850113C0812F88508093230131
:10296000EEE6F1E0808198E88927808318E0A3CF24
:102970008FE691E060E00E94021564E0D6CFDF911F
:10298000CF911F910895FF920F931F93DC01F62EB4
:102990008091790184FF07C0EAE7F1E0808198E83F
:1029A0008927808303C08AE5809379019F2DEBE717
:1029B000F1E08D9181939150E1F70BE711E0C801AF
:1029C0006F2D0E9402158F2D8C5F02501040F80170
:1029D00080831F910F91FF900895A82FB92F80E059
:1029E00090E041E050EA609530E009C02D918227E7
:1029F0009795879510F084279527305EC8F36F5F11
:102A0000A8F30895EADF8D939D930895CF93CFB7F0
:102A1000CF93DF93C395499BE9F7499B0BC0499B33
:102A200009C0499B07C0499B05C0499B03C0499BFE
:102A300001C08BC06F93C0918701DD27C257DE4F65
:102A40002F9365E5499B03C02F916F91E6CF0F93BC
:102A50001F934F9320E040E15F9309B1067001FBA3
:102A600027F93F9350E03BE039C0167040642F7760
:102A7000012F5F5F1EC0406819B116702F7752504A
:102A80001FC0406409B12F770670D1F15F5F00C0AD
:102A900023C0406219B12F77167091F15F5F00C0BB
:102AA00025C006701027515012F45D5F00001150D0
:102AB00027952C3F19B1C8F61670012701502795AC
:102AC0002C3FC8F64227499309B1067010274F736F
:102AD000115027952C3FA8F64695469519B11670CA
:102AE00079F00127015027952C3F98F66B5A60F337
:102AF000315009B1B0F600C011E01CBB002719C06D
:102B00003B503195C31BD04011E01CBB0881033CF6
:102B100009F10B34F9F0209185011981110F12137D
:102B2000EDCF4A81441F093651F10D3211F0013EBB
:102B300029F700938C013F915F914F911F910F9165
:102B40002F916F91CCB3C0FD65CFDF91CF91CFBFF7
:102B5000CF91189520918C01222369F310918A015D
:102B6000112391F5343092F130938A01209386013C
:102B7000109187013BE0311B3093870127C0009102
:102B80008A0101300CF50AE54F7049F430912201B9
:102B900034FD1DC000932201CEE6D1E01CC030916F
:102BA000790134FD14C000937901CAE7D1E013C064
:102BB000052710E000C000000BB91AC0052710E07F
:102BC000221F1DC010E021C04AE502C032ED432F94
:102BD000C4E1D0E032E01AB11660599A0BB11AB9CB
:102BE00056E020E865E320FF05270BB927951795E8
:102BF0001C3FF0F66695B8F7B1F720FF05270BB933
:102C0000279517951C3FD0F62795179517FF052791
:102C100000001C3F0BB9B0F629913A9519F7097FCE
:102C200010918B01110FC651D0400BB911F01093C8
:102C3000850111E01CBB02601AB1197F402F497F4A
:102C400054E05A95F1F70BB91AB94BB974CFF8940F
:022C5000FFCFB4
:102C52000902220001010080FA09040000010300B8
:102C62000000092101010001225700070581030824
:042C720000045AFF01
:00000001FF
