:100000000C949C010C94D8110C94B9010C94BB0174
:100010000C94B9010C94B9010C94B9010C94B90178
:100020000C94B9010C94B9010C94B9010C94B90168
:100030000C94B9010C94B9010C94B9010C94B90158
:100040000C94B9010C94B9010C94B9010C94B90148
:100050000C94B9010C94B9010C94B9010C94B90138
:100060000C94B9010C94B901FF0004FF060705FFC9
:10007000020103FFFFFFFFFF05010905A101850143
:10008000A10009300931150026FF0075089502818D
:100090000209320935150026FF0075089502810214
:1000A0000939150025073500463B0165147504958F
:1000B00001810275049501810305091901291015B3
:1000C00000250175019510550065008102050109A3
:1000D0003609360936093609360936093609360928
:1000E00036093609360936150026FF0075089501D0
:1000F0008102C0C005010902A10185010901A10019
:1001000005091901290315002501950475018102CE
:1001100095017504810305010930093109381580FD
:10012000257F750895038106C0C00904A1018502D9
:100130000901A100093009311580257F7508950254
:100140008102C005091901291015002501750195C5
:1001500010550065008102C005010905A101850156
:10016000A10009300931150026FF007508950281AC
:100170000209320935150026FF0075089502810233
:100180000939150025073500463B016514750495AE
:1001900001810275049501810305091901291015D2
:1001A00000250175019510550065008102050209C1
:1001B000C509C409BB150026FF0075089503810217
:1001C000C0C005010905A1018501A100093009315F
:1001D000150026FF007508950281020932093515C0
:1001E0000026FF00750895028102093915002507D0
:1001F0003500463B0165147504950181027504952F
:1002000001810305091901291015002501750195C2
:1002100010550065008102C0C005010905A10185D6
:1002200002A10009300931150026FF00750895026A
:10023000810209320935150026FF007508950281F3
:10024000020939150025073500463B016514750480
:100250009501810275049501810305091901291091
:100260001500250175019510550065008102C0C07B
:1002700005010905A1018501A10009300931150019
:1002800026FF0075089502810209320935150026FE
:10029000FF00750895028102093915002507350010
:1002A000463B016514750495018102750495018131
:1002B000030509190129101500250175019510552F
:1002C0000065008102C0C012011001000000088218
:1002D000820133010401020001120110010000003B
:1002E00008828201320104010200012403520065E8
:1002F00000740072006F0020004100640061007013
:100300000074006500720020004D006F006400FF63
:100310000206FF040305FF000107FFFFFF000201C3
:1003200004FF03FF0607FFFF050A034D006F004AA5
:10033000006F00040309040011241FBECFEFD4E0B6
:10034000DEBFCDBF11E0A0E0B1E0E6E8F6E202C01A
:1003500005900D92AA32B107D9F721E0AAE2B1E0E7
:1003600001C01D92A03BB207E1F70E9476060C94F3
:1003700034130C94000078946F936FB72F933F93CE
:100380004F935F9353B15C73452F447130916F016C
:10039000347120916E01403049F0403161F04431B8
:1003A00079F03030A1F0343181F012C0303179F081
:1003B000343059F00DC0343151F0303031F008C0D4
:1003C000343029F0303109F003C0239501C02A955B
:1003D00020936E01452F487230916F013872209141
:1003E0006D01403049F0403261F0483279F03030F0
:1003F000A1F0383281F012C0303279F0383059F043
:100400000DC0383251F0303031F008C0383029F0AA
:10041000303209F003C0239501C02A9520936D0165
:1004200050936F015F914F913F912F916FBF6F91EB
:1004300018950F931F93FF93EF93BF93AF93F92FEB
:10044000E82F09E00093710100E20093720100E0DF
:100450000093730101E00093740101E000937501C2
:1004600000E000937601009377010093780109E2A0
:100470000093790107D0BF91AF91EF91FF911F9148
:100480000F910895A1E0B1E709E02D980000000068
:1004900000002C980000000000002C9A00000000D2
:1004A0002C980000000000002C9A000000000000C2
:1004B0002C980000000000002C9A000000000000B2
:1004C0002C980000000000002C9A000000000000A2
:1004D00000002D9A1D9117FD2C9A17FF2C982D982E
:1004E000000000002C9A16FD2D9A16FF2D982C9ACC
:1004F000000000002D9A15FD2C9A15FF2C982D9ABE
:10050000000000002C9A14FD2D9A14FF2D982C9AAF
:10051000000000002D9A15FD2C9A15FF2C982D9A9D
:10052000000000002C9A14FD2D9A14FF2D982C9A8F
:10053000000000002D9A15FD2C9A15FF2C982D9A7D
:10054000000000002C9A14FD2D9A14FF2D982C9A6F
:10055000000000002D9A0A952D9A2C9A0895F92FE3
:10056000E82F21E030E0E20FF31F22273327442752
:100570005527662777278827992790E095D0B2D00E
:100580007ED0292F7CD0392F7AD0492F253021F0E9
:10059000293081F180E00895BFEFBA95F1F7B8EC0A
:1005A000BA95F1F791E080D09DD069D0292F67D01E
:1005B000392F65D0492F63D0592F4083518340E0B4
:1005C00050E027FD426026FD416025FD546024FD7A
:1005D00052602F7035FD406434FD406833FD486043
:1005E00032FD446031FD406130FD406245835683F9
:1005F000822F0895B4E6BA95F1F790E455D093E0D0
:1006000053D092E051D06ED03AD0292F38D0392F24
:1006100036D0492F34D0592F32D0692F30D0792F8E
:100620002ED0892F2CD04058505840835183605889
:1006300070586283738340E050E020FD426021FDEA
:10064000416022FD486023FD446024FD526034FD7A
:10065000546035FD406836FD4064803408F04064E5
:10066000903408F04068458356833F70232F3E7FC7
:1006700031FD31603D7F20FD3260832F089590E091
:10068000B4E1A8E0BA9579F01899FCCFB9E0BA9531
:10069000F1F7990F18999160B4E1BA9521F0189B80
:1006A000FCCFAA9579F70895A8E097FD0DC0209A90
:1006B000BDE0BA95F1F700002098B3E0BA95F1F7E4
:1006C000990FAA9591F70895209AB3E0BA95F1F79A
:1006D000000000002098BDE0BA95F1F7990FAA95A7
:1006E00021F70895209AB3E0BA95F1F700000000D1
:1006F000209808951AB889EF8BB914B88FE385B99B
:1007000017B888B90895CF93DF93C82FF894EEE413
:10071000F1E088E0DF011D928A95E9F78FEF85838C
:10072000C083E3E4F1E09BE0DF011D929A95E9F7D5
:100730008583C08395E0E4E2F1E0AEE3B1E00190AF
:100740000D929A95E1F7C0933E01EAE2F1E094E15F
:10075000DF011D929A95E9F78583C08310926601A7
:1007600086B1982F907285FD65C086B1D82FD07163
:1007700084FD4AC0E6B1EE71ED3008F094C0F0E0BF
:10078000EA5CFC4E0C942E138EE491E00E94CB0E9A
:1007900058C04AE251E063E471E08EE491E00E94C7
:1007A000A00D4FC08EE491E00E948F094AC08EE4F4
:1007B00091E00E94F20977C082E080936601D1E067
:1007C000C13009F070C08EE391E00E940E0762C054
:1007D0008EE491E00E943A0934C083B18670823081
:1007E00071F0863039F0811167C08EE491E00E948B
:1007F000830827C08EE491E00E94D30822C08EE4D3
:1008000091E00E940B0A1DC0339B07C0C23051F01B
:1008100081E080936601D92F46C08EE491E00E946A
:1008200020100FC08EE491E00E94E60B81E08093DF
:1008300066012BC0339932C06C2F8EE491E00E9488
:10084000540781E090916601923009F080E088239E
:10085000E1F081E0C23009F080E0D0E08823A9F027
:10086000EEE3F1E0AEE4B1E011968C911197818353
:1008700012968C911297828316968C911697838389
:1008800017968C918483D11105C0E8E6F0E0808151
:100890008E7F80837894DF91CF9108958EE491E0EC
:1008A0000E94B10AD0E089B18970E1F44C9B13C079
:1008B0008EE491E00E94320781E0909166019230CF
:1008C00009F080E08823F9F281E0C23009F080E08D
:1008D0008111C6CFD8CF6EE371E08EE491E00E9423
:1008E000300CEACF8EE491E00E943C0AE5CF809183
:1008F0006601823009F4B6C0B8F1833009F4E3C070
:10090000843009F097C089ED92E09093590180936B
:10091000580182E190E0909357018093560188E757
:1009200090E090936801809367018CE790E090934A
:100930006A018093690181E080935F018AE291E01E
:10094000909362018093610184E1809363018BEE57
:1009500092E0909365018093640184E290E090932B
:100960006C0180936B0166C08823A1F1813009F08E
:1009700061C089ED92E0909359018093580182E122
:1009800090E0909357018093560182EC91E0909310
:100990006801809367018EEA90E090936A018093EA
:1009A000690182E080935F018EE491E0909362019F
:1009B0008093610188E0809363018BEE92E09093D5
:1009C00065018093640184E290E090936C018093D0
:1009D0006B0130C089ED92E09093590180935801EA
:1009E00082E190E0909357018093560180E792E076
:1009F000909368018093670187E590E090936A0186
:100A00008093690181E080935F018EE491E090938F
:100A100062018093610188E0809363018BEE92E034
:100A2000909365018093640184E290E090936C015F
:100A300080936B018091690180931901F894519A18
:100A40008AB186608AB927E48CEA9BE02150804015
:100A50009040E1F700C0000051988AB1897F8AB9BF
:100A60007894089587EC92E090935901809358010F
:100A700082E190E0909357018093560184EF90E0DB
:100A8000909368018093670184E690E090936A01F7
:100A90008093690182E080935F018EE391E09093FF
:100AA00062018093610185E0809363018BEE92E0A7
:100AB000909365018093640184E290E090936C01CF
:100AC00080936B01B7CF89ED92E0909359018093A9
:100AD000580182E190E0909357018093560188E598
:100AE00091E090936801809367018AE690E090938B
:100AF0006A018093690181E080935F0183E491E062
:100B000090936201809361018BE0809363018BEE8F
:100B100092E0909365018093640184E290E0909369
:100B20006C0180936B0186CFFC01908190769032AE
:100B300011F080E008958181813031F0823079F0C8
:100B40008A30A9F080E0089580916101909162015E
:100B5000909395018093940180916301089580E6BC
:100B600091E0909395018093940181E008958381B1
:100B70008093600180E00895FC012181263011F00E
:100B800080E0089523812230F9F078F0233021F1BC
:100B9000223291F5809167019091680190939501BF
:100BA00080939401809169010895213059F48091D6
:100BB00058019091590190939501809394018091EF
:100BC0005601089580E0089580E091E090939501AA
:100BD0008093940182E208958281823011F080E056
:100BE000089580916401909165019093950180939F
:100BF000940180916B01089580E00895EF92FF9237
:100C00000F931F93CF93DF93EC01D801F7019881E5
:100C100090589883EB01888180588883EA01888105
:100C200080588883E9018881805888839C918081DD
:100C3000292F282B09F44BC01C92108290FF02C070
:100C400021E02C9391FF03C02C9122602C9392FF02
:100C500003C02C9128602C9393FF03C02C9120613A
:100C60002C9394FF03C020812160208395FF03C053
:100C700020812260208396FF03C02C9120642C9356
:100C8000992364F180FF03C090819460908381FF79
:100C900003C090819860908382FF03C0908190622E
:100CA000908383FF03C090819064908384FF03C08E
:100CB00090819061908385FF03C0908190689083BC
:100CC00086FF03C09C9194609C9388235CF0DF9125
:100CD000CF911F910F91FF90EF9008959C91906894
:100CE0009C93D0CF8C9180628C93F1CF0E947A0339
:100CF0000E94B2111092660181E00E9483030E945B
:100D00007704DD24DA94CC24C394C5E8D1E0B12C77
:100D10004FC00F2EF5E5EF2EF1E0FF2EF02D04E58C
:100D200011E022E531E041E551E060E571E08FE45A
:100D300091E00E94FE054EC00F2EF5E5EF2EF1E08A
:100D4000FF2EF02D04E511E022E531E041E551E010
:100D500060E571E08FE491E00E94FE053BC00F2E3C
:100D6000FAE4EF2EF1E0FF2EF02D09E411E027E484
:100D700031E046E451E065E471E084E491E00E94F2
:100D8000FE0528C00B2D8091610190916201612FB9
:100D9000800F911D0E946B10C39480915F018C1590
:100DA00010F4CC24C39480916601D81232C0D82E9E
:100DB0000E949510888184FFFBCF8C2D0E948303B5
:100DC00081E0D81609F4B8CFDD2009F4A2CF83E082
:100DD000D81629F2109163011930A0F2F12CE12C00
:100DE000809161019091620168E08E0D9F1D0E94CB
:100DF0006B1008E00E0D18500E949510888184FF3A
:100E0000FBCF112349F288E0E80EF11C193040F7BE
:100E1000BACF0E94770480916601C9CFFC0184B1EA
:100E2000817C84B985B18E6385B93898409A8CE30A
:100E300080936B0081E08093680080916E018283D3
:100E400080916D01838310926E0110926D0119994A
:100E500003C0818181608183309903C08181826078
:100E600081830895CF93DF93EC01289820985F98B1
:100E7000579A0E94AF02E82FF0E0E15FFC4FE49147
:100E8000ED838A8181958A838C8181958C83DF9122
:100E9000CF910895239824B1206324B925B1286304
:100EA00025B90E9419020895DC018AB18E7E8AB9A3
:100EB0008BB181618BB984B1886384B92198299AF7
:100EC00087B1807E87B988B18F6188B9489B35C06A
:100ED000229A85B1837C85B987E180937E00EAE719
:100EE000F0E085E0808384E680937C0080818068E8
:100EF0008083908196FDFDCF613031F1489B06C023
:100F000081E080936601623009F440C010927A005B
:100F100010927E00489B67C04C9903C0613009F471
:100F20005AC01999DCC0623009F0D9C016968C916C
:100F30001697816016968C930895229885B18C63DC
:100F400085B93898409AC8CFEAE7F0E0808180649C
:100F50008083808186FDFDCF909179008FE7891B8A
:100F600012968C93129782E680937C00EAE7F0E079
:100F7000808180648083808186FDFDCF909179009F
:100F80008FE7891B11968C931197B8CF81E68093D8
:100F90007C00EAE7F0E0808180648083808186FDC8
:100FA000FDCF909179008FE7891B11968C93119753
:100FB00080E680937C00EAE7F0E0808180648083B3
:100FC000808186FDFDCF909179008FE7891B129675
:100FD0008C9312979BCF16968C91169781601696DC
:100FE0008C9383B10895109266012B9885E08A95C1
:100FF000F1F7309907C016968C9116978260169675
:101000008C9316971A9907C016968C911697806143
:1010100016968C931697199907C016968C91169769
:10102000806816968C9316974C9907C017968C91EA
:101030001797846017968C9317972B9A2C9885E0B6
:101040008A95F1F7309907C016968C9116978460AF
:1010500016968C9316971A9907C016968C91169728
:10106000806216968C931697199907C017968C91E3
:101070001797816017968C9317974C9907C016960F
:101080008C911697816016968C9316972C9A2D98B2
:1010900085E08A95F1F7309907C016968C911697DE
:1010A000886016968C9316971A9907C016968C919D
:1010B0001697806416968C931697199907C0179601
:1010C0008C911797826017968C9317974C9906C04E
:1010D00017968C911797886017968C932D9A089580
:1010E00098E080E00AC05F9824E12A95F1F75F9AC2
:1010F00024E12A95F1F7915029F0880F189BF3CF3E
:101100008160F1CF0895CF93DF93EC018BB1886FAD
:101110008BB958988AB1896C8AB98AB18F7C8AB99F
:101120002098289A5E980E947008982F907F90349B
:1011300099F580FF02C090E8998381FF02C09FE784
:10114000998382FF02C090E89A8383FF02C08FE7F1
:101150008A830E94700881FF03C09E8190649E83F1
:1011600082FF03C09E8190689E8383FF03C09F819E
:1011700091609F8384FF03C09F8192609F8385FF5E
:1011800003C09E8194609E8386FF03C09E8192600F
:101190009E83882324F05E9ADF91CF9108958E81FB
:1011A00081608E83F8CFFC019AB196709AB99BB199
:1011B000996F9BB994B1907C94B995B19F6395B99F
:1011C00099B191704B99926080915C018917F1F10E
:1011D0009130F1F0992391F0923071F1933011F147
:1011E00090935C0183E080935B01818180935A013D
:1011F0004E9903C08681816086830895813029F0ED
:10120000823071F780E88183EBCF8FE78183E8CF6D
:10121000833029F08111E4CF80E88183E1CF8FE72B
:101220008183DECF823029F08130D1F680E881835E
:10123000D7CF8FE78183D4CF811103C08FE781831C
:10124000CFCF833069F680E88183CACF80915B017C
:10125000882371F2815080935B0180915A018183D0
:10126000C7CF5C9889E191E00197F1F789B15C9A69
:1012700081700895CF93DF93EC0184B1837C84B9AE
:10128000219A85B18E6385B95098549A8BB181614A
:101290008BB929981D9902C080E88A831C9902C0E5
:1012A0008FE78A831B9902C080E889831A9902C05C
:1012B0008FE789830E943109811103C08E8182608A
:1012C0008E830E943109811103C08E8181608E83DB
:1012D0000E943109811103C08E8188608E830E9433
:1012E0003109811103C08E8184608E830E9431098F
:1012F000811103C08E8180688E830E943109811123
:1013000003C08E8180648E830E943109811103C0E5
:101310008F8181608F83299ADF91CF910895FC019D
:1013200084B1837C84B9219A85B18E6385B9549A3E
:101330005C9892E030E82FE71BC02998000000007D
:101340001D9903C08681846086831C9903C08681B1
:10135000886086831B9903C08681806486831A997E
:1013600003C08681806886835C9A299A915031F106
:101370005C980000000083B18C73F9F21D9B3283EE
:101380001C9B21831B9B22831A9B3183299800007D
:1013900000001D9903C08681826086831C9903C06A
:1013A0008681816086831B9903C0878181608783E2
:1013B0001A99DACF878182608783D6CF089598E023
:1013C00080E006C02A9A24E62A95F1F7915049F068
:1013D0002A9824E62A95F1F786951D9BF3CF80681D
:1013E000F1CF0895CF93DF93EC0185B18C7E85B961
:1013F00085B1846285B9259884B18C6184B92B9AB2
:101400008AEF8A95F1F70E94DF092B988AEA8F8389
:10141000DF91CF910895FC019AB196709AB99BB172
:10142000996F9BB92098289A4E9903C08681816054
:1014300086839BEF189B03C09150E1F71CC099B1C4
:10144000292F2095217093FF226094FF246095FF3F
:1014500028609BEF189903C09150E1F70CC099B137
:1014600090FF206193FF206294FF206495FF206825
:101470009FE7921B91830895FC018AB186788AB90F
:10148000579A5F988BB189678BB92098289A86E420
:101490008A95F1F789B1807379F44E9903C08681FA
:1014A0008160868393B1892F817090FD06C087810A
:1014B0008260878381E001C080E05F9A96E49A951C
:1014C000F1F7489902C090E892834B9902C09FE7D8
:1014D00092834C9902C090E891834D9902C09FE796
:1014E000918381110CC04E9903C0868181608683EF
:1014F000189903C08681826086835F9A08954E9909
:1015000003C0868182608683189903C086818460C7
:1015100086835F9886E48A95F1F75F9A96E49A95B8
:10152000F1F75F9886E48A95F1F789B1897329F715
:101530005F9A96E49A95F1F7489903C0868180688E
:1015400086834B9903C08681806486834C9903C04F
:101550008681886086834D99D0CF8781816087831B
:10156000CCCFFC0184B1817C84B985B18E6385B90F
:1015700087B1807C87B988B18F6388B98AB18E7E44
:101580008AB98BB181618BB91D9903C08781816054
:1015900087831C9903C08681886086831B9903C05A
:1015A0008681826086831A9902C08FE781831999A8
:1015B00002C08FE78283329903C08781826087836C
:1015C000319903C0868184608683309903C0868107
:1015D000816086830895FC0186E48A95F1F783B1E2
:1015E0008C7061F4199903C086818160868331997A
:1015F00027C087818260878381E001C080E0429AB2
:1016000096E49A95F1F71D9902C090E892831C998F
:1016100002C09FE792831B9902C090E891831A99B8
:1016200002C09FE7918381110DC0199903C0868183
:1016300081608683319937C0868182608683089570
:1016400081E0DDCF199903C086818260868331995C
:1016500003C0868184608683429886E48A95F1F788
:10166000429A96E49A95F1F7429886E48A95F1F7C2
:1016700083B18C73C1F4429A96E49A95F1F71D995F
:1016800003C08681806886831C9903C0868180643C
:1016900086831B9903C08681886086831A9903C05C
:1016A000878181608783089583B1419898E79A95EF
:1016B000F1F7419A98E79A95F1F782FB882780F92C
:1016C00091E089270895CF93DF93EC0122982A9A1D
:1016D0003A9A429A399A419A80EF8A95F1F742985C
:1016E00088E78A95F1F70E94540B882319F08E81C0
:1016F00082608E830E94540B882319F08E81816052
:101700008E830E94540B882319F08F8181608F8310
:101710000E94540B882319F08F8182608F830E946E
:10172000540B882311F080E88A830E94540B88238D
:1017300011F08FE78A830E94540B882311F080E810
:1017400089830E94540B882311F08FE789830E94BC
:10175000540B882319F08E8184608E830E94540B71
:10176000882319F08E8188608E830E94540B882311
:1017700019F08E8180648E830E94540B882319F0A7
:101780008E8180688E830E94540B882331F08E8175
:1017900083708E83DF91CF9108958E81982F907FF3
:1017A00080FD11C09E8381FF03C09E8191609E8356
:1017B00082FF03C09E8192609E8383FFEBCF8E8168
:1017C00088608E83E7CF94609E83EDCF9C0194B1B7
:1017D000917C94B995B19E6395B93A9A3998419A9A
:1017E000429893B1987321F4C9010E94630B089544
:1017F000C9010E94EB0A0895982F969569F027E099
:10180000392F3170880F832B21509695C9F701C06D
:10181000880F2A95EAF7089527E0F9CF89B128982B
:1018200098E79A95F1F7289A98E79A95F1F785FB4A
:10183000882780F991E08927089598E080E00AC020
:10184000289828E72A95F1F7289A28E72A95F1F7AA
:10185000915029F086954D99F3CF8068F1CF089586
:10186000CF92DF92FF920F931F93CF93DF938C0160
:101870006B0155985D9A579A5F9A209A289A80EF43
:101880008A95F1F75F98A8E7AA95F1F70E941D0CD9
:10189000C82F0E941D0CD82F0E941D0CF82ECC239F
:1018A0000CF461C0C6FF04C080E8D80111968C9387
:1018B000C5FF03C08FE7F8018283C4FF04C080E83E
:1018C000D80112968C934C2F4870C3FF04C0F801C6
:1018D0008781826087839C2F9470C2FF07C0D801E4
:1018E00017968C911797816017968C938F2D8F7018
:1018F0008830E9F18D2F807C803C09F482C08D2FE7
:10190000807F09F0CCC010925D01C1FF07C0D801F3
:1019100016968C911697846016968C93C0FF04C01F
:10192000F801868181608683D0FF07C0D8011696B2
:101930008C911697826016968C93D1FF04C0F801A3
:10194000868188608683D2FF07C0D80116968C9165
:101950001697806416968C93D3FFA5C0F8018681F4
:1019600080688683A0C08FE7F80181839BCFEC2F2E
:10197000E295EF70F0E0E859FF4FE491D801159639
:10198000EC932D2F2095822F8F7023FD8051819510
:10199000880F880FF80182832D2F30E02095309535
:1019A000359527953595279535952795359527951F
:1019B000822F8F7023FD80518195880F880FD80169
:1019C00011968C931197442331F017968C911797A9
:1019D000826017968C93992321F0F80187818160AA
:1019E0008783C1FF07C0D80116968C911697816036
:1019F00016968C93C0FF57C0F8018681826086835B
:101A000052C0DF3FC1F181E080935D01C0FF04C09F
:101A10008FE7D80114968C93C1FF03C080E8F801CA
:101A20008383D0FF04C08FE7D80113968C93D1FF36
:101A300003C080E8F8018483D2FF07C0D80116965E
:101A40008C911697806416968C93D3FF04C0F8018E
:101A5000868180688683D4FF07C0D80116968C9152
:101A60001697816016968C93D5FF1DC0F80186816C
:101A70008260868318C080915D018111C7CFC1FF4C
:101A800007C0D80116968C911697816016968C9394
:101A9000C0FF09C0F80186818260868304C0803857
:101AA00051F010925D01DF91CF911F910F91FF9046
:101AB000DF90CF90089582E0809366018F2D0E9481
:101AC000FC0B8F77F0FC8195D60113968C930E94C6
:101AD0001D0CC82F0E94FC0B8F77C0FD8195F6016D
:101AE0008283D1FF03C0818181608183D0FFDBCFFE
:101AF000D60111968C911197826011968C93D3CF59
:101B0000282F3FE03A95F1F798E080E007C02C9845
:101B100009C03CE33A95F1F7915071F02A9820FF03
:101B2000F6CF2C9A26953CE33A95F1F786952A9ABA
:101B30001D9BEFCF8068EDCF9FE09A95F1F7089558
:101B4000EF92FF920F931F93CF93DF93EC017B01F2
:101B500084B18D7D84B984B18C6184B985B18E6383
:101B600085B92B988FE08A95F1F781E00E94800D6E
:101B700082E40E94800D182F082F0F7D81E0113420
:101B800009F080E0811114C081E0033509F080E0A4
:101B900081110EC0133209F48AC02B9AFFE0FA9526
:101BA000F1F7DF91CF911F910F91FF90EF90089582
:101BB0008FEF0E94800D8FEF0E94800D80FD03C08B
:101BC0009F8191609F8383FD03C09F8192609F836B
:101BD000113409F446C0133709F454C08FEF0E9442
:101BE000800D80FD03C09E8190619E8381FD03C0B6
:101BF0009E8190629E8382FD03C09E8190649E833D
:101C000083FD03C09E8190689E8384FD03C09E81F6
:101C100098609E8385FD03C09E8192609E8386FDB1
:101C200003C09E8191609E8388231CF08E81846016
:101C30008E83033509F0AECF8FEF0E94800D805860
:101C40008B838FEF0E94800D80588C838FEF0E94D2
:101C5000800D805889838FEF0E94800D80588A8381
:101C600099CF84FD02C090E89A8386FD02C09FE769
:101C70009A83882314F090E8998385FDAFCF8FE78E
:101C80008983ACCF81FD03C09F8194609F8382FDD7
:101C900003C09F8198609F8382958F70EFE08E27AD
:101CA000E82FF0E0E45EFC4FE491ED8397CF83E012
:101CB000809366018FEF0E94800D8FEF0E94800D50
:101CC00083FD07C0D70117969C91179792601796CE
:101CD0009C9382958F70EFE08E27E82FF0E0E45E12
:101CE000FC4FE491D7011596EC938FEF0E94800D85
:101CF00083FD04C0F70196819068968384FD07C038
:101D0000D70116969C911697926016969C9385FD26
:101D100004C0F7018681816086838FEF0E94800D69
:101D20008058D70111968C938FEF0E94800DF70198
:101D300082878FEF0E94800DD70119968C938FEFC9
:101D40000E94800DF701808728CF0F931F93CF93B8
:101D5000DF932B98662351F0EC018C01060F111DC7
:101D600089910E94800DC017D107D1F72B9A8FE07F
:101D70008A95F1F7DF91CF911F910F91089588EC2B
:101D8000199B02C08150E1F7089588EC199902C0AF
:101D90008150E1F70895FF920F931F93CF93DF9344
:101DA000EC0184B18D7C84B984B18C6084B985B137
:101DB0008E6385B98AB18E7E8AB98BB181618BB908
:101DC0008AE08A95F1F789B1182F117080FF4FC012
:101DD0004C9903C08E8180618E832B988AE08A950E
:101DE000F1F71C9902C080E88A831D9902C08FE731
:101DF0008A83489902C080E889834C9902C08FE7A2
:101E0000898385B1837F886085B98AE08A95F1F7F7
:101E10001C9903C08E8182608E831D9903C08E81C0
:101E200084608E83489903C08E8181608E834C9933
:101E300003C08F8182608F8385B1837F85B98AE0FB
:101E40008A95F1F71C9903C08E8180628E831D995B
:101E500003C08E8180618E83489903C08E81886023
:101E60008E834C9906C08E8180688E8302C01C9937
:101E700006C0DF91CF911F910F91FF9008952B988D
:101E80002A980E94BF0E83B18071F82E2A9A0E9470
:101E9000C50E2A980E94BF0EF11011C01C9902C0F5
:101EA00080E88A831D9902C08FE78A83489902C01F
:101EB00080E889834C9913C08FE7898310C0E3B110
:101EC000E295E17081E0E8271D9BE260489BE460B9
:101ED0004C9BE860F0E0E859FF4FE491ED832A9ACB
:101EE0000E94C50E1C9903C08E8182608E831D994D
:101EF00003C08E8184608E83489903C08E81816087
:101F00008E834C9903C08F8182608F832A980E94B0
:101F1000BF0E1C9903C08E8180688E831D9903C0FB
:101F20008E8180648E83489903C08E8188608E8301
:101F30004C9903C08E8180628E832A9A0E94C50EBE
:101F40004C9903C08E8180618E832A980E94BF0EB7
:101F50001C9962C000E11D9B0062489B00644C9B81
:101F600000682A9A0E94C50E1C9B01601D9B02609E
:101F7000489B04604C9B0860F11050C02A980E9456
:101F8000BF0E1C994FC000E11D9B0062489B00647E
:101F90004C9B00682A9A0E94C50E1C9B01601D9BE9
:101FA0000260489B04604C9B0860F1103DC02A9879
:101FB0000E94BF0E1C993CC000E11D9B0062489B23
:101FC00000644C9B00682A9A0E94C50E1C9B01600D
:101FD0001D9B0260489B04604C9B0860F1102AC066
:101FE0002A980E94BF0E1C9B10E11D9B1062489B0B
:101FF00010644C9B10682A9A0E94C50E1C9B1160AD
:102000001D9B1260489B14604C9B1860F11015C01A
:1020100085B18C6085B92DCF012F9DCF8FE7801BB7
:102020008983ACCF012FB0CF8FE7801B8A83BFCFCE
:10203000012FC3CF00580C83D3CF10581B83E8CF98
:10204000FC0184B1817C84B985B18E6385B987B187
:10205000827C87B9399A88B18F6388B94198419A4F
:1020600090E803C09F5F9F3769F08FE08A95F1F792
:102070001D9991831C9992831B9993831A9BF2CF8C
:102080009483F0CF81818E37F1F082818E37E9F031
:1020900083818E37E1F084818E37D9F0309903C087
:1020A000868181608683199903C0868182608683D8
:1020B0004C9903C0868184608683489903C08681D9
:1020C0008860868308951182E0CF1282E1CF138267
:1020D000E2CF1482E3CFCF93C62F2091850124FF56
:1020E00020C0E5E8F1E0218138E8232721832FEFA4
:1020F0002C0F30E02F5F3F4F280F391FE7E8F1E04A
:10210000DC014D91CD014193A217B307C9F76C2FA4
:1021100087E891E00E94D411CC5FC0938501CF91F4
:1021200008952AE520938501E2CF1F93CF93DF9393
:10213000809196018350D2F48091230184FF05C0E1
:10214000809122018F3F09F0C0C089B1867051F49F
:1021500093E189B1867031F49150D9F710929701CB
:1021600010929101DF91CF911F910895909192016A
:102170009D3219F010929601DFCF8830D9F7809107
:102180009301CCE0D0E0C81BD109C656DE4F83ECEA
:1021900080937A018AE58093230110925E01188171
:1021A000107671F0CE010E949405182F8F81811155
:1021B00004C08E81811708F4182F10932201DACF02
:1021C0009A8110928301898181110AC01092840141
:1021D00083E891E012E09093950180939401E6CF1B
:1021E000853089F08630A1F0883009F466C08930E6
:1021F00009F458C08A3009F464C08B3009F457C020
:1022000083E891E0E8CF9093970183E891E0E3CFF2
:102210008B81813061F0823081F08330A1F0813296
:1022200091F190E48232C1F190935E01BFCFCE0173
:102230000E94BC05182F90E4F7CFCE010E94BC0588
:10224000912F182FF1CF992331F0913069F092300E
:10225000A1F090E4E9CF83E393E09093950180931C
:10226000940190E414E0E0CF89E293E0909395012B
:102270008093940190E41AE0D7CFCE010E94BC0570
:10228000182F90E4D1CF82E191E090939501809353
:10229000940190E419E0C8CFCE010E94BC05182F2C
:1022A00090E4C2CF9093990183E891E094CF8BE4BE
:1022B0008093860183E891E08ECF89E991E011E077
:1022C0008ACF83E891E011E086CFC82F893008F0EB
:1022D000C8E0982F9C1B90932201EAE7F1E09081DF
:1022E00028E892279083882399F1E0919401F09156
:1022F000950180915E0186FF1DC08FEF8C0F90E0ED
:1023000001968E0F9F1FABE7B1E024912D9331967C
:10231000E817F907D1F790939501809394016C2FFA
:102320008BE791E00E94D411CC5FCC30B8F0C09321
:1023300023010BCFABE7B1E08FEF8C0F90E001965C
:102340008E0F9F1F21912D93E817F907D9F7E3CF3F
:102350006C2F8BE791E00E94D411CC5F8FEF8093BC
:102360002201E5CFE9E6F0E0808182608083E89A8F
:10237000E5E8F1E08BE481838AE580830895A82F66
:10238000B92F80E090E041E050EA609530E009C06C
:102390002D9182279795879510F084279527305E99
:1023A000C8F36F5FA8F30895EADF8D939D930895B6
:1023B000CF93CFB7CF93C395499BE9F7499B0BC008
:1023C000499B09C0499B07C0499B05C0499B03C065
:1023D000499B01C0C2C0C0919301DF93DD27C6565F
:1023E000DE4F2F932FEF499B03C02F91DF91E6CF54
:1023F0000F931F934F936F9309B101FB20F93F9304
:102400003BE05F931EC04E7F012F19B11670E1F0C3
:10241000216000001DC0102F4D7F2260000009B117
:10242000067091F01DC04B7F2460012F000019B190
:10243000167051F01EC019B1167031F0477F286038
:102440001BC019B1167009F462C04FEF297FD9F291
:10245000012701FB21F909B10670B1F3237FD9F2FD
:10246000102711FB22F900C019B1167069F3277EFD
:10247000D1F2012701FB23F92F7CE9F209B10670A3
:1024800019F3102711FB24F92F7929F100C019B194
:102490001670E9F1012701FB25F92F7311F100C036
:1024A00009B10670A1F1102711FB26F92230F8F0CE
:1024B00000C019B1167059F1012701FB27F924302A
:1024C000E0F04227000009B14993102711FB20F9E1
:1024D0003150C8F0B6CF4F7E09B10670C1F020610F
:1024E000D3CF206219B1167091F04F7DD6CF4F7BBC
:1024F00009B1067061F02064D9CF4F7719B1167019
:1025000031F02068DCCF11E01CBB002719C03B5024
:102510003195C31BD04011E01CBB0881033C09F17D
:102520000B34F9F0209191011981110F1213EDCFA5
:102530004A81441F093651F10D3211F0013E29F74D
:10254000009398015F913F916F914F911F910F916F
:102550002F91DF91CCB3C0FD2ECFCF91CFBFCF91C4
:10256000189520919801222369F310919601112367
:1025700089F534308AF130939601209392011091BD
:1025800093013BE0311B3093930126C000919601EB
:10259000013004F50AE54F7049F43091230134FD10
:1025A0001CC000932301CAE7D1E01BC03091850114
:1025B00034FD13C000938501C6E8D1E012C00527A1
:1025C0001127000019C0052711271FC00527112753
:1025D000000024C04AE502C032ED432FC4E1D0E040
:1025E00032E01AB11660599A0BB11AB956E020E8D8
:1025F00066E020FF052727950BB917951C3FF8F6D5
:102600006A95B9F720FF0527279500000BB91795A4
:102610001C3FC8F620FF05272795179566E01C3F4D
:102620000BB9A0F629913A9521F7097F10919701EE
:10263000110F0BB9C651D04011F01093910111E068
:102640001CBB02601AB1197F402F497F53E05A9595
:10265000F1F700C00BB91AB94BB974CFEE0FFF1FD9
:102660000590F491E02D0994F894FFCFC40353042E
:10267000C9035304D7035304D2035304ED03530493
:06268000E8035304DC0333
:102686000902220001010080FA090400000103008A
:1026960000000921010100012257000705810308F6
:0A26A6000004FF5A000000000000CD
:00000001FF
