:100000000C949C010C94F0110C94B9010C94BB015C
:100010000C94B9010C94B9010C94B9010C94B90178
:100020000C94B9010C94B9010C94B9010C94B90168
:100030000C94B9010C94B9010C94B9010C94B90158
:100040000C94B9010C94B9010C94B9010C94B90148
:100050000C94B9010C94B9010C94B9010C94B90138
:100060000C94B9010C94B901FF0206FF040305FFCB
:10007000000107FFFFFF00020104FF03FF0607FF67
:10008000FF05FF0004FF060705FF020103FFFFFF56
:10009000FFFF05010905A1018501A1000930093112
:1000A000150026FF007508950281020932093515F1
:1000B0000026FF0075089502810209391500250701
:1000C0003500463B01651475049501810275049560
:1000D00001810305091901291015002501750195F4
:1000E00010550065008102050109360936093609F7
:1000F0003609360936093609360936093609360908
:1001000036150026FF00750895018102C0C0050163
:100110000902A10185010901A100050919012903AD
:10012000150025019504750181029501750481036F
:1001300005010930093109381580257F75089503B7
:100140008106C0C00904A10185020901A10009308E
:1001500009311580257F750895028102C0050919AE
:1001600001291015002501750195105500650081C4
:1001700002C005010905A1018501A100093009316D
:10018000150026FF00750895028102093209351510
:100190000026FF0075089502810209391500250720
:1001A0003500463B0165147504950181027504957F
:1001B0000181030509190129101500250175019513
:1001C00010550065008102050209C509C409BB1567
:1001D0000026FF00750895038102C0C005010905CE
:1001E000A1018501A10009300931150026FF007524
:1001F000089502810209320935150026FF007508AD
:10020000950281020939150025073500463B016535
:10021000147504950181027504950181030509197E
:100220000129101500250175019510550065008103
:1002300002C0C005010905A1018502A1000930091C
:1002400031150026FF007508950281020932093533
:10025000150026FF00750895028102093915002551
:10026000073500463B01651475049501810275044C
:100270009501810305091901291015002501750152
:100280009510550065008102C0C005010905A10156
:100290008501A10009300931150026FF0075089578
:1002A00002810209320935150026FF007508950202
:1002B00081020939150025073500463B0165147593
:1002C000049501810275049501810305091901292D
:1002D000101500250175019510550065008102C0BB
:1002E000C0120110010000000882820133010401E4
:1002F0000200011201100100000008828201320197
:100300000401020001240352006500740072006FB2
:1003100000200041006400610070007400650072FC
:100320000020004D006F0064000A034D006F004A7A
:10033000006F00040309040011241FBECFEFD4E0B6
:10034000DEBFCDBF11E0A0E0B1E0ECE4F6E202C018
:1003500005900D92AA32B107D9F721E0AAE2B1E0E7
:1003600001C01D92A03BB207E1F70E94330F0C942D
:1003700017130C94000078946F936FB72F933F93EB
:100380004F935F9353B15C73452F4471309161017A
:10039000347120916001403049F0403161F04431C6
:1003A00079F03030A1F0343181F012C0303179F081
:1003B000343059F00DC0343151F0303031F008C0D4
:1003C000343029F0303109F003C0239501C02A955B
:1003D00020936001452F487230916101387220915D
:1003E0005F01403049F0403261F0483279F03030FE
:1003F000A1F0383281F012C0303279F0383059F043
:100400000DC0383251F0303031F008C0383029F0AA
:10041000303209F003C0239501C02A9520935F0173
:10042000509361015F914F913F912F916FBF6F91F9
:1004300018950F931F93FF93EF93BF93AF93F92FEB
:10044000E82F09E00093630100E20093640100E0FB
:100450000093650101E00093660101E000936701EC
:1004600000E0009368010093690100936A0109E2CA
:1004700000936B0107D0BF91AF91EF91FF911F9156
:100480000F910895A1E0B3E609E02D980000000067
:1004900000002C980000000000002C9A00000000D2
:1004A0002C980000000000002C9A000000000000C2
:1004B0002C980000000000002C9A000000000000B2
:1004C0002C980000000000002C9A000000000000A2
:1004D00000002D9A1D9117FD2C9A17FF2C982D982E
:1004E000000000002C9A16FD2D9A16FF2D982C9ACC
:1004F000000000002D9A15FD2C9A15FF2C982D9ABE
:10050000000000002C9A14FD2D9A14FF2D982C9AAF
:10051000000000002D9A15FD2C9A15FF2C982D9A9D
:10052000000000002C9A14FD2D9A14FF2D982C9A8F
:10053000000000002D9A15FD2C9A15FF2C982D9A7D
:10054000000000002C9A14FD2D9A14FF2D982C9A6F
:10055000000000002D9A0A952D9A2C9A0895F92FE3
:10056000E82F21E030E0E20FF31F22273327442752
:100570005527662777278827992790E095D0B2D00E
:100580007ED0292F7CD0392F7AD0492F253021F0E9
:10059000293081F180E00895BFEFBA95F1F7B8EC0A
:1005A000BA95F1F791E080D09DD069D0292F67D01E
:1005B000392F65D0492F63D0592F4083518340E0B4
:1005C00050E027FD426026FD416025FD546024FD7A
:1005D00052602F7035FD406434FD406833FD486043
:1005E00032FD446031FD406130FD406245835683F9
:1005F000822F0895B4E6BA95F1F790E455D093E0D0
:1006000053D092E051D06ED03AD0292F38D0392F24
:1006100036D0492F34D0592F32D0692F30D0792F8E
:100620002ED0892F2CD04058505840835183605889
:1006300070586283738340E050E020FD426021FDEA
:10064000416022FD486023FD446024FD526034FD7A
:10065000546035FD406836FD4064803408F04064E5
:10066000903408F04068458356833F70232F3E7FC7
:1006700031FD31603D7F20FD3260832F089590E091
:10068000B4E1A8E0BA9579F01899FCCFB9E0BA9531
:10069000F1F7990F18999160B4E1BA9521F0189B80
:1006A000FCCFAA9579F70895A8E097FD0DC0209A90
:1006B000BDE0BA95F1F700002098B3E0BA95F1F7E4
:1006C000990FAA9591F70895209AB3E0BA95F1F79A
:1006D000000000002098BDE0BA95F1F7990FAA95A7
:1006E00021F70895209AB3E0BA95F1F700000000D1
:1006F00020980895E82FF92F84B1817C84B985B1C1
:100700008E6385B93898409A8CE380936B0081E0C2
:100710008093680080916001828380915F01838370
:100720001092600110925F01199903C0818181606C
:100730008183309903C08181826081830895CF9342
:10074000DF93C82FD92F289820985F98579ACE0109
:100750000E94AF02E82FF0E0E859FF4FE491ED83EB
:100760008A8181958A838C8181958C83DF91CF9159
:1007700008959C01239894B1906394B995B19863BE
:1007800095B9C9010E9419020895E82FF92F8AB17D
:100790008E7E8AB98BB181618BB984B1886384B94B
:1007A0002198299A87B1807E87B988B18F6188B9ED
:1007B000489B31C0229A85B1837C85B987E18093BB
:1007C0007E00AAE7B0E085E08C9384E680937C000D
:1007D0008C9180688C938C9186FDFDCF613011F1F6
:1007E000489B05C081E0809373016230C9F110928B
:1007F0007A0010927E00489B59C04C9903C061302A
:1008000009F44FC01999A2C0623009F09FC08681D7
:10081000816086830895229885B18C6385B9389864
:10082000409ACCCFAAE7B0E08C9180648C938C91F5
:1008300086FDFDCF909179008FE7891B828382E648
:1008400080937C00AAE7B0E08C9180648C938C91BB
:1008500086FDFDCF909179008FE7891B8183C0CF02
:1008600081E680937C00AAE7B0E08C9180648C9351
:100870008C9186FDFDCF909179008FE7891B818354
:1008800080E680937C00AAE7B0E08C9180648C9332
:100890008C9186FDFDCF909179008FE7891B828333
:1008A000A6CF86818160868383B1089510927301FB
:1008B0002B9885E08A95F1F70000309903C0868176
:1008C000826086831A9903C0868180618683199924
:1008D00003C08681806886834C9903C087818460C9
:1008E00087832B9A2C9885E08A95F1F70000309940
:1008F00003C08681846086831A9903C086818062E2
:100900008683199903C08781816087834C9903C0CE
:100910008681816086832C9A2D9885E08A95F1F7EF
:100920000000309903C08681886086831A9903C0CD
:10093000868180648683199903C08781826087835A
:100940004C9903C08781886087832D9A089598E029
:1009500080E00CC05F9825E12A95F1F700005F9ACE
:1009600025E12A95F1F70000915029F0880F189B96
:10097000F1CF8160EFCF0895CF93DF93C82FD92FA8
:100980008BB1886F8BB958988AB1896C8AB98AB152
:100990008F7C8AB92098289A5E980E94A704982F85
:1009A000907F903499F580FF02C090E8998381FF91
:1009B00002C09FE7998382FF02C090E89A8383FF79
:1009C00002C08FE78A830E94A70481FF03C09E8133
:1009D00090649E8382FF03C09E8190689E8383FF04
:1009E00003C09F8191609F8384FF03C09F819260B9
:1009F0009F8385FF03C09E8194609E8386FF03C012
:100A00009E8192609E83882324F05E9ADF91CF912D
:100A100008958E8181608E83F8CFE82FF92F8AB1F7
:100A200086708AB98BB1896F8BB984B1807C84B9A7
:100A300085B18F6385B989B181704B9B34C0826069
:100A400090912C01981721F18230C1F080F1923001
:100A500091F09130B1F590E8918333C0913029F055
:100A6000923079F590E891832CC09FE7918329C05B
:100A70009FE7918326C09FE7918323C0911103C014
:100A80009FE791831EC09330E1F490E8918319C0F1
:100A900080912B018823E9F0815080932B01809174
:100AA0002A01818316C090912C01981789F388231D
:100AB000A9F2813031F49330D9F2911102C090E85B
:100AC000918380932C0183E080932B01818180931B
:100AD0002A014E9904C08681816086830895089515
:100AE0005C988BE291E00197F1F700C0000089B1BA
:100AF0005C9A81700895CF93DF93C82FD92F84B16A
:100B0000837C84B9219A85B18E6385B95098549AB3
:100B10008BB181618BB929981D9902C080E88A83C5
:100B20001C9902C08FE78A831B9902C080E88983E1
:100B30001A9902C08FE789830E947005811103C052
:100B40008E8182608E830E947005811103C08E8128
:100B500081608E830E947005811103C08E81886040
:100B60008E830E947005811103C08E8184608E8304
:100B70000E947005811103C08E8180688E830E945F
:100B80007005811103C08E8180648E830E94700580
:100B9000811103C08F8181608F83299ADF91CF916A
:100BA0000895E82FF92F84B1837C84B9219A85B107
:100BB0008E6385B9549A5C9892E030E82FE71BC0A9
:100BC0002998000000001D9903C0868184608683F7
:100BD0001C9903C08681886086831B9903C0868127
:100BE000806486831A9903C08681806886835C9AB4
:100BF000299A915031F15C980000000083B18C7308
:100C0000F9F21D9B32831C9B21831B9B22831A9B21
:100C100031832998000000001D9903C086818260FD
:100C200086831C9903C08681816086831B9903C0DB
:100C30008781816087831A99DACF87818260878371
:100C4000D6CF089598E080E007C02A9A2AE62A9530
:100C5000F1F700C0915051F02A982AE62A95F1F751
:100C600000C086951D9BF1CF8068EFCF0895CF938C
:100C7000DF93C82FD92F85B18C7E85B985B1846269
:100C800085B9259884B18C6184B92B9A87EC90E062
:100C90000197F1F700C000000E9422062B988AEA13
:100CA0008F83DF91CF910895E82FF92F8AB1867055
:100CB0008AB98BB1896F8BB92098289A4E9903C055
:100CC0008681816086838BEF189B03C08150E1F79A
:100CD0001CC089B1982F9095917083FF926084FF1A
:100CE000946085FF98608BEF189903C08150E1F7FD
:100CF0000CC089B180FF906183FF906284FF906493
:100D000085FF90688FE7891B81830895E82FF92F6D
:100D10008AE48A95F1F700C083B18C7061F4199967
:100D200003C0868181608683319928C08781826073
:100D3000878381E001C080E0429A9AE49A95F1F7B6
:100D400000C01D9902C090E892831C9902C09FE7E1
:100D500092831B9902C090E891831A9902C09FE781
:100D6000918381110DC0199903C0868181608683AA
:100D700031993BC0868182608683089581E0DCCF13
:100D8000199903C0868182608683319903C0868168
:100D90008460868342988AE48A95F1F700C0429A7B
:100DA0009AE49A95F1F700C042988AE48A95F1F79F
:100DB00000C083B18C73C9F4429A9AE49A95F1F712
:100DC00000C01D9903C08681806886831C9903C07A
:100DD0008681806486831B9903C0868188608683B0
:100DE0001A9903C0878181608783089583B14198F0
:100DF00090E89A95F1F7419A90E89A95F1F782FB7D
:100E0000882780F991E089270895CF93DF93C82F31
:100E1000D92F22982A9A3A9A429A399A419A8FEB74
:100E200090E00197F1F700C00000429890E89A9591
:100E3000F1F70E94F606882319F08E8182608E8376
:100E40000E94F606882319F08E8181608E830E94AD
:100E5000F606882319F08F8181608F830E94F60641
:100E6000882319F08F8182608F830E94F606882381
:100E700011F080E88A830E94F606882311F08FE73C
:100E80008A830E94F606882311F080E889830E94F5
:100E9000F606882311F08FE789830E94F6068823DF
:100EA00019F08E8184608E830E94F606882319F0E3
:100EB0008E8188608E830E94F606882319F08E81C9
:100EC00080648E830E94F606882319F08E818068E4
:100ED0008E830E94F606882331F08E8183708E8384
:100EE000DF91CF9108958E81982F907F80FD11C062
:100EF0009E8381FF03C09E8191609E8382FF03C019
:100F00009E8192609E8383FFEBCF8E8188608E836B
:100F1000E7CF94609E83EDCF24B1217C24B925B125
:100F20002E6325B93A9A3998419A429823B1287389
:100F300019F40E94050708950E9486060895982FC7
:100F4000969569F027E0392F3170880F832B215057
:100F50009695C9F701C0880F2A95EAF7089527E00A
:100F6000F9CF89B1289890E89A95F1F7289A90E8F6
:100F70009A95F1F785FB882780F991E089270895F4
:100F800098E080E00AC0289820E82A95F1F7289A8E
:100F900020E82A95F1F7915029F086954D99F3CFE5
:100FA0008068F1CF0895DF92EF92FF920F931F9325
:100FB000CF93DF93082F192FE62EF72E55985D9AC1
:100FC000579A5F9A209A289A8FEB90E00197F1F751
:100FD00000C000005F9890E89A95F1F70E94C00762
:100FE000C82F0E94C007D82E0E94C007D82FCC233C
:100FF0000CF461C0C6FF03C080E8F8018183C5FF1F
:1010000004C08FE7D80112968C93C4FF03C080E818
:10101000F80182834C2F4870C3FF07C0D801179690
:101020008C911797826017968C939C2F9470C2FFB7
:1010300004C0F8018781816087838D2F8F7088308D
:1010400009F43EC08D2D807C803C09F483C08D2D39
:10105000807F09F0CEC010922D01C1FF07C0D801DA
:1010600016968C911697846016968C93C0FF04C0D8
:10107000F801868181608683D0FE07C0D80116966C
:101080008C911697826016968C93D1FE04C0F8015D
:10109000868188608683D2FE07C0D80116968C911F
:1010A0001697806416968C93D3FEA7C0F8018681AC
:1010B00080688683A2C08FE7D80111968C939ACF5F
:1010C000EC2FE295EF70F0E0EE57FF4FE491D8017E
:1010D0001596EC932D2D2095822F8F7023FD805136
:1010E0008195880F880FF80182832D2D30E020959F
:1010F00030953595279535952795359527953595CF
:101100002795822F8F7023FD80518195880F880F3E
:10111000D80111968C931197442331F017968C9136
:101120001797826017968C93992321F0F801878195
:1011300081608783C1FF07C0D80116968C911697EE
:10114000816016968C93C0FF58C0F801868182603A
:10115000868353C0FFEFDF16C1F181E080932D013C
:10116000C0FF04C08FE7D80114968C93C1FF03C061
:1011700080E8F8018383D0FE04C08FE7D80113967E
:101180008C93D1FE03C080E8F8018483D2FE07C0AF
:10119000D80116968C911697806416968C93D3FE80
:1011A00004C0F801868180688683D4FE07C0D80118
:1011B00016968C911697816016968C93D5FE1DC05D
:1011C000F80186818260868318C080912D0181118B
:1011D000C7CFC1FF07C0D80116968C9116978160C2
:1011E00016968C93C0FF09C0F801868182608683C1
:1011F00004C0803851F010922D01DF91CF911F91E2
:101200000F91FF90EF90DF90089582E0809373013B
:101210008D2F0E949F078F77D0FD8195D701139660
:101220008C930E94C007C82F0E949F078F77C0FD34
:101230008195F7018283D1FE03C081818160818322
:10124000D0FEDBCFD70111968C9111978260119659
:101250008C93D3CF982F30E13A95F1F728E080E0D6
:1012600007C02C9809C030E43A95F1F7215071F08D
:101270002A9890FFF6CF2C9A969530E43A95F1F79C
:1012800086952A9A1D9BEFCF8068EDCF90E19A95C5
:10129000F1F70895EF92FF920F931F93CF93DF938F
:1012A000C82FD92FE62EF72E84B18D7D84B984B155
:1012B0008C6184B985B18E6385B92B9880E18A955C
:1012C000F1F781E00E942A0982E40E942A09182F7E
:1012D000082F0F7D81E0113409F080E0811114C0E6
:1012E00081E0033509F080E081110EC0133209F46A
:1012F0008AC02B9AF0E1FA95F1F7DF91CF911F9117
:101300000F91FF90EF9008958FEF0E942A098FEFC1
:101310000E942A0980FD03C09F8191609F8383FD05
:1013200003C09F8192609F83113409F446C0133734
:1013300009F454C08FEF0E942A0980FD03C09E81EA
:1013400090619E8381FD03C09E8190629E8382FD99
:1013500003C09E8190649E8383FD03C09E8190683C
:101360009E8384FD03C09E8198609E8385FD03C09B
:101370009E8192609E8386FD03C09E8191609E83C4
:1013800088231CF08E8184608E83033509F0AECFF4
:101390008FEF0E942A0980588B838FEF0E942A09C1
:1013A00080588C838FEF0E942A09805889838FEFA1
:1013B0000E942A0980588A8399CF84FD02C090E850
:1013C0009A8386FD02C09FE79A83882314F090E8F1
:1013D000998385FDAFCF8FE78983ACCF81FD03C0B3
:1013E0009F8194609F8382FD03C09F8198609F834B
:1013F00082958F70EFE08E27E82FF0E0EB58FF4FDB
:10140000E491ED8397CF83E0809373018FEF0E9487
:101410002A098FEF0E942A0983FD07C0D70117967A
:101420009C911797926017969C93E82FE295EF7026
:101430008FE0E827F0E0EB58FF4FE491D7011596D5
:10144000EC938FEF0E942A0983FD04C0F701968177
:101450009068968384FD07C0D70116969C911697D5
:10146000926016969C9385FD04C0F7018681816089
:1014700086838FEF0E942A098058D70111968C939A
:101480008FEF0E942A09F70182878FEF0E942A09B5
:10149000D70119968C938FEF0E942A09F701808754
:1014A00028CF0F931F93CF93DF93282F392F062F29
:1014B0002B98662351F0E901020F132F111D89911A
:1014C0000E942A09C017D107D1F72B9A80E18A958B
:1014D000F1F7DF91CF911F910F91089588EC199B3F
:1014E00002C08150E1F7089588EC199902C081503B
:1014F000E1F70895FF920F931F93CF93DF93C82FC7
:10150000D92F84B18D7C84B984B18C6084B985B1C4
:101510008E6385B98AB18E7E8AB98BB181618BB9B0
:101520008AE08A95F1F700C089B1182F117080FF09
:1015300052C04C9903C08E8180618E832B988AE0C3
:101540008A95F1F700C01C9902C080E88A831D9932
:1015500002C08FE78A83489902C080E889834C994A
:1015600002C08FE7898385B1837F886085B98AE06F
:101570008A95F1F700C01C9903C08E8182608E832A
:101580001D9903C08E8184608E83489903C08E812B
:1015900081608E834C9903C08F8182608F8385B177
:1015A000837F85B98AE08A95F1F700C01C9903C052
:1015B0008E8180688E831D9903C08E8180648E83A6
:1015C000489903C08E8188608E834C9906C08E81B5
:1015D00080628E8302C01C9906C0DF91CF911F915B
:1015E0000F91FF9008952B982A980E946E0A83B15C
:1015F0008071F82E2A9A0E94740A2A980E946E0A14
:10160000F11011C01C9902C080E88A831D9902C0A4
:101610008FE78A83489902C080E889834C9913C078
:101620008FE7898310C0E3B1E295E17081E0E8279C
:101630001D9BE260489BE4604C9BE860F0E0EE5745
:10164000FF4FE491ED832A9A0E94740A1C9903C00B
:101650008E8182608E831D9903C08E8184608E830B
:10166000489903C08E8181608E834C9903C08F811D
:1016700082608F832A980E946E0A1C9903C08E8113
:1016800080688E831D9903C08E8180648E83489903
:1016900003C08E8188608E834C9903C08E818062E6
:1016A0008E832A9A0E94740A4C9903C08E818061AD
:1016B0008E832A980E946E0A1C9962C000E11D9BCD
:1016C0000062489B00644C9B00682A9A0E94740A3E
:1016D0001C9B01601D9B0260489B04604C9B086042
:1016E000F11050C02A980E946E0A1C994FC000E168
:1016F0001D9B0062489B00644C9B00682A9A0E94D4
:10170000740A1C9B01601D9B0260489B04604C9BFB
:101710000860F1103DC02A980E946E0A1C993CC0D6
:1017200000E11D9B0062489B00644C9B00682A9A64
:101730000E94740A1C9B01601D9B0260489B046010
:101740004C9B0860F1102AC02A980E946E0A1C9BCC
:1017500010E11D9B1062489B10644C9B10682A9AF4
:101760000E94740A1C9B11601D9B1260489B1460B0
:101770004C9B1860F11015C085B18C6085B92DCFD8
:10178000012F9DCF8FE7801B8983ACCF012FB0CF76
:101790008FE7801B8A83BFCF012FC3CF06950C83B1
:1017A000D3CF16951B83E8CFE82FF92F84B1817C26
:1017B00084B985B18E6385B987B1827C87B9399A3E
:1017C00088B18F6388B94198419A80E803C08F5FE0
:1017D0008F3769F090E19A95F1F71D9981831C99F3
:1017E00082831B9983831A9BF2CF8483F0CF8181FC
:1017F0008E37F1F082818E37E9F083818E37E1F008
:1018000084818E37D9F0309903C0868181608683C8
:10181000199903C08681826086834C9903C08681B2
:1018200084608683489903C0868188608683089592
:101830001182E0CF1282E1CF1382E2CF1482E3CF94
:101840001AB889EF8BB914B88FE385B917B888B97E
:101850000895CF93DF93C82FF894E3E5F1E087E094
:10186000DF011D928A95E9F7E2E5F1E08FEF8583CC
:10187000C083E8E4F1E09AE0DF011D929A95E9F770
:10188000E7E4F1E08583C08395E0E4E2F1E0A2E4DF
:10189000B1E001900D929A95E1F7C0934201EFE219
:1018A000F1E093E1DF011D929A95E9F7EEE2F1E0B4
:1018B0008583C0831092730186B1982F907285FD45
:1018C00065C086B1D82FD07184FD4AC0E6B1EE71F3
:1018D000ED3008F094C0F0E0E75EFC4E0C9411137C
:1018E00082E591E00E947A0A58C04EE251E067E436
:1018F00071E082E591E00E944A094FC082E591E0E3
:101900000E94D1054AC082E591E00E94370677C067
:1019100082E080937301D1E0C13009F070C082E4AD
:1019200091E00E947A0362C082E591E00E947B050B
:1019300034C083B18670823071F0863039F0811105
:101940004EC082E591E00E94BC0427C082E591E090
:101950000E940D0522C082E591E00E9454061DC040
:10196000339B07C0C23051F081E080937301D92FBF
:1019700046C082E591E00E94D40B0FC082E591E061
:101980000E948C0781E0809373012BC0339932C091
:101990006C2F82E591E00E94C50381E09091730174
:1019A000923009F080E08823E1F081E0C23009F054
:1019B00080E0D0E08823A9F0E2E4F1E0A2E5B1E024
:1019C00011968C911197818312968C911297828334
:1019D00016968C911697838317968C918483D111D8
:1019E00005C0E8E6F0E080818E7F80837894DF9107
:1019F000CF91089582E591E00E944010D0E089B136
:101A00008970E1F44C9B13C082E591E00E949F0332
:101A100081E090917301923009F080E08823F9F21F
:101A200081E0C23009F080E08111C6CFD8CF62E4F6
:101A300071E082E591E00E94D307EACF82E591E070
:101A40000E94C40FE5CF80917301823009F4B3C0C6
:101A5000B8F1833009F4E0C0843009F094C083EF1A
:101A600092E090935D0180935C0182E190E090931D
:101A70005B0180935A0182E990E090937501809315
:101A800074018CE790E0909377018093760181E078
:101A900080936C018EE291E090936F0180936E01D0
:101AA00084E18093700185E093E0909372018093CC
:101AB000710184E290E0909379018093780163C092
:101AC000882389F183EF92E090935D0180935C011C
:101AD00082E190E090935B0180935A018CED91E05C
:101AE00090937501809374018EEA90E09093770152
:101AF0008093760182E080936C0182E591E090937F
:101B00006F0180936E0188E08093700185E093E01F
:101B1000909372018093710184E290E09093790137
:101B20008093780130C083EF92E090935D018093C1
:101B30005C0182E190E090935B0180935A018AE816
:101B400092E0909375018093740187E590E0909303
:101B500077018093760181E080936C0182E591E0CA
:101B600090936F0180936E0188E08093700185E00F
:101B700093E0909372018093710184E290E09093DE
:101B80007901809378018091760180931901F8940E
:101B9000519A8AB186608AB92FE783E79CE0215089
:101BA00080409040E1F700C0000051988AB1897FE1
:101BB0008AB97894089581EE92E090935D018093C4
:101BC0005C0182E190E090935B0180935A018EE08A
:101BD00091E0909375018093740184E690E0909376
:101BE00077018093760182E080936C0182E491E03A
:101BF00090936F0180936E0185E08093700185E082
:101C000093E0909372018093710184E290E090934D
:101C1000790180937801B7CF83EF92E090935D01D3
:101C200080935C0182E190E090935B0180935A0184
:101C300082E791E090937501809374018AE690E0C9
:101C4000909377018093760181E080936C0187E423
:101C500091E090936F0180936E018BE0809370010F
:101C600085E093E0909372018093710184E290E0AB
:101C7000909379018093780186CFE82FF92F8081A6
:101C80008076803211F080E008958181813031F0DA
:101C9000823079F08A30A9F080E0089580916E0159
:101CA00090916F01909395018093940180917001C0
:101CB00008958DE691E0909395018093940181E0E1
:101CC0000895838180936D0180E00895E82FF92FB6
:101CD0008181863011F080E008958381833039F16D
:101CE00070F48130C9F0823041F480E091E090934B
:101CF00095018093940182E2089580E008958232F4
:101D000031F58091740190917501909395018093C4
:101D1000940180917601089580915C0190915D011C
:101D2000909395018093940180915A010895828146
:101D3000823011F080E008958091710190917201DC
:101D4000909395018093940180917801089580E0AB
:101D50000895AF92BF92CF92DF92EF92FF920F93CE
:101D60001F93CF93DF93A82EB92EC62ED72E842F84
:101D7000952F422F532FA02FB12FEE2DFF2DE501D0
:101D8000288120582883E601288120582883EC01E7
:101D9000288120582883EA018881805888839C9173
:101DA0008081292F282B09F44BC01C92108290FFB0
:101DB00002C021E02C9391FF03C02C9122602C9350
:101DC00092FF03C02C9128602C9393FF03C02C91A9
:101DD00020612C9394FF03C020812160208395FF14
:101DE00003C020812260208396FF03C02C912064D1
:101DF0002C93992384F180FF03C090819460908399
:101E000081FF03C090819860908382FF03C090811E
:101E10009062908383FF03C090819064908384FFDD
:101E200003C090819061908385FF03C0908190688A
:101E3000908386FF03C09C9194609C9388237CF0E0
:101E4000DF91CF911F910F91FF90EF90DF90CF9096
:101E5000BF90AF9008959C9190689C93CCCF8C914B
:101E600080628C93EDCF0E94200C0E94CA111092C8
:101E7000730181E00E94290C0E94230DDD24DA9475
:101E8000CC24C394C5E8D1E04DC00F2EF9E5EF2E68
:101E9000F1E0FF2EF02D08E511E026E531E045E503
:101EA00051E064E571E083E591E00E94A90E4CC029
:101EB0000F2EF9E5EF2EF1E0FF2EF02D08E511E0F1
:101EC00026E531E045E551E064E571E083E591E028
:101ED0000E94A90E39C00F2EFEE4EF2EF1E0FF2E76
:101EE000F02D0DE411E02BE431E04AE451E069E427
:101EF00071E088E491E00E94A90E26C020916E0155
:101F000030916F01612F820F932F911D0E947D10E0
:101F1000C39480916C018C1578F180917301D81273
:101F20002EC0D82E0E94A910888184FFFBCF8C2D53
:101F30000E94290C81E0D81609F4BACF83E0D816A4
:101F400051F2DD2009F4A1CF00917001102F802FF4
:101F5000811B193098F220916E0130916F0168E079
:101F6000820F932F911D0E947D1018500E94A9107E
:101F7000888184FFFBCFEBCFCC24C394CECF0E94CB
:101F8000230D80917301CDCFE82FF92F8AB1867888
:101F90008AB9579A5F988BB189678BB92098289A2C
:101FA0008AE48A95F1F700C089B1807379F44E997B
:101FB00003C086818160868393B1892F817090FDF3
:101FC00006C087818260878381E001C080E05F9ADC
:101FD0009AE49A95F1F700C0489902C090E892837C
:101FE0004B9902C09FE792834C9902C090E891837D
:101FF0004D9902C09FE7918381110CC04E9903C097
:10200000868181608683189903C086818260868379
:102010005F9A08954E9903C08681826086831899DD
:1020200003C08681846086835F988AE48A95F1F78D
:1020300000C05F9A9AE49A95F1F700C05F988AE42D
:102040008A95F1F700C089B1897311F75F9A9AE414
:102050009A95F1F700C0489903C08681806886830D
:102060004B9903C08681806486834C9903C0868126
:10207000886086834D99CCCF878181608783C8CF64
:10208000E82FF92F84B1817C84B985B18E6385B93D
:1020900087B1807C87B988B18F6388B98AB18E7E19
:1020A0008AB98BB181618BB91D9903C08681806427
:1020B00086831C9903C08681886086831B9903C030
:1020C0008681806286831A9903C0878181608783B5
:1020D000199903C0878182608783329903C0868102
:1020E00080688683319903C08681846086833099B5
:1020F00003C08681806186830895CF93282F392F6E
:10210000C62F8091850184FF20C0E5E8F1E0818140
:1021100098E8892781838FEF8C0F90E00196820FDA
:10212000931FE7E8F1E0D9012F5F3F4F4C914193B6
:1021300028173907C1F76C2F87E891E00E94EC114E
:10214000CC5FC0938501CF9108958AE58093850186
:10215000E2CF1F93CF93DF93809196018350BAF41F
:102160008091230184FF05C0809122018F3F09F0F7
:10217000BDC094E189B1867031F49150D9F71092C5
:10218000970110929101DF91CF911F910895909145
:1021900092019D3219F010929601E2CF8830D9F762
:1021A00080919301CCE0D0E0C81BD109C656DE4F28
:1021B00083EC80937A018AE58093230110925E017B
:1021C0001881107671F0CE010E943D0E182F8F817C
:1021D000811104C08E81811708F4182F10932201F9
:1021E000DACF9A8110928301898181110AC01092FD
:1021F000840183E891E012E090939501809394012B
:10220000E6CF853089F08630A1F0883009F466C0C9
:10221000893009F458C08A3009F464C08B3009F45D
:1022200057C083E891E0E8CF9093970183E891E06D
:10223000E3CF8B81813061F0823081F08330A1F077
:10224000813291F190E48232C1F190935E01BFCF6F
:10225000CE010E94660E182F90E4F7CFCE010E94A7
:10226000660E912F182FF1CF992331F0913069F03C
:102270009230A1F090E4E9CF83E393E0909395014D
:102280008093940190E414E0E0CF89E293E090938E
:1022900095018093940190E41AE0D7CFCE010E947B
:1022A000660E182F90E4D1CF82E191E090939501D2
:1022B0008093940190E419E0C8CFCE010E94660E8D
:1022C000182F90E4C2CF9093990183E891E094CFC6
:1022D0008BE48093860183E891E08ECF89E991E0D9
:1022E00011E08ACF83E891E011E086CF182F893082
:1022F00008F018E0982F911B90932201EAE7F1E093
:10230000908128E8922790838823D1F1E09194016D
:10231000F091950180915E0186FF21C08FEF810FC2
:1023200090E001968E0F9F1F2BE731E04491D90179
:102330004C932F5F3F4F3196E817F907B9F7909309
:10234000950180939401612F8BE791E00E94EC113D
:10235000C4E0C10FCC30D0F0C09323010ACFABE76B
:10236000B1E08FEF810F90E001968E0F9F1F9F01CC
:102370003196E90128812D93E817F907C1F7DFCFDE
:1023800060E08BE791E00E94EC11C4E08FEF809356
:102390002201E2CFE9E6F0E0808182608083E89A62
:1023A000E5E8F1E08BE481838AE580830895A82F36
:1023B000B92F80E090E041E050EA609530E009C03C
:1023C0002D9182279795879510F084279527305E69
:1023D000C8F36F5FA8F30895EADF8D939D93089586
:1023E000CF93CFB7CF93DF93C395499BE9F7499B31
:1023F0000BC0499B09C0499B07C0499B05C0499B2D
:1024000003C0499B01C08BC06F93C0919301DD272E
:10241000C656DE4F2F9365E5499B03C02F916F9100
:10242000E6CF0F931F934F9320E040E15F9309B1F4
:10243000067001FB27F93F9350E03BE039C016706E
:1024400040642F77012F5F5F1EC0406819B116707E
:102450002F7752501FC0406409B12F770670D1F119
:102460005F5F00C023C0406219B12F77167091F1F1
:102470005F5F00C025C006701027515012F45D5FE9
:102480000000115027952C3F19B1C8F6167001278E
:10249000015027952C3FC8F64227499309B1067091
:1024A00010274F73115027952C3FA8F64695469557
:1024B00019B1167079F00127015027952C3F98F635
:1024C0006B5A60F3315009B1B0F600C011E01CBB8B
:1024D000002719C03B503195C31BD04011E01CBBF5
:1024E0000881033C09F10B34F9F020919101198125
:1024F000110F1213EDCF4A81441F093651F10D32ED
:1025000011F0013E29F7009398013F915F914F919F
:102510001F910F912F916F91CCB3C0FD65CFDF91CB
:10252000CF91CFBFCF91189520919801222369F3C5
:1025300010919601112391F5343092F13093960168
:1025400020939201109193013BE0311B3093930152
:1025500027C00091960101300CF50AE54F7049F44F
:102560003091230134FD1DC000932301CAE7D1E05F
:102570001CC03091850134FD14C000938501C6E86C
:10258000D1E013C0052710E000C000000BB91AC04D
:10259000052710E0221F1DC010E021C04AE502C03F
:1025A00032ED432FC4E1D0E032E01AB11660599AFF
:1025B0000BB11AB956E020E865E320FF05270BB9F7
:1025C000279517951C3FF0F66695B8F7B1F720FFF1
:1025D00005270BB9279517951C3FD0F6279517951A
:1025E00017FF052700001C3F0BB9B0F629913A955B
:1025F00019F7097F10919701110FC651D0400BB9FF
:1026000011F01093910111E01CBB02601AB1197F07
:10261000402F497F54E05A95F1F70BB91AB94BB9DD
:1026200074CFEE0FFF1F0590F491E02D0994F894FC
:10263000FFCF700CFF0C750CFF0C830CFF0C7E0C95
:0C264000FF0C990CFF0C940CFF0C880C94
:10264C000902220001010080FA09040000010300C4
:10265C000000092101010001225700070581030830
:0A266C000004FF5A00000000000007
:00000001FF
