:100000000C948E000C949F110C94AB000C94AB00DC
:100010000C94AB000C94AB000C94AB000C94AB00B4
:100020000C94AB000C94AB000C94AB000C94AB00A4
:100030000C94AB000C94AB000C94AB000C94AB0094
:100040000C94AB000C94AB000C94AB000C94AB0084
:100050000C94AB000C94AB000C94AB000C94AB0074
:100060000C94AB000C94AB001201100100000008CE
:100070005E040202000100000001090220000101EB
:100080000080320904000002584200000705820384
:1000900020000407050203080004FF0004FF060710
:1000A00005FF020103FFFFFFFFFFFF0206FF04033E
:1000B00005FF000107FFFFFF00020104FF03FF0629
:1000C00007FFFF05040309042A0377007700770080
:1000D0002E006200720075006E006F0066007200F4
:1000E000650069007400610073002E0063006F00FA
:1000F0006D002A03550053004200200052006500A5
:10010000740072006F005000610064002000410024
:1001100064006100700074006500720011241FBE4D
:10012000CFEFD4E0DEBFCDBF11E0A0E0B1E0ECEB5B
:10013000F6E202C005900D92A230B107D9F711E0A6
:10014000A2E0B1E001C01D92A13DB107E1F70E941C
:1001500075050C945C130C9400000F931F93FF9390
:10016000EF93BF93AF93F92FE82F09E00093580165
:1001700000E20093590100E000935A0101E000936E
:100180005B0101E000935C0100E000935D010093DE
:100190005E0100935F0109E20093600107D0BF9107
:1001A000AF91EF91FF911F910F910895A1E0B8E5F4
:1001B00009E02D980000000000002C9800000000CD
:1001C00000002C9A000000002C98000000000000A5
:1001D0002C9A0000000000002C9800000000000095
:1001E0002C9A0000000000002C9800000000000085
:1001F0002C9A00000000000000002D9A1D9117FDB0
:100200002C9A17FF2C982D98000000002C9A16FDB0
:100210002D9A16FF2D982C9A000000002D9A15FD9E
:100220002C9A15FF2C982D9A000000002C9A14FD92
:100230002D9A14FF2D982C9A000000002D9A15FD80
:100240002C9A15FF2C982D9A000000002C9A14FD72
:100250002D9A14FF2D982C9A000000002D9A15FD60
:100260002C9A15FF2C982D9A000000002C9A14FD52
:100270002D9A14FF2D982C9A000000002D9A0A95B3
:100280002D9A2C9A0895F92FE82FD72FC62F21E009
:1002900030E0E20FF31F2227332744275527662734
:1002A00077278827992790E09AD0B7D083D0292F35
:1002B00081D0392F7FD0492F253021F02930A1F16D
:1002C00080E00895BFEFBA95F1F7B8ECBA95F1F771
:1002D00091E085D0A2D06ED0292F6CD0392F6AD072
:1002E000492F68D0592F4083503809F453955195C0
:1002F000518340E050E027FD416026FD426025FD2E
:10030000546024FD58602F7035FD406134FD40621B
:1003100033FD446032FD486031FD406430FD40688B
:1003200045835683822F0895B4E6BA95F1F790E499
:1003300056D093E054D092E052D06FD03BD0292FCA
:1003400039D0392F37D0492F35D0592F33D0692F95
:1003500031D0792F2FD0892F2DD04058505851951A
:10036000408351836058619570587195628373839F
:1003700040E050E020FD416021FD426022FD4860E8
:1003800023FD446024FD586034FD546035FD406217
:1003900036FD406136FD8C8335FD9D834583568354
:1003A0003F70232F3E7F31FD31603D7F20FD326065
:1003B000832F089590E0B4E1A8E0BA9579F01899F8
:1003C000FCCFB9E0BA95F1F7990F18999160B4E1B3
:1003D000BA9521F0189BFCCFAA9579F70895A8E06B
:1003E00097FD0DC0209ABDE0BA95F1F70000209866
:1003F000B3E0BA95F1F7990FAA9591F70895209A6D
:10040000B3E0BA95F1F7000000002098BDE0BA957E
:10041000F1F7990FAA9521F70895209AB3E0BA95BC
:10042000F1F70000000020980895A8950895FC01B8
:10043000808190E0807690708032910559F48181BE
:100440008130E1F483E391E09093930180939201F2
:1004500084E108958034910589F48181863071F4B6
:1004600081E090E0909303018093020187E491E0A2
:10047000909393018093920180E1089580E0089524
:1004800080910201909103010895CF93DF938091B1
:10049000AE0186FD07C0CEEAD1E00E942D10888112
:1004A00086FFFBCF83E391E064E10E947C11DF9142
:1004B000CF910895E3E3F1E084E2DF011D928A9594
:1004C000E9F794E1918380E1848B82E4858B168A3D
:1004D00081E0878B808F82E0818F928F86E0838F8F
:1004E0007C962FEF87E591E02193E817F907E1F774
:1004F00008950F931F938C010E945A02012B61F003
:100500002FE088E190E00FB6F894A8958093600002
:100510000FBE2093600008C088E10FB6F894809366
:100520006000109260000FBE0E941610F894EAE27C
:10053000F0E080818260808380818660808326EF06
:1005400039E047E751E0CA010197F1F72150304007
:10055000D1F7EAE2F0E080818D7F80838081897F1E
:10056000808378941F910F9108952F923F924F921C
:100570005F926F927F928F929F92AF92BF92CF9233
:10058000DF92EF92FF920F931F93DF93CF93CDB73C
:10059000DEB73B014C0119012A016D897E898F89E3
:1005A000988D6A197B098C099D09621A730A840A5D
:1005B000950AA40193010E940013E218F3080409AC
:1005C0001509A80197010E941F132A0D3B1D4C1D00
:1005D0005D1D622F732F842F952FCF91DF911F9177
:1005E0000F91FF90EF90DF90CF90BF90AF909F90D2
:1005F0008F907F906F905F904F903F902F900895D5
:100600001AB889EF8BB914B88FE385B917B888B9D0
:1006100008952F923F924F925F926F927F928F92A6
:100620009F92AF92BF92CF92DF92EF92FF920F9381
:100630001F93CF93DF93EC01DB018D8180FF06C018
:10064000E5E3F1E080818160808305C0E5E3F1E0CE
:1006500080818E7F80838D8182FF06C0E5E3F1E09B
:1006600080818260808305C0E5E3F1E080818D7F39
:1006700080838D8183FF06C0E5E3F1E080818460A3
:10068000808305C0E5E3F1E080818B7F80838D81ED
:1006900081FF06C0E5E3F1E080818860808305C0CA
:1006A000E5E3F1E08081877F80838F8183FF06C04F
:1006B000E5E3F1E080818061808305C0E5E3F1E05E
:1006C00080818F7E80838F8182FF06C0E5E3F1E029
:1006D00080818062808305C0E5E3F1E080818F7DC9
:1006E00080838F8180FF06C0E5E3F1E08081806434
:1006F000808305C0E5E3F1E080818F7B80838F817B
:1007000081FF06C0E5E3F1E080818068808305C059
:10071000E5E3F1E080818F7780838E8180FD02C0E8
:1007200080E001C08FEF809337018E8181FD02C090
:1007300080E001C08FEF809339018E8182FD02C07D
:1007400080E001C08FEF80933A018E8183FD02C06B
:1007500080E001C08FEF809338018E8184FD02C05C
:1007600080E001C08FEF80933D018E8185FD02C046
:1007700080E001C08FEF80933E018E8187FD02C033
:1007800080E001C08FEF80933B018E8186FD02C027
:1007900080E001C08FEF80933C018C91882311F0A1
:1007A0008093370112968C911297882311F08093D1
:1007B000390113968C911397882311F080933A0195
:1007C00011968C911197882311F08093380114961B
:1007D0008C911497882311F080933D0115968C918C
:1007E0001597882311F080933E0116968C911697E9
:1007F000882311F080933B0117966C91662311F0CA
:1008000060933C0100D000D0EDB7FEB7319669810E
:1008100070E080E090E02FEF3FE740E050E0208381
:1008200031834283538320E83FEF4FEF5FEF0F2E7A
:10083000FFE7EF2EF0E0FF2EF0E00F2FF0E01F2F8C
:10084000F02D0F2EF0E0AF2EF0E8BF2EFFEFCF2EF1
:10085000FFEFDF2EF02D0E94B5020F2EFFE36F2E6B
:10086000F1E07F2EF02DF301619371934F01EDB70D
:10087000FEB731966A8170E080E090E00F2EF0E0E4
:100880002F2EF0E83F2EFFEF4F2EFFEF5F2EF02DC3
:10089000208231824282538220E83FEF4FEF5FEFA8
:1008A0000F2EFFEFAF2EFFE7BF2EF0E0CF2EF0E0D0
:1008B000DF2EF02D0E94B502F40171836083EDB745
:1008C000FEB731966B8170E080E090E0A082B1824B
:1008D000C282D38220E83FEF4FEF5FEF0F2EF0E0B0
:1008E000AF2EF0E8BF2EFFEFCF2EFFEFDF2EF02D63
:1008F0000E94B502F301349671836083EDB7FEB7B1
:1009000031966C8170E080E090E0208231824282FA
:10091000538220E83FEF4FEF5FEF0F2EFFEFAF2E38
:10092000FFE7BF2EF0E0CF2EF0E0DF2EF02D0E948B
:10093000B5020F900F900F900F9026E030E0620EFE
:10094000731EF30171836083DF91CF911F910F912B
:10095000FF90EF90DF90CF90BF90AF909F908F90DF
:100960007F906F905F904F903F902F900895682FE9
:10097000A4E0B1E0E9E1F1E088E001900D9281505E
:10098000E1F760930401ACE0B1E0E1E2F1E085E081
:1009900001900D928150E1F760930C01A1E1B1E06B
:1009A000E6E2F1E088E001900D928150E1F735999F
:1009B0005BC0349952C086B190E08E7190708430E3
:1009C000910521F18530910534F4009771F002977B
:1009D00009F056C00FC08830910511F18A30910599
:1009E000D1F0069709F04CC00CC084E091E00E9461
:1009F000D70D5EC084E091E061E171E00E94BC0C23
:100A000057C084E091E00E949B0852C084E091E0CE
:100A10000E94750938C084E091E00E942E0848C009
:100A200083B190E0867090708230910589F08630B5
:100A3000910521F0892B39F081E023C084E091E019
:100A40000E94820735C084E091E00E94140730C004
:100A500084E091E00E94A0092BC0339914C084E087
:100A600091E00E94920F24C0339905C084E091E088
:100A70000E94D2051DC084E091E00E94BD0A03C01F
:100A800080E08823A9F489B1897071F44C9B07C078
:100A900084E091E061E171E00E94A00509C084E07A
:100AA00091E00E946A0B04C084E091E00E94ED098D
:100AB000E8E6F0E080818E7F80830895CF93DF9316
:100AC00081E090E00E947902CCE7D2E907C00E9461
:100AD0001502CE010197F1F70E9445020E944002E3
:100AE000892BA9F3DF91CF9108950F931F93CF9393
:100AF000DF930E9400030E945E0581E00E94B7041C
:100B000004E011E0C1E1D1E00E94150281E00E9401
:100B1000B704C801BE010E9409030E944502F4CF38
:100B2000E4E2F0E02081277F20832081206320837E
:100B3000E5E2F0E02081286320830E94AD00089563
:100B4000CF93DF93EC01E5E2F0E080818E7F80833C
:100B5000E4E2F0E080818E7F8083EBE2F0E0808150
:100B60008F778083EAE2F0E0808180688083CE0125
:100B70000E944301282F83FF03C08D8181608D83F4
:100B800022FF03C08D8184608D8321FF03C08D818E
:100B900088608D8320FF03C08D8182608D83DF910B
:100BA000CF910895DC01EAE2F0E080818E7E8083BF
:100BB000EBE2F0E0808181618083E4E2F0E080811B
:100BC0008863808380818D7F8083E5E2F0E080818F
:100BD00082608083E7E2F0E08081807E8083E8E2CB
:100BE000F0E080818F618083489B0BC0E4E2F0E0FD
:100BF000808184608083E5E2F0E08081837C808373
:100C000014C0E4E2F0E080818B7F8083E5E2F0E0D5
:100C100080818C638083E7E2F0E080818E7F808337
:100C2000E8E2F0E080818160808387E180937E004C
:100C3000EAE7F0E085E0808384E680937C008081B1
:100C400080688083808186FDFDCF613009F5EAE709
:100C5000F0E0808180648083808186FDFDCF90916B
:100C600079008FE7891B12968C93129782E6809306
:100C70007C00EAE7F0E0808180648083808186FDEB
:100C8000FDCF909179008FE7891B11968C93119776
:100C9000E9E2F0E0808110927A0010927E0080817B
:100CA00080FF17C04C9909C0613039F416968C91B9
:100CB0001697816016968C931697199998C0623092
:100CC00009F095C016968C911697816016968C93B4
:100CD0000895E5E2F0E08081877F808385E08A9552
:100CE000F1F7309907C016968C9116978260169688
:100CF0008C9316971A9907C016968C911697806157
:100D000016968C931697199907C016968C9116977C
:100D1000806816968C9316974C9907C017968C91FD
:100D20001797846017968C931797E5E2F0E080811F
:100D30008860808380818F7E808385E08A95F1F74B
:100D4000309907C016968C911697846016968C93EE
:100D500016971A9907C016968C9116978062169668
:100D60008C931697199907C017968C9117978160E5
:100D700017968C9317974C9907C016968C911697D7
:100D8000816016968C931697E5E2F0E08081806191
:100D9000808380818F7D808385E08A95F1F730990B
:100DA00007C016968C911697886016968C931697A6
:100DB0001A9907C016968C911697806416968C9394
:100DC0001697199907C017968C91179782601796F6
:100DD0008C9317974C9906C017968C91179788603B
:100DE00017968C93E5E2F0E080818062808308951D
:100DF00090E020E0A3E2B0E0EBE2F0E034E1220F8B
:100E00008C9180FD216080818F778083832F8A95EC
:100E1000F1F7808180688083832F8A95F1F79F5F47
:100E2000983069F7822F0895CF93DF93EC01ABE2FE
:100E3000B0E08C91886F8C938C918E7F8C93EAE2DA
:100E4000F0E08081896C808380818F7C8083E4E204
:100E5000F0E080818E7F8083E5E2F0E08081816038
:100E600080838C918F7B8C930E94F806282F30E032
:100E7000C901807F90708034910509F040C020FF47
:100E800003C08D8188608D8321FF03C08D818260C6
:100E90008D8322FF03C08D8181608D8323FF03C07A
:100EA0008D8184608D830E94F806282F982F81FF02
:100EB00003C08E8180618E8392FF03C08E81806229
:100EC0008E8393FF03C08F8184608F8394FF03C060
:100ED0008F8188608F8395FF03C08E8184608E83AD
:100EE00096FF03C08E8182608E8322231CF48E8144
:100EF00081608E83EBE2F0E0808180648083DF910B
:100F0000CF910895DC01EAE2F0E080818670808371
:100F1000EBE2F0E08081896F8083E4E2F0E08081A1
:100F2000807C8083E5E2F0E080818F638083E9E26A
:100F3000F0E08081982F9170808183FD9260809194
:100F40002F01981709F466C09130F1F0913038F014
:100F5000923009F441C0933009F051C029C081306A
:100F600041F415968C911597826015968C93159780
:100F700046C0823009F043C015968C911597886061
:100F800015968C9315973BC0833041F415968C9140
:100F90001597826015968C93159731C0882379F543
:100FA00015968C911597886015968C93159727C088
:100FB000823041F415968C911597826015968C932A
:100FC00015971DC08130D9F415968C9115978860BE
:100FD00015968C93159713C0882341F415968C9120
:100FE0001597826015968C93159709C0833039F454
:100FF00015968C911597886015968C9315979093FC
:101000002F0183E080932E0115968C911597809384
:1010100030010CC080912E01882341F081508093D3
:101020002E018091300115968C9315974E9906C02C
:1010300016968C911697816016968C930895EBE224
:10104000F0E080818F7E808389E191E00197F1F764
:1010500089B190819061908381700895CF93DF93DF
:10106000EC01E4E2F0E08081837C80838081826017
:101070008083A5E2B0E08C918E638C93EAE2F0E08D
:1010800080818E7F8083808180618083EBE2F0E0CD
:101090008081816180838C918D7F8C931D9903C0A9
:1010A0008D8181608D831C9903C08D8184608D83C7
:1010B0001B9903C08D8188608D831A9903C08D812F
:1010C00082608D830E941F08882319F48E818860B6
:1010D0008E830E941F08882319F48E8181608E837D
:1010E0000E941F08882319F48E8184608E830E94D9
:1010F0001F08882319F48E8182608E830E941F0846
:10110000882319F48E8180628E830E941F088823B1
:1011100019F48E8180618E830E941F08882319F440
:101120008F8184608F83E5E2F0E08081826080833C
:10113000DF91CF910895CF93DF93DC01E4E2F0E0FB
:101140008081837C8083808182608083E5E2F0E01F
:1011500080818E638083EAE2F0E080818061808319
:10116000EBE2F0E080818F7E808392E02BE230E042
:10117000E3E2F0E045E250E0E90188818F7E888378
:101180000000000080818C7309F457C0808185FDC8
:1011900007C015968C911597816015968C931597BD
:1011A000808184FD07C015968C91159782601596F5
:1011B0008C931597808183FD07C015968C911597A8
:1011C000846015968C931597808182FD07C01596D3
:1011D0008C911597886015968C931597EA018881F4
:1011E0008D7F888300000000808185FD07C01696F2
:1011F0008C911697816016968C931697808184FD4A
:1012000007C016968C911697826016968C93169747
:10121000808183FD07C017968C911797846017967D
:101220008C931797808182FD36C017968C91179703
:10123000886017968C9317972EC0EA0188818D7F5E
:10124000888300000000808185FD07C016968C9180
:101250001697846016968C931697808184FD07C03C
:1012600016968C911697886016968C9316978081A7
:1012700083FD07C016968C911697806116968C9305
:101280001697808182FD07C016968C911697806212
:1012900016968C931697E901888180618883EA010C
:1012A000888182608883915009F066CFDF91CF9169
:1012B000089590E020E0E5E2F0E034E6A3E2B0E05B
:1012C00080818B7F8083832F8A95F1F726958C917F
:1012D00085FD2068808184608083832F8A95F1F763
:1012E0009F5F983069F7822F0895EF92FF920F93D6
:1012F0001F937C0105E210E0F80180818C7E8083E1
:10130000808184628083E4E2F0E080818F7D80834D
:1013100080818C618083F8018081886080838AEF7E
:101320008A95F1F70E945909F8018081877F8083AF
:101330008AEAF70187831F910F91FF90EF9008953C
:10134000DC01EAE2F0E0808186708083EBE2F0E08D
:101350008081896F8083E4E2F0E080818E7F8083EA
:10136000E5E2F0E08081816080834E990CC01696A2
:101370008C911697816016968C93169704C09F5F88
:101380009B3F21F4089590E0E3E2F0E0808180FD4E
:10139000F6CF89B1982F892F8095282F217093FF40
:1013A000226094FF246095FF286090E0E3E2F0E083
:1013B00003C09F5F9B3F81F0808180FFFACF89B19E
:1013C00080FF206183FF206284FF206485FF206806
:1013D0008FE7821B11968C930895DC01EAE2F0E01E
:1013E000808186788083808180688083EBE2F0E072
:1013F00080818F778083808189678083E4E2F0E059
:1014000080818E7F8083E5E2F0E08081816080834F
:1014100086E48A95F1F789B1807311F090E015C0E8
:101420004E9907C016968C911697816016968C93EC
:101430001697189B02C091E008C017968C911797D9
:10144000886017968C93179791E0EBE2F0E080812B
:101450008068808386E48A95F1F7489907C01596DD
:101460008C911597816015968C9315974B9907C0B1
:1014700015968C911597846015968C9315974C99B9
:1014800007C015968C911597886015968C931597C3
:101490004D9907C015968C911597826015968C937F
:1014A0001597992391F44E9907C016968C9116972B
:1014B000816016968C931697189959C016968C9140
:1014C0001697826016968C9352C04E9907C0169656
:1014D0008C911697826016968C931697189907C070
:1014E00016968C911697846016968C931697EBE25D
:1014F000F0E080818F77808396E4892F8A95F1F7D9
:10150000808180688083892F8A95F1F780818F7729
:1015100080839A95F1F789B1897349F58081806854
:10152000808386E48A95F1F7489907C016968C91D6
:101530001697806216968C9316974B9907C016964D
:101540008C911697806116968C9316974C9907C0CC
:1015500016968C911697886016968C9316974D99CF
:1015600006C017968C911797846017968C93EBE2C0
:10157000F0E08081806880830895DC01E4E2F0E09F
:101580008081817C8083E5E2F0E080818E638083CE
:10159000E7E2F0E08081807C8083E8E2F0E0808117
:1015A0008F638083EAE2F0E080818E7E8083EBE2CD
:1015B000F0E08081816180831D9907C017968C912E
:1015C0001797846017968C9317971C9907C01696E7
:1015D0008C911697886016968C9316971B9907C066
:1015E00016968C911697826016968C9316971A9978
:1015F00007C015968C911597826015968C93159758
:10160000199907C015968C911597846015968C933F
:101610001597329907C017968C911797886017967F
:101620008C931797319907C016968C911697846002
:1016300016968C931697309906C016968C9116972D
:10164000816016968C930895282F269511F437E023
:1016500009C037E0982F990F822F8170892B315064
:101660002695C1F790E002C0880F991F3A95E2F7DE
:10167000089589B1E5E2F0E090819E7F908328E7AC
:10168000922F9A95F1F79081916090832A95F1F7C6
:1016900082958695877080958170089520E090E00E
:1016A000A9E2B0E0E5E2F0E038E726958C9185FF0D
:1016B000206880818E7F8083832F8A95F1F78081D7
:1016C00081608083832F8A95F1F79F5F983069F757
:1016D000822F08950F931F93CF93DF93EC01EAE2DB
:1016E000F0E080818F7D8083ABE2B0E08C918062FE
:1016F0008C938081806880838C9180688C93E4E2F5
:10170000F0E0808181608083E5E2F0E080818160AB
:10171000808380EF8A95F1F78C918F778C9388E79F
:101720008A95F1F70E944E0B182F0E944E0B082F3E
:101730000E944E0B982F11231CF48D8182608D83A3
:10174000212F30E016FF03C08D8188608D8325FF37
:1017500003C08D8184608D8324FF03C08D818160EF
:101760008D83F901E870F07023FF03C08F818860DA
:101770008F83B9016470707022FF03C08F81846011
:101780008F83892F8F70883009F05AC0812F8295FE
:101790008F70982F80FF03C08D8181608D8391FFB2
:1017A00003C08D8184608D8392FF03C08D8188602A
:1017B0008D8393FF03C08D8182608D83802F809500
:1017C000482F4F70483008F04051842F90E0880F28
:1017D000991F880F991F909581959F4F8A83802F1D
:1017E00090E080959095807F9070959587959595E0
:1017F00087959595879595958795482F883008F01A
:101800004051842F90E0880F991F880F991F909561
:1018100081959F4F8983EF2B19F08F8188608F838B
:10182000672B19F08F8184608F8321FF03C08E8125
:1018300082608E8320FF6CC08E8181608E8368C041
:10184000402F50E0CA01807C9070803C9105D1F51A
:101850000F3F21F081E0809331010FC08091310171
:10186000882359F421FF03C08E8182608E8320FF7C
:101870004FC08E8181608E834BC020FF02C08FE7F6
:101880008C8321FF02C080E88B8340FF02C08FE77A
:101890008B8341FF02C080E88C8342FF03C08E81AE
:1018A00080618E8343FF03C08E8180628E8344FFFC
:1018B00003C08E8182608E8345FF2AC08E81816045
:1018C0008E8326C0802F807F09F51092310121FF81
:1018D00003C08E8182608E8320FF03C08E81816071
:1018E0008E8340FF03C08E8188608E8341FF03C0DA
:1018F0008E8184608E8342FF03C08E8180618E83DF
:1019000043FF06C08E8180628E8302C01092310137
:10191000DF91CF911F910F910895382F8FE08A9515
:10192000F1F790E020E0E5E2F0E054EBA3E2B0E074
:101930004DE230FF04C080818061808303C08081DC
:101940008F7E808380818B7F8083852F8A95F1F7BE
:1019500026958C9185FD2068808184608083842F0A
:101960008A95F1F79F5F983011F03695E2CF8FE0BE
:101970008A95F1F7822F0895CF92DF92FF920F930D
:101980001F93CF93DF93EC016B01E4E2F0E08081E1
:101990008D7D808380818C618083E5E2F0E08081B1
:1019A0008E6380838081877F80838FE08A95F1F7C3
:1019B00081E00E948D0C82E40E948D0C082F10E0C3
:1019C000813409F411E0FF24033711F4FF24F39468
:1019D000812F8F2990E020E030E0033511F421E0E1
:1019E00030E0822B932B892B09F480C08FEF0E946B
:1019F0008D0C8FEF0E948D0C282F982F80FD03C037
:101A00008F8184608F8393FD03C08F8188608F8373
:101A10001123A9F094FD03C08D8181608D8396FD13
:101A200003C08D8184608D8322231CF08D818860AA
:101A30008D8395FD16C08D8182608D8312C0FF203D
:101A400081F091FD03C08F8181608F8392FD03C07F
:101A50008F8182608F83822F82958F7080958F70A7
:101A60008D838FEF0E948D0C282F982F82FD03C04D
:101A70008E8180618E8393FD03C08E8180628E8310
:101A800090FD03C08E8180648E8391FD03C08E81A2
:101A900080688E8396FD03C08E8181608E832223B1
:101AA0001CF08E8182608E8394FD03C08E818460E1
:101AB0008E8395FD03C08E8188608E83FF2011F494
:101AC0000335A1F48FEF0E948D0C80588B838FEF2C
:101AD0000E948D0C80588C838FEF0E948D0C805853
:101AE00089838FEF0E948D0C80588A830332C9F559
:101AF0008FEF0E948D0C8FEF0E948D0C982F83FD2D
:101B000003C08F8188608F83892F82958F70809525
:101B10008F708D838FEF0E948D0C282F83FD03C063
:101B20008E8180628E8324FD03C08E8184608E83CB
:101B300025FD03C08E8188608E838FEF0E948D0CFF
:101B4000805889838FEF0E948D0CF60180838FEF80
:101B50000E948D0CF60182838FEF0E948D0CF6019E
:101B60008483E5E2F0E08081886080838FE08A955D
:101B7000F1F7DF91CF911F910F91FF90DF90CF9000
:101B8000089590E0E3E2F0E003C09F5F983C19F015
:101B9000808181FDFACF089590E0E3E2F0E003C098
:101BA0009F5F983C19F0808181FFFACF08950F93D1
:101BB0001F93CF93DF93EC01E4E2F0E080818D7C12
:101BC000808380818C608083E5E2F0E080818E6399
:101BD0008083EAE2F0E080818E7E8083EBE2F0E0B9
:101BE0008081816180838AE08A95F1F7489B5BC0A0
:101BF0004C9903C08E8180648E83E5E2F0E08081A1
:101C0000877F80838AE08A95F1F71C9903C08D81D4
:101C100081608D831D9903C08D8184608D83489977
:101C200003C08D8188608D834C9903C08D81826053
:101C30008D83E5E2F0E08081837F886080838AE0A5
:101C40008A95F1F71C9903C08E8182608E831D995D
:101C500003C08E8184608E83489903C08E81816029
:101C60008E834C9903C08F8188608F83E5E2F0E01A
:101C70008081837F80838AE08A95F1F71C9903C075
:101C80008E8180628E831D9903C08E8180618E83D8
:101C9000489903C08E8188608E834C993EC18E81A5
:101CA00080688E833AC11C9B38C1E5E2F0E08081F8
:101CB000877F808380818B7F80830E94C10D1C99E8
:101CC0001BC105E210E0F8018081846080830E94DE
:101CD000CC0DF80180818B7F80830E94C10D1C99FF
:101CE00003C08D8181608D831D9903C08D818460C7
:101CF0008D83489903C08D8188608D834C9B02C081
:101D000010E01AC08D8182608D8310E015C08D8136
:101D100081608D831D9903C08D8184608D83489976
:101D200003C08D8188608D834C9B02C011E004C08C
:101D30008D8182608D8311E0E5E2F0E08081846036
:101D400080830E94CC0D1C9903C08E8182608E839B
:101D50001D9903C08E8184608E83489903C08E8153
:101D600081608E834C9903C08F8188608F83E5E208
:101D7000F0E080818B7F80830E94C10D1C9903C09D
:101D80008E8180628E831D9903C08E8180618E83D7
:101D9000489903C08E8188608E834C9903C08E81E0
:101DA00080688E83E5E2F0E08081846080830E9419
:101DB000CC0D4C9903C08E8180648E83E5E2F0E007
:101DC00080818B7F80830E94C10D1C9902C000E13D
:101DD00001C000E01D9B0062489B00644C9B0068B2
:101DE000E5E2F0E08081846080830E94CC0D1C9B42
:101DF00001601D9B0260489B04604C9B0860113091
:101E000019F48FE7801B8983E5E2F0E080818B7F06
:101E100080830E94C10D1C9902C000E101C000E056
:101E20001D9B0062489B00644C9B0068E5E2F0E06B
:101E30008081846080830E94CC0D1C9B01601D9B6F
:101E40000260489B04604C9B0860113019F48FE7D6
:101E5000801B8A83E5E2F0E080818B7F80830E9493
:101E6000C10D1C9902C000E101C000E01D9B006291
:101E7000489B00644C9B0068E5E2F0E08081846050
:101E800080830E94CC0D1C9B01601D9B0260489BBF
:101E900004604C9B0860113019F4802F80588C83AB
:101EA000E5E2F0E080818B7F80830E94C10D1C9968
:101EB00002C000E101C000E01D9B0062489B00647D
:101EC0004C9B0068E5E2F0E08081846080830E94A2
:101ED000CC0D1C9B01601D9B0260489B04604C9BC9
:101EE0000860113019F4802F80588B83E5E2F0E010
:101EF00080818C60808311C005E210E0F801808150
:101F0000846080830E94CC0DF80180818B7F808368
:101F10000E94C10D1C9BFBCEFDCEDF91CF911F9186
:101F20000F910895DC01E4E2F0E08081817C808300
:101F3000E5E2F0E080818E638083E7E2F0E080817B
:101F4000827C8083808182608083E8E2F0E080810F
:101F50008F63808380818D7F808380818260808396
:101F600090E82FE0E3E2F0E0822F8A95F1F780819C
:101F700085FF03C011969C931197808184FF03C055
:101F800012969C931297808183FF03C013969C93B3
:101F90001397808182FF03C014969C9314979F5FD0
:101FA0009F3711F711968C9111978E3719F411966E
:101FB0001C92119712968C9112978E3719F41296E3
:101FC0001C92129713968C9113978E3719F41396CF
:101FD0001C92139714968C9114978E3719F41496BB
:101FE0001C921497309907C016968C9116978160B1
:101FF00016968C931697199907C016968C9116977A
:10200000826016968C9316974C9907C016968C9101
:102010001697846016968C931697489906C0169664
:102020008C911697886016968C930895E9E6F0E0F7
:10203000808182608083EDE3F0E080818160808335
:10204000ADE6B1E08BE48C93EFEAF1E08083119789
:102050008AE58C933197808308951F93CF93DF9304
:1020600080919401982F93500AF4A3C0209191017C
:10207000809190018D3209F09AC0983009F097C094
:102080008CE090E0821B9109FC01E856FE4FEF01C5
:1020900083EC809361018AE5809300011092320104
:1020A0008081807629F0CF010E941702982F76C098
:1020B000928110926A018181882331F4EBE6F1E08C
:1020C000108292E0319766C0853031F4909395018B
:1020D00090E0EAE6F1E05EC08630D1F583818130A0
:1020E00041F488E690E0909393018093920192E10D
:1020F0002BC0823041F48AE790E090939301809363
:10210000920190E221C08330F1F4992341F484ECF0
:1021100090E0909393018093920194E015C09130E8
:1021200041F488EC90E090939301809392019AE2BD
:102130000BC0923041F482EF90E090939301809332
:1021400092019AE201C090E080E48093320126C0BF
:10215000883021F491E0E7E9F1E01CC0893031F4E6
:102160009093970190E0EAE6F1E014C08A3021F400
:1021700091E0EAE6F1E00EC08B3021F090E0EAE673
:10218000F1E008C08BE480936D018093AF0190E093
:10219000EAE6F1E0F0939301E09392018F818823C6
:1021A00021F48E81891708F4982F909301011092E1
:1021B00094018091000184FF57C0109101011F3FDD
:1021C00009F452C0193008F05CC010920101E1E638
:1021D000F1E0808198E889278083112309F45DC0AC
:1021E00020919201309193018091320186FF14C0B9
:1021F000A2E6B1E080E090E0F901E80FF91FE49178
:10220000ED9301961817C1F7812F815090E0019648
:10221000F901E80FF91F0FC0D901912FE2E6F1E0B3
:102220008D9181939150E1F7812F815090E001963B
:10223000F901E80FF91FF0939301E093920119302F
:1022400068F482E691E0612F0E949B11612F6C5F20
:102250006C3040F48FEF8093010104C08FEF8093C6
:1022600001016EE16093000194E1E9E2F0E0808118
:102270008670D1F49150D9F71092950110928F0188
:1022800013C0812F885080930101E1E6F1E0808145
:1022900098E88927808318E0A3CF82E691E060E088
:1022A0000E949B1164E0D6CFDF91CF911F910895DA
:1022B0001F93CF93DF93DC01162FEA01888184FFFF
:1022C00005C0898198E88927898302C08AE58883C7
:1022D000AE014E5F5F4FFA01212F8D918193215006
:1022E000E1F7CA01612F0E949B11812F8C5F8883C7
:1022F000DF91CF911F9108954EEA51E00E9458114D
:1023000008954CE651E00E9458110895A82FB92F66
:1023100080E090E041E050EA609530E009C02D9106
:1023200082279795879510F084279527305EC8F30C
:102330006F5FA8F30895EADF8D939D930895CF937F
:10234000CFB7CF93C395499BE9F7499B0BC0499BF6
:1023500009C0499B07C0499B05C0499B03C0499BD5
:1023600001C0C2C0C0919101DF93DD27C856DE4F86
:102370002F932FEF499B03C02F91DF91E6CF0F934F
:102380001F934F936F9309B101FB20F93F933BE0FB
:102390005F931EC04E7F012F19B11670E1F02160CE
:1023A00000001DC0102F4D7F2260000009B1067093
:1023B00091F01DC04B7F2460012F000019B11670F1
:1023C00051F01EC019B1167031F0477F28601BC054
:1023D00019B1167009F462C04FEF297FD9F20127B5
:1023E00001FB21F909B10670B1F3237FD9F210275F
:1023F00011FB22F900C019B1167069F3277ED1F2E2
:10240000012701FB23F92F7CE9F209B1067019F3CA
:10241000102711FB24F92F7929F100C019B116708A
:10242000E9F1012701FB25F92F7311F100C009B172
:102430000670A1F1102711FB26F92230F8F000C038
:1024400019B1167059F1012701FB27F92430E0F08A
:102450004227000009B14993102711FB20F93150A0
:10246000C8F0B6CF4F7E09B10670C1F02061D3CF5E
:10247000206219B1167091F04F7DD6CF4F7B09B114
:10248000067061F02064D9CF4F7719B1167031F022
:102490002068DCCF11E01CBB002719C03B503195F0
:1024A000C31BD04011E01CBB0881033C09F10B3475
:1024B000F9F020918F011981110F1213EDCF4A818C
:1024C000441F093651F10D3211F0013E29F70093F6
:1024D00096015F913F916F914F911F910F912F91B5
:1024E000DF91CCB3C0FD2ECFCF91CFBFCF91189548
:1024F00020919601222369F3109194011123E1F5B3
:102500003430E2F1309394012093900110919101C5
:102510003BE0311B3093910131C0009194010130B7
:102520005CF50AE54F7049F43091000134FD27C095
:1025300000930001C1E6D1E026C0423049F030915D
:102540006C0134FD1CC000936C01CDE6D1E01BC0D2
:102550003091AE0136FD13C00093AE01CFEAD1E059
:1025600012C005271127000019C0052711271FC019
:1025700005271127000024C04AE502C032ED432F91
:10258000C4E1D0E032E01AB11660599A0BB11AB921
:1025900056E020E866E020FF052727950BB9179540
:1025A0001C3FF8F66A95B9F720FF0527279500002C
:1025B0000BB917951C3FC8F620FF052727951795DF
:1025C00066E01C3F0BB9A0F629913A9521F7097FE7
:1025D00010919501110F0BB9C651D04011F0109315
:1025E0008F0111E01CBB02601AB1197F402F497F97
:1025F00053E05A95F1F700C00BB91AB94BB969CF3E
:10260000629FD001739FF001829FE00DF11D649FD6
:10261000E00DF11D929FF00D839FF00D749FF00D62
:10262000659FF00D9927729FB00DE11DF91F639F03
:10263000B00DE11DF91FBD01CF011124089597FBD5
:10264000092E05260ED057FD04D014D00AD0001C48
:1026500038F450954095309521953F4F4F4F5F4F3F
:102660000895F6F790958095709561957F4F8F4FFF
:102670009F4F0895A1E21A2EAA1BBB1BFD010DC09E
:10268000AA1FBB1FEE1FFF1FA217B307E407F50722
:1026900020F0A21BB30BE40BF50B661F771F881FFE
:1026A000991F1A9469F760957095809590959B0194
:0C26B000AC01BD01CF010895F894FFCFEC
:0226BC005AFFC3
:00000001FF
